{
  "_format": "hh-sol-artifact-1",
  "contractName": "IdentityManagement",
  "sourceName": "blockchain/contracts/IdentityManagement.sol",
  "abi": [
    {
      "inputs": [],
      "stateMutability": "nonpayable",
      "type": "constructor"
    },
    {
      "anonymous": false,
      "inputs": [
        {
          "indexed": true,
          "internalType": "address",
          "name": "user",
          "type": "address"
        },
        {
          "indexed": false,
          "internalType": "bytes32",
          "name": "biometricHash",
          "type": "bytes32"
        },
        {
          "indexed": false,
          "internalType": "uint256",
          "name": "timestamp",
          "type": "uint256"
        }
      ],
      "name": "IdentityCreated",
      "type": "event"
    },
    {
      "anonymous": false,
      "inputs": [
        {
          "indexed": true,
          "internalType": "address",
          "name": "user",
          "type": "address"
        },
        {
          "indexed": true,
          "internalType": "address",
          "name": "updatedBy",
          "type": "address"
        },
        {
          "indexed": false,
          "internalType": "uint256",
          "name": "timestamp",
          "type": "uint256"
        }
      ],
      "name": "IdentityUpdated",
      "type": "event"
    },
    {
      "anonymous": false,
      "inputs": [
        {
          "indexed": true,
          "internalType": "address",
          "name": "user",
          "type": "address"
        },
        {
          "indexed": true,
          "internalType": "address",
          "name": "verifier",
          "type": "address"
        },
        {
          "indexed": false,
          "internalType": "uint256",
          "name": "timestamp",
          "type": "uint256"
        }
      ],
      "name": "IdentityVerified",
      "type": "event"
    },
    {
      "anonymous": false,
      "inputs": [
        {
          "indexed": true,
          "internalType": "address",
          "name": "user",
          "type": "address"
        },
        {
          "indexed": false,
          "internalType": "bytes32",
          "name": "dataHash",
          "type": "bytes32"
        },
        {
          "indexed": false,
          "internalType": "uint256",
          "name": "timestamp",
          "type": "uint256"
        }
      ],
      "name": "ProfessionalRecordAdded",
      "type": "event"
    },
    {
      "anonymous": false,
      "inputs": [
        {
          "indexed": true,
          "internalType": "address",
          "name": "user",
          "type": "address"
        },
        {
          "indexed": false,
          "internalType": "uint256",
          "name": "recordIndex",
          "type": "uint256"
        },
        {
          "indexed": false,
          "internalType": "address",
          "name": "verifier",
          "type": "address"
        },
        {
          "indexed": false,
          "internalType": "uint256",
          "name": "timestamp",
          "type": "uint256"
        }
      ],
      "name": "ProfessionalRecordVerified",
      "type": "event"
    },
    {
      "anonymous": false,
      "inputs": [
        {
          "indexed": true,
          "internalType": "address",
          "name": "account",
          "type": "address"
        },
        {
          "indexed": true,
          "internalType": "bytes32",
          "name": "role",
          "type": "bytes32"
        },
        {
          "indexed": true,
          "internalType": "address",
          "name": "grantor",
          "type": "address"
        }
      ],
      "name": "RoleGranted",
      "type": "event"
    },
    {
      "anonymous": false,
      "inputs": [
        {
          "indexed": true,
          "internalType": "address",
          "name": "account",
          "type": "address"
        },
        {
          "indexed": true,
          "internalType": "bytes32",
          "name": "role",
          "type": "bytes32"
        },
        {
          "indexed": true,
          "internalType": "address",
          "name": "revoker",
          "type": "address"
        }
      ],
      "name": "RoleRevoked",
      "type": "event"
    },
    {
      "inputs": [],
      "name": "ADMIN_ROLE",
      "outputs": [
        {
          "internalType": "bytes32",
          "name": "",
          "type": "bytes32"
        }
      ],
      "stateMutability": "view",
      "type": "function"
    },
    {
      "inputs": [],
      "name": "GOVERNMENT_ROLE",
      "outputs": [
        {
          "internalType": "bytes32",
          "name": "",
          "type": "bytes32"
        }
      ],
      "stateMutability": "view",
      "type": "function"
    },
    {
      "inputs": [],
      "name": "USER_ROLE",
      "outputs": [
        {
          "internalType": "bytes32",
          "name": "",
          "type": "bytes32"
        }
      ],
      "stateMutability": "view",
      "type": "function"
    },
    {
      "inputs": [
        {
          "internalType": "bytes32",
          "name": "dataHash",
          "type": "bytes32"
        },
        {
          "internalType": "uint256",
          "name": "startDate",
          "type": "uint256"
        },
        {
          "internalType": "uint256",
          "name": "endDate",
          "type": "uint256"
        }
      ],
      "name": "addProfessionalRecord",
      "outputs": [],
      "stateMutability": "nonpayable",
      "type": "function"
    },
    {
      "inputs": [
        {
          "internalType": "bytes32",
          "name": "biometricHash",
          "type": "bytes32"
        },
        {
          "internalType": "bytes32",
          "name": "professionalDataHash",
          "type": "bytes32"
        }
      ],
      "name": "createIdentity",
      "outputs": [],
      "stateMutability": "nonpayable",
      "type": "function"
    },
    {
      "inputs": [
        {
          "internalType": "address",
          "name": "user",
          "type": "address"
        }
      ],
      "name": "getBiometricHash",
      "outputs": [
        {
          "internalType": "bytes32",
          "name": "",
          "type": "bytes32"
        }
      ],
      "stateMutability": "view",
      "type": "function"
    },
    {
      "inputs": [
        {
          "internalType": "address",
          "name": "user",
          "type": "address"
        },
        {
          "internalType": "uint256",
          "name": "recordIndex",
          "type": "uint256"
        }
      ],
      "name": "getProfessionalRecord",
      "outputs": [
        {
          "internalType": "bytes32",
          "name": "dataHash",
          "type": "bytes32"
        },
        {
          "internalType": "uint256",
          "name": "startDate",
          "type": "uint256"
        },
        {
          "internalType": "uint256",
          "name": "endDate",
          "type": "uint256"
        },
        {
          "internalType": "address",
          "name": "verifier",
          "type": "address"
        },
        {
          "internalType": "bool",
          "name": "isVerified",
          "type": "bool"
        },
        {
          "internalType": "uint256",
          "name": "createdAt",
          "type": "uint256"
        }
      ],
      "stateMutability": "view",
      "type": "function"
    },
    {
      "inputs": [
        {
          "internalType": "address",
          "name": "user",
          "type": "address"
        }
      ],
      "name": "getProfessionalRecordCount",
      "outputs": [
        {
          "internalType": "uint256",
          "name": "",
          "type": "uint256"
        }
      ],
      "stateMutability": "view",
      "type": "function"
    },
    {
      "inputs": [
        {
          "internalType": "address",
          "name": "account",
          "type": "address"
        },
        {
          "internalType": "bytes32",
          "name": "role",
          "type": "bytes32"
        }
      ],
      "name": "grantRole",
      "outputs": [],
      "stateMutability": "nonpayable",
      "type": "function"
    },
    {
      "inputs": [
        {
          "internalType": "address",
          "name": "account",
          "type": "address"
        },
        {
          "internalType": "bytes32",
          "name": "role",
          "type": "bytes32"
        }
      ],
      "name": "hasRole",
      "outputs": [
        {
          "internalType": "bool",
          "name": "",
          "type": "bool"
        }
      ],
      "stateMutability": "view",
      "type": "function"
    },
    {
      "inputs": [
        {
          "internalType": "address",
          "name": "user",
          "type": "address"
        }
      ],
      "name": "isIdentityVerified",
      "outputs": [
        {
          "internalType": "bool",
          "name": "",
          "type": "bool"
        }
      ],
      "stateMutability": "view",
      "type": "function"
    },
    {
      "inputs": [
        {
          "internalType": "address",
          "name": "account",
          "type": "address"
        },
        {
          "internalType": "bytes32",
          "name": "role",
          "type": "bytes32"
        }
      ],
      "name": "revokeRole",
      "outputs": [],
      "stateMutability": "nonpayable",
      "type": "function"
    },
    {
      "inputs": [
        {
          "internalType": "address",
          "name": "user",
          "type": "address"
        },
        {
          "internalType": "bytes32",
          "name": "newBiometricHash",
          "type": "bytes32"
        }
      ],
      "name": "updateBiometricHash",
      "outputs": [],
      "stateMutability": "nonpayable",
      "type": "function"
    },
    {
      "inputs": [
        {
          "internalType": "bytes32",
          "name": "newProfessionalDataHash",
          "type": "bytes32"
        }
      ],
      "name": "updateProfessionalData",
      "outputs": [],
      "stateMutability": "nonpayable",
      "type": "function"
    },
    {
      "inputs": [
        {
          "internalType": "address",
          "name": "user",
          "type": "address"
        }
      ],
      "name": "verifyIdentity",
      "outputs": [],
      "stateMutability": "nonpayable",
      "type": "function"
    },
    {
      "inputs": [
        {
          "internalType": "address",
          "name": "user",
          "type": "address"
        },
        {
          "internalType": "uint256",
          "name": "recordIndex",
          "type": "uint256"
        }
      ],
      "name": "verifyProfessionalRecord",
      "outputs": [],
      "stateMutability": "nonpayable",
      "type": "function"
    }
  ],
  "bytecode": "0x608060405234801561001057600080fd5b503360008181526002602090815260408083207fdf8b4c520ffe197c5343c6f5aec59570151ef9a492f2c624fd45ddde6135ec428085529252808320805460ff1916600117905551909183917f2739f947da5133134a8e9c6a84d5ed6da396844d81b4a760121c8b9c668bdf9c9190a4610fc58061008f6000396000f3fe608060405234801561001057600080fd5b50600436106101005760003560e01c8063ab2742dc11610097578063bdbf8bcd11610066578063bdbf8bcd14610262578063d4f2dbf914610275578063f28d0c1f146102c0578063f63ac762146102d357600080fd5b8063ab2742dc146101e0578063ac4ab3fb146101f3578063b3dccb7d1461023c578063b5b90fd91461024f57600080fd5b806375b238fc116100d357806375b238fc146101905780637f95b089146101a55780639cbed582146101b8578063a166c556146101cd57600080fd5b80631311916114610105578063208dd1ff1461013f5780635dfe215414610154578063680a138b1461017d575b600080fd5b61012c7f2db9fd3d099848027c2383d0a083396f6c41510d7acfd92adc99b6cffcf31e9681565b6040519081526020015b60405180910390f35b61015261014d366004610e09565b6102e6565b005b61012c610162366004610e33565b6001600160a01b031660009081526001602052604090205490565b61012c61018b366004610e33565b610394565b61012c600080516020610f5083398151915281565b6101526101b3366004610e55565b6103eb565b61012c600080516020610f7083398151915281565b6101526101db366004610e09565b610573565b6101526101ee366004610e09565b6106e1565b61022c610201366004610e09565b6001600160a01b03919091166000908152600260209081526040808320938352929052205460ff1690565b6040519015158152602001610136565b61015261024a366004610e09565b610789565b61015261025d366004610e33565b610919565b610152610270366004610e77565b610a0c565b610288610283366004610e09565b610bcf565b604080519687526020870195909552938501929092526001600160a01b031660608401521515608083015260a082015260c001610136565b6101526102ce366004610ea3565b610ced565b61022c6102e1366004610e33565b610d89565b336000908152600260209081526040808320600080516020610f5083398151915280855292529091205460ff166103385760405162461bcd60e51b815260040161032f90610ebc565b60405180910390fd5b6001600160a01b0383166000818152600260209081526040808320868452909152808220805460ff19169055513392859290917f8fa769283732af9aa4f65d966aceb1295944e96fcdd7031699b47da23286d2859190a4505050565b6001600160a01b038116600090815260036020526040812054829060ff166103ce5760405162461bcd60e51b815260040161032f90610f02565b50506001600160a01b031660009081526020819052604090205490565b3360009081526003602052604090205460ff161561044b5760405162461bcd60e51b815260206004820152601760248201527f4964656e7469747920616c726561647920657869737473000000000000000000604482015260640161032f565b336000818152602081815260408083208681556001808201879055426002808401829055600380850183905560048501805460ff60a01b198b166001600160a81b03199091161790558652848720805460ff1990811685179091559086528487207f2db9fd3d099848027c2383d0a083396f6c41510d7acfd92adc99b6cffcf31e96885290955294839020805490941617909255519092917f9161cc6e1ef27bd9c14e13d3328d786ace99bcc06695aee418950a6b8388e8929161051791878252602082015260400190565b60405180910390a260405133907f2db9fd3d099848027c2383d0a083396f6c41510d7acfd92adc99b6cffcf31e969082907f2739f947da5133134a8e9c6a84d5ed6da396844d81b4a760121c8b9c668bdf9c90600090a4505050565b6001600160a01b038216600090815260036020526040902054829060ff166105ad5760405162461bcd60e51b815260040161032f90610f02565b6001600160a01b0383163314806105ec5750336000908152600260209081526040808320600080516020610f70833981519152845290915290205460ff165b8061061f5750336000908152600260209081526040808320600080516020610f50833981519152845290915290205460ff165b61066b5760405162461bcd60e51b815260206004820152601860248201527f4e6f7420617574686f72697a656420746f207570646174650000000000000000604482015260640161032f565b6001600160a01b0383166000818152602081815260409182902085815542600382018190556004820180546001600160a01b0319163390811790915593519081529093917f1fceeede3e7bc3a67e8a2a88ef6df032033ae36ee4c9c25364375ff57cf1245191015b60405180910390a350505050565b336000908152600260209081526040808320600080516020610f5083398151915280855292529091205460ff1661072a5760405162461bcd60e51b815260040161032f90610ebc565b6001600160a01b0383166000818152600260209081526040808320868452909152808220805460ff19166001179055513392859290917f2739f947da5133134a8e9c6a84d5ed6da396844d81b4a760121c8b9c668bdf9c9190a4505050565b336000908152600260209081526040808320600080516020610f7083398151915280855292529091205460ff166107d25760405162461bcd60e51b815260040161032f90610ebc565b6001600160a01b038316600090815260036020526040902054839060ff1661080c5760405162461bcd60e51b815260040161032f90610f02565b6001600160a01b038416600090815260016020526040902054831061086b5760405162461bcd60e51b8152602060048201526015602482015274149958dbdc9908191bd95cc81b9bdd08195e1a5cdd605a1b604482015260640161032f565b6001600160a01b038416600090815260016020526040812080548590811061089557610895610f39565b6000918252602091829020600590910201600381018054600160a01b336001600160a81b03199092168217179091556040805188815293840191909152429083015291506001600160a01b038616907fd8834d67aec3b146bb27dfad80040e86365c1bd9a455fcf900236a83ed5fe4ec906060015b60405180910390a25050505050565b336000908152600260209081526040808320600080516020610f7083398151915280855292529091205460ff166109625760405162461bcd60e51b815260040161032f90610ebc565b6001600160a01b038216600090815260036020526040902054829060ff1661099c5760405162461bcd60e51b815260040161032f90610f02565b6001600160a01b038316600081815260208181526040918290206004810180544260038401819055600160a01b336001600160a81b031990931683171790925593519081529093917fb2bcb3ba2bf3b93e2542d507691451c5931f37cbc94db4d3290226b09334972491016106d3565b3360008181526003602052604090205460ff16610a3b5760405162461bcd60e51b815260040161032f90610f02565b42831115610a965760405162461bcd60e51b815260206004820152602260248201527f537461727420646174652063616e6e6f7420626520696e207468652066757475604482015261726560f01b606482015260840161032f565b811580610aa35750828210155b610af95760405162461bcd60e51b815260206004820152602160248201527f456e642064617465206d757374206265206166746572207374617274206461746044820152606560f81b606482015260840161032f565b6040805160c0810182528581526020808201868152828401868152600060608501818152608086018281524260a08801818152338086526001808a528b872080548083018255908852968a90208b5160059098020196875597519786019790975594516002850155915160038401805492511515600160a01b026001600160a81b03199093166001600160a01b0390921691909117919091179055915160049091015584518981529283015291927f7d7fe050998aff3da8ebec061ec0ba43f66201a3681e88947fe714495a188579910161090a565b6001600160a01b03821660009081526003602052604081205481908190819081908190889060ff16610c135760405162461bcd60e51b815260040161032f90610f02565b6001600160a01b0389166000908152600160205260409020548810610c725760405162461bcd60e51b8152602060048201526015602482015274149958dbdc9908191bd95cc81b9bdd08195e1a5cdd605a1b604482015260640161032f565b6001600160a01b038916600090815260016020526040812080548a908110610c9c57610c9c610f39565b600091825260209091206005909102018054600182015460028301546003840154600490940154929e919d509b506001600160a01b0383169a50600160a01b90920460ff1698509650945050505050565b3360008181526003602052604090205460ff16610d1c5760405162461bcd60e51b815260040161032f90610f02565b33600081815260208181526040918290206001810186905542600382018190556004820180546001600160a01b031916861790559251928352929182917f1fceeede3e7bc3a67e8a2a88ef6df032033ae36ee4c9c25364375ff57cf12451910160405180910390a3505050565b6001600160a01b038116600090815260036020526040812054829060ff16610dc35760405162461bcd60e51b815260040161032f90610f02565b50506001600160a01b0316600090815260208190526040902060040154600160a01b900460ff1690565b80356001600160a01b0381168114610e0457600080fd5b919050565b60008060408385031215610e1c57600080fd5b610e2583610ded565b946020939093013593505050565b600060208284031215610e4557600080fd5b610e4e82610ded565b9392505050565b60008060408385031215610e6857600080fd5b50508035926020909101359150565b600080600060608486031215610e8c57600080fd5b505081359360208301359350604090920135919050565b600060208284031215610eb557600080fd5b5035919050565b60208082526026908201527f43616c6c657220646f6573206e6f7420686176652074686520726571756972656040820152656420726f6c6560d01b606082015260800190565b60208082526017908201527f4964656e7469747920646f6573206e6f74206578697374000000000000000000604082015260600190565b634e487b7160e01b600052603260045260246000fdfedf8b4c520ffe197c5343c6f5aec59570151ef9a492f2c624fd45ddde6135ec42c7a6bfa28ee24953425efb0bb89772445020cd5ae1af751673fd61a47416f017a26469706673582212201c7f0908c8de74b85b7dc4a92a7945ba3b6de591cc9564f376d77d015743897364736f6c63430008110033",
  "linkReferences": {},
  "deployedLinkReferences": {}
}