{
  "_format": "hh-sol-artifact-1",
  "contractName": "DBISIdentityContract",
  "sourceName": "blockchain/contracts/backup/DBISIdentityContract.sol",
  "abi": [
    {
      "inputs": [],
      "stateMutability": "nonpayable",
      "type": "constructor"
    },
    {
      "anonymous": false,
      "inputs": [
        {
          "indexed": true,
          "internalType": "address",
          "name": "userAddress",
          "type": "address"
        },
        {
          "indexed": true,
          "internalType": "bytes32",
          "name": "userId",
          "type": "bytes32"
        },
        {
          "indexed": false,
          "internalType": "bytes32",
          "name": "newBiometricHash",
          "type": "bytes32"
        },
        {
          "indexed": false,
          "internalType": "uint256",
          "name": "timestamp",
          "type": "uint256"
        }
      ],
      "name": "BiometricHashUpdated",
      "type": "event"
    },
    {
      "anonymous": false,
      "inputs": [
        {
          "indexed": true,
          "internalType": "bytes32",
          "name": "documentHash",
          "type": "bytes32"
        },
        {
          "indexed": true,
          "internalType": "address",
          "name": "issuer",
          "type": "address"
        },
        {
          "indexed": false,
          "internalType": "uint256",
          "name": "timestamp",
          "type": "uint256"
        }
      ],
      "name": "DocumentRegistered",
      "type": "event"
    },
    {
      "anonymous": false,
      "inputs": [
        {
          "indexed": true,
          "internalType": "address",
          "name": "userAddress",
          "type": "address"
        },
        {
          "indexed": true,
          "internalType": "bytes32",
          "name": "userId",
          "type": "bytes32"
        },
        {
          "indexed": false,
          "internalType": "bytes32",
          "name": "newProfessionalDataHash",
          "type": "bytes32"
        },
        {
          "indexed": false,
          "internalType": "uint256",
          "name": "timestamp",
          "type": "uint256"
        }
      ],
      "name": "ProfessionalDataUpdated",
      "type": "event"
    },
    {
      "anonymous": false,
      "inputs": [
        {
          "indexed": true,
          "internalType": "address",
          "name": "userAddress",
          "type": "address"
        },
        {
          "indexed": false,
          "internalType": "bytes32",
          "name": "dataHash",
          "type": "bytes32"
        },
        {
          "indexed": false,
          "internalType": "uint256",
          "name": "startDate",
          "type": "uint256"
        },
        {
          "indexed": false,
          "internalType": "uint256",
          "name": "endDate",
          "type": "uint256"
        },
        {
          "indexed": false,
          "internalType": "uint256",
          "name": "timestamp",
          "type": "uint256"
        }
      ],
      "name": "ProfessionalRecordAdded",
      "type": "event"
    },
    {
      "anonymous": false,
      "inputs": [
        {
          "indexed": true,
          "internalType": "address",
          "name": "userAddress",
          "type": "address"
        },
        {
          "indexed": false,
          "internalType": "uint256",
          "name": "recordIndex",
          "type": "uint256"
        },
        {
          "indexed": true,
          "internalType": "address",
          "name": "verifier",
          "type": "address"
        },
        {
          "indexed": false,
          "internalType": "uint256",
          "name": "timestamp",
          "type": "uint256"
        }
      ],
      "name": "ProfessionalRecordVerified",
      "type": "event"
    },
    {
      "anonymous": false,
      "inputs": [
        {
          "indexed": true,
          "internalType": "address",
          "name": "account",
          "type": "address"
        },
        {
          "indexed": true,
          "internalType": "bytes32",
          "name": "role",
          "type": "bytes32"
        },
        {
          "indexed": true,
          "internalType": "address",
          "name": "grantor",
          "type": "address"
        }
      ],
      "name": "RoleGranted",
      "type": "event"
    },
    {
      "anonymous": false,
      "inputs": [
        {
          "indexed": true,
          "internalType": "address",
          "name": "account",
          "type": "address"
        },
        {
          "indexed": true,
          "internalType": "bytes32",
          "name": "role",
          "type": "bytes32"
        },
        {
          "indexed": true,
          "internalType": "address",
          "name": "revoker",
          "type": "address"
        }
      ],
      "name": "RoleRevoked",
      "type": "event"
    },
    {
      "anonymous": false,
      "inputs": [
        {
          "indexed": true,
          "internalType": "address",
          "name": "userAddress",
          "type": "address"
        },
        {
          "indexed": true,
          "internalType": "bytes32",
          "name": "userId",
          "type": "bytes32"
        },
        {
          "indexed": false,
          "internalType": "bytes32",
          "name": "biometricHash",
          "type": "bytes32"
        },
        {
          "indexed": false,
          "internalType": "uint256",
          "name": "timestamp",
          "type": "uint256"
        }
      ],
      "name": "UserRegistered",
      "type": "event"
    },
    {
      "anonymous": false,
      "inputs": [
        {
          "indexed": true,
          "internalType": "address",
          "name": "userAddress",
          "type": "address"
        },
        {
          "indexed": true,
          "internalType": "bytes32",
          "name": "userId",
          "type": "bytes32"
        },
        {
          "indexed": true,
          "internalType": "address",
          "name": "revoker",
          "type": "address"
        },
        {
          "indexed": false,
          "internalType": "uint256",
          "name": "timestamp",
          "type": "uint256"
        }
      ],
      "name": "UserRevoked",
      "type": "event"
    },
    {
      "anonymous": false,
      "inputs": [
        {
          "indexed": true,
          "internalType": "address",
          "name": "userAddress",
          "type": "address"
        },
        {
          "indexed": true,
          "internalType": "bytes32",
          "name": "userId",
          "type": "bytes32"
        },
        {
          "indexed": true,
          "internalType": "address",
          "name": "updater",
          "type": "address"
        },
        {
          "indexed": false,
          "internalType": "uint256",
          "name": "timestamp",
          "type": "uint256"
        }
      ],
      "name": "UserUpdated",
      "type": "event"
    },
    {
      "anonymous": false,
      "inputs": [
        {
          "indexed": true,
          "internalType": "address",
          "name": "userAddress",
          "type": "address"
        },
        {
          "indexed": true,
          "internalType": "bytes32",
          "name": "userId",
          "type": "bytes32"
        },
        {
          "indexed": true,
          "internalType": "address",
          "name": "verifier",
          "type": "address"
        },
        {
          "indexed": false,
          "internalType": "uint256",
          "name": "timestamp",
          "type": "uint256"
        }
      ],
      "name": "UserVerified",
      "type": "event"
    },
    {
      "inputs": [],
      "name": "ADMIN_ROLE",
      "outputs": [
        {
          "internalType": "bytes32",
          "name": "",
          "type": "bytes32"
        }
      ],
      "stateMutability": "view",
      "type": "function"
    },
    {
      "inputs": [],
      "name": "GOVERNMENT_ROLE",
      "outputs": [
        {
          "internalType": "bytes32",
          "name": "",
          "type": "bytes32"
        }
      ],
      "stateMutability": "view",
      "type": "function"
    },
    {
      "inputs": [],
      "name": "USER_ROLE",
      "outputs": [
        {
          "internalType": "bytes32",
          "name": "",
          "type": "bytes32"
        }
      ],
      "stateMutability": "view",
      "type": "function"
    },
    {
      "inputs": [
        {
          "internalType": "bytes32",
          "name": "dataHash",
          "type": "bytes32"
        },
        {
          "internalType": "uint256",
          "name": "startDate",
          "type": "uint256"
        },
        {
          "internalType": "uint256",
          "name": "endDate",
          "type": "uint256"
        }
      ],
      "name": "addProfessionalRecord",
      "outputs": [],
      "stateMutability": "nonpayable",
      "type": "function"
    },
    {
      "inputs": [
        {
          "internalType": "bytes32",
          "name": "userId",
          "type": "bytes32"
        },
        {
          "internalType": "bytes32",
          "name": "biometricHash",
          "type": "bytes32"
        },
        {
          "internalType": "bytes32",
          "name": "professionalDataHash",
          "type": "bytes32"
        }
      ],
      "name": "createIdentity",
      "outputs": [],
      "stateMutability": "nonpayable",
      "type": "function"
    },
    {
      "inputs": [
        {
          "internalType": "address",
          "name": "userAddress",
          "type": "address"
        }
      ],
      "name": "getBiometricHash",
      "outputs": [
        {
          "internalType": "bytes32",
          "name": "",
          "type": "bytes32"
        }
      ],
      "stateMutability": "view",
      "type": "function"
    },
    {
      "inputs": [
        {
          "internalType": "address",
          "name": "userAddress",
          "type": "address"
        }
      ],
      "name": "getIdentity",
      "outputs": [
        {
          "internalType": "bytes32",
          "name": "userId",
          "type": "bytes32"
        },
        {
          "internalType": "bytes32",
          "name": "biometricHash",
          "type": "bytes32"
        },
        {
          "internalType": "bytes32",
          "name": "professionalDataHash",
          "type": "bytes32"
        },
        {
          "internalType": "bool",
          "name": "isVerified",
          "type": "bool"
        },
        {
          "internalType": "bool",
          "name": "isRevoked",
          "type": "bool"
        },
        {
          "internalType": "uint256",
          "name": "timestamp",
          "type": "uint256"
        }
      ],
      "stateMutability": "view",
      "type": "function"
    },
    {
      "inputs": [
        {
          "internalType": "bytes32",
          "name": "userId",
          "type": "bytes32"
        }
      ],
      "name": "getIdentityByUserId",
      "outputs": [
        {
          "internalType": "address",
          "name": "userAddress",
          "type": "address"
        },
        {
          "internalType": "bytes32",
          "name": "biometricHash",
          "type": "bytes32"
        },
        {
          "internalType": "bytes32",
          "name": "professionalDataHash",
          "type": "bytes32"
        },
        {
          "internalType": "bool",
          "name": "isVerified",
          "type": "bool"
        },
        {
          "internalType": "bool",
          "name": "isRevoked",
          "type": "bool"
        },
        {
          "internalType": "uint256",
          "name": "timestamp",
          "type": "uint256"
        }
      ],
      "stateMutability": "view",
      "type": "function"
    },
    {
      "inputs": [
        {
          "internalType": "address",
          "name": "userAddress",
          "type": "address"
        },
        {
          "internalType": "uint256",
          "name": "recordIndex",
          "type": "uint256"
        }
      ],
      "name": "getProfessionalRecord",
      "outputs": [
        {
          "internalType": "bytes32",
          "name": "dataHash",
          "type": "bytes32"
        },
        {
          "internalType": "uint256",
          "name": "startDate",
          "type": "uint256"
        },
        {
          "internalType": "uint256",
          "name": "endDate",
          "type": "uint256"
        },
        {
          "internalType": "address",
          "name": "verifier",
          "type": "address"
        },
        {
          "internalType": "bool",
          "name": "isVerified",
          "type": "bool"
        },
        {
          "internalType": "uint256",
          "name": "createdAt",
          "type": "uint256"
        }
      ],
      "stateMutability": "view",
      "type": "function"
    },
    {
      "inputs": [
        {
          "internalType": "address",
          "name": "userAddress",
          "type": "address"
        }
      ],
      "name": "getProfessionalRecordCount",
      "outputs": [
        {
          "internalType": "uint256",
          "name": "",
          "type": "uint256"
        }
      ],
      "stateMutability": "view",
      "type": "function"
    },
    {
      "inputs": [
        {
          "internalType": "address",
          "name": "account",
          "type": "address"
        },
        {
          "internalType": "bytes32",
          "name": "role",
          "type": "bytes32"
        }
      ],
      "name": "grantRole",
      "outputs": [],
      "stateMutability": "nonpayable",
      "type": "function"
    },
    {
      "inputs": [
        {
          "internalType": "address",
          "name": "account",
          "type": "address"
        },
        {
          "internalType": "bytes32",
          "name": "role",
          "type": "bytes32"
        }
      ],
      "name": "hasRole",
      "outputs": [
        {
          "internalType": "bool",
          "name": "",
          "type": "bool"
        }
      ],
      "stateMutability": "view",
      "type": "function"
    },
    {
      "inputs": [
        {
          "internalType": "address",
          "name": "userAddress",
          "type": "address"
        }
      ],
      "name": "isIdentityVerified",
      "outputs": [
        {
          "internalType": "bool",
          "name": "",
          "type": "bool"
        }
      ],
      "stateMutability": "view",
      "type": "function"
    },
    {
      "inputs": [
        {
          "internalType": "bytes32",
          "name": "documentHash",
          "type": "bytes32"
        }
      ],
      "name": "registerDocument",
      "outputs": [],
      "stateMutability": "nonpayable",
      "type": "function"
    },
    {
      "inputs": [
        {
          "internalType": "address",
          "name": "userAddress",
          "type": "address"
        }
      ],
      "name": "revokeIdentity",
      "outputs": [],
      "stateMutability": "nonpayable",
      "type": "function"
    },
    {
      "inputs": [
        {
          "internalType": "address",
          "name": "account",
          "type": "address"
        },
        {
          "internalType": "bytes32",
          "name": "role",
          "type": "bytes32"
        }
      ],
      "name": "revokeRole",
      "outputs": [],
      "stateMutability": "nonpayable",
      "type": "function"
    },
    {
      "inputs": [
        {
          "internalType": "address",
          "name": "userAddress",
          "type": "address"
        },
        {
          "internalType": "bytes32",
          "name": "newBiometricHash",
          "type": "bytes32"
        }
      ],
      "name": "updateBiometricHash",
      "outputs": [],
      "stateMutability": "nonpayable",
      "type": "function"
    },
    {
      "inputs": [
        {
          "internalType": "address",
          "name": "userAddress",
          "type": "address"
        },
        {
          "internalType": "bytes32",
          "name": "newProfessionalDataHash",
          "type": "bytes32"
        }
      ],
      "name": "updateProfessionalDataHash",
      "outputs": [],
      "stateMutability": "nonpayable",
      "type": "function"
    },
    {
      "inputs": [
        {
          "internalType": "bytes32",
          "name": "documentHash",
          "type": "bytes32"
        }
      ],
      "name": "verifyDocument",
      "outputs": [
        {
          "internalType": "bool",
          "name": "exists",
          "type": "bool"
        },
        {
          "internalType": "address",
          "name": "issuer",
          "type": "address"
        },
        {
          "internalType": "uint256",
          "name": "timestamp",
          "type": "uint256"
        }
      ],
      "stateMutability": "view",
      "type": "function"
    },
    {
      "inputs": [
        {
          "internalType": "address",
          "name": "userAddress",
          "type": "address"
        }
      ],
      "name": "verifyIdentity",
      "outputs": [],
      "stateMutability": "nonpayable",
      "type": "function"
    },
    {
      "inputs": [
        {
          "internalType": "address",
          "name": "userAddress",
          "type": "address"
        },
        {
          "internalType": "uint256",
          "name": "recordIndex",
          "type": "uint256"
        }
      ],
      "name": "verifyProfessionalRecord",
      "outputs": [],
      "stateMutability": "nonpayable",
      "type": "function"
    }
  ],
  "bytecode": "0x60a060405234801561001057600080fd5b5033608081905260008181526003602090815260408083207fdf8b4c520ffe197c5343c6f5aec59570151ef9a492f2c624fd45ddde6135ec428085529252808320805460ff1916600117905551909183917f2739f947da5133134a8e9c6a84d5ed6da396844d81b4a760121c8b9c668bdf9c9190a46080516119be6100a0600039600061063d01526119be6000f3fe608060405234801561001057600080fd5b50600436106101375760003560e01c80639b131974116100b8578063b3dccb7d1161007c578063b3dccb7d1461033e578063b5b90fd914610351578063bdbf8bcd14610364578063d4f2dbf914610377578063f63ac762146103c2578063fe35089f146103d557600080fd5b80639b131974146102a75780639cbed582146102ba578063a166c556146102cf578063ab2742dc146102e2578063ac4ab3fb146102f557600080fd5b80635ddf26ae116100ff5780635ddf26ae146101f55780635dfe215414610243578063680a138b1461026c57806375b238fc1461027f57806375be85e71461029457600080fd5b80630ebddd171461013c5780631311916114610151578063208dd1ff1461018b5780632fea7b811461019e57806346a528ba146101e2575b600080fd5b61014f61014a366004611796565b61043a565b005b6101787f2db9fd3d099848027c2383d0a083396f6c41510d7acfd92adc99b6cffcf31e9681565b6040519081526020015b60405180910390f35b61014f6101993660046117b8565b6105da565b6101b16101ac366004611796565b610735565b60408051968752602087019590955293850192909252151560608401521515608083015260a082015260c001610182565b61014f6101f03660046117e2565b6107d0565b61020861020336600461180e565b6109f5565b604080516001600160a01b039097168752602087019590955293850192909252151560608401521515608083015260a082015260c001610182565b610178610251366004611796565b6001600160a01b031660009081526004602052604090205490565b61017861027a366004611796565b610ac7565b61017860008051602061194983398151915281565b61014f6102a23660046117b8565b610b21565b61014f6102b536600461180e565b610cd7565b61017860008051602061196983398151915281565b61014f6102dd3660046117b8565b610e42565b61014f6102f03660046117b8565b610fa7565b61032e6103033660046117b8565b6001600160a01b03919091166000908152600360209081526040808320938352929052205460ff1690565b6040519015158152602001610182565b61014f61034c3660046117b8565b61104f565b61014f61035f366004611796565b611239565b61014f6103723660046117e2565b61142f565b61038a6103853660046117b8565b6115d3565b604080519687526020870195909552938501929092526001600160a01b031660608401521515608083015260a082015260c001610182565b61032e6103d0366004611796565b6116f9565b6104156103e336600461180e565b60009081526005602052604090206003810154600182015460029092015460ff909116926001600160a01b0390921691565b6040805193151584526001600160a01b03909216602084015290820152606001610182565b336000908152600360209081526040808320600080516020611949833981519152845290915290205460ff16806104995750336000908152600360209081526040808320600080516020611969833981519152845290915290205460ff165b6104be5760405162461bcd60e51b81526004016104b590611827565b60405180910390fd5b6001600160a01b038116600090815260026020526040902054819060ff166104f85760405162461bcd60e51b81526004016104b59061186f565b6001600160a01b03821660009081526020819052604090206005810154600160a81b900460ff161561056c5760405162461bcd60e51b815260206004820152601e60248201527f444249533a206964656e7469747920616c7265616479207265766f6b6564000060448201526064016104b5565b6005810180544260048401819055600160a81b336001600160b01b0319909316831717909255825460405192835290916001600160a01b038616907ffe37eb48e14f1a640691ac8d63b8e6e38a92f2df64c1ce7e7d290d16e3f76cb4906020015b60405180910390a4505050565b33600090815260036020908152604080832060008051602061194983398151915280855292529091205460ff166106235760405162461bcd60e51b81526004016104b5906118a6565b6000805160206119498339815191528214801561067157507f00000000000000000000000000000000000000000000000000000000000000006001600160a01b0316836001600160a01b0316145b156106d95760405162461bcd60e51b815260206004820152603260248201527f444249533a2063616e6e6f74207265766f6b652061646d696e20726f6c6520666044820152713937b69037b934b3b4b730b61030b236b4b760711b60648201526084016104b5565b6001600160a01b0383166000818152600360209081526040808320868452909152808220805460ff19169055513392859290917f8fa769283732af9aa4f65d966aceb1295944e96fcdd7031699b47da23286d2859190a4505050565b6001600160a01b03811660009081526002602052604081205481908190819081908190879060ff166107795760405162461bcd60e51b81526004016104b59061186f565b505050506001600160a01b0393909316600090815260208190526040902080546001820154600283015460058401546004909401549297919650945060ff600160a01b840481169450600160a81b90930490921691565b3360009081526002602052604090205460ff16156108475760405162461bcd60e51b815260206004820152602e60248201527f444249533a206964656e7469747920616c72656164792065786973747320666f60448201526d722074686973206164647265737360901b60648201526084016104b5565b6000838152600160205260409020546001600160a01b0316156108ac5760405162461bcd60e51b815260206004820152601a60248201527f444249533a2075736572496420616c72656164792074616b656e00000000000060448201526064016104b5565b3360008181526020818152604080832087815560018082018890556002808301889055426003808501829055600485018290556005850180546001600160b01b03191661ffff60a01b198b16179055918652848720805460ff1990811685179091558b885283875285882080546001600160a01b0319168a1790558888529186528487207f2db9fd3d099848027c2383d0a083396f6c41510d7acfd92adc99b6cffcf31e968852865295849020805490911690911790558151878152928301939093529192869290917f4fbc9185c3ef8a4baed290c2388409b2540d06266f68880f74a2263a03ae2511910160405180910390a360405133907f2db9fd3d099848027c2383d0a083396f6c41510d7acfd92adc99b6cffcf31e969082907f2739f947da5133134a8e9c6a84d5ed6da396844d81b4a760121c8b9c668bdf9c90600090a450505050565b6000818152600160205260408120548190819081908190819087906001600160a01b031680610a665760405162461bcd60e51b815260206004820152601b60248201527f444249533a2075736572496420646f6573206e6f74206578697374000000000060448201526064016104b5565b50505060009586525050600160208181526040808720546001600160a01b03168088529187905290952090810154600282015460058301546004909301549697919690955060ff600160a01b840481169550600160a81b9093049092169250565b6001600160a01b038116600090815260026020526040812054829060ff16610b015760405162461bcd60e51b81526004016104b59061186f565b50506001600160a01b031660009081526020819052604090206001015490565b336000908152600360209081526040808320600080516020611949833981519152845290915290205460ff1680610b805750336000908152600360209081526040808320600080516020611969833981519152845290915290205460ff165b610b9c5760405162461bcd60e51b81526004016104b590611827565b6001600160a01b038216600090815260026020526040902054829060ff16610bd65760405162461bcd60e51b81526004016104b59061186f565b6001600160a01b03831660009081526020819052604090206005810154600160a81b900460ff1615610c1a5760405162461bcd60e51b81526004016104b5906118ee565b6002810183905542600482018190556005820180546001600160a01b03191633179055815460405190916001600160a01b038716917f20b42ac31f28150d919b1ef6acf649afa37bddcf6849a68ad69303ad26e16d9191610c8691889190918252602082015260400190565b60405180910390a380546040514281523391906001600160a01b038716907fd6834370a20d49b5dd17db7d3adfb8691e17cb15134a9e1241c0c54587a83e389060200160405180910390a450505050565b336000908152600360209081526040808320600080516020611949833981519152845290915290205460ff1680610d365750336000908152600360209081526040808320600080516020611969833981519152845290915290205460ff165b610d525760405162461bcd60e51b81526004016104b590611827565b60008181526005602052604090206003015460ff1615610dbe5760405162461bcd60e51b815260206004820152602160248201527f444249533a20646f63756d656e7420616c7265616479207265676973746572656044820152601960fa1b60648201526084016104b5565b60008181526005602052604090819020828155600180820180546001600160a01b03191633908117909155426002840181905560038401805460ff1916909317909255925191929184917f6569e54c43a697fc61e67763858d5abef16899d2b13215c7c07090aa878b24a891610e3691815260200190565b60405180910390a35050565b336000908152600360209081526040808320600080516020611949833981519152845290915290205460ff1680610ea15750336000908152600360209081526040808320600080516020611969833981519152845290915290205460ff165b610ebd5760405162461bcd60e51b81526004016104b590611827565b6001600160a01b038216600090815260026020526040902054829060ff16610ef75760405162461bcd60e51b81526004016104b59061186f565b6001600160a01b03831660009081526020819052604090206005810154600160a81b900460ff1615610f3b5760405162461bcd60e51b81526004016104b5906118ee565b6001810183905542600482018190556005820180546001600160a01b03191633179055815460405190916001600160a01b038716917f821247c4ba3f1d1df82f34e743b010cb6d0ea980df3861f3c8d0c296405a9f3891610c8691889190918252602082015260400190565b33600090815260036020908152604080832060008051602061194983398151915280855292529091205460ff16610ff05760405162461bcd60e51b81526004016104b5906118a6565b6001600160a01b0383166000818152600360209081526040808320868452909152808220805460ff19166001179055513392859290917f2739f947da5133134a8e9c6a84d5ed6da396844d81b4a760121c8b9c668bdf9c9190a4505050565b33600090815260036020908152604080832060008051602061196983398151915280855292529091205460ff166110985760405162461bcd60e51b81526004016104b5906118a6565b6001600160a01b038316600090815260026020526040902054839060ff166110d25760405162461bcd60e51b81526004016104b59061186f565b6001600160a01b03841660009081526004602052604090205483106111395760405162461bcd60e51b815260206004820152601b60248201527f444249533a207265636f726420646f6573206e6f74206578697374000000000060448201526064016104b5565b6001600160a01b038416600090815260046020526040812080548590811061116357611163611932565b906000526020600020906005020190508060030160149054906101000a900460ff16156111d25760405162461bcd60e51b815260206004820152601d60248201527f444249533a207265636f726420616c726561647920766572696669656400000060448201526064016104b5565b6003810180546001600160a81b03191633908117600160a01b17909155604080518681524260208201526001600160a01b038816917fd8834d67aec3b146bb27dfad80040e86365c1bd9a455fcf900236a83ed5fe4ec910160405180910390a35050505050565b336000908152600360209081526040808320600080516020611949833981519152845290915290205460ff16806112985750336000908152600360209081526040808320600080516020611969833981519152845290915290205460ff165b6112b45760405162461bcd60e51b81526004016104b590611827565b6001600160a01b038116600090815260026020526040902054819060ff166112ee5760405162461bcd60e51b81526004016104b59061186f565b6001600160a01b03821660009081526020819052604090206005810154600160a01b900460ff16156113625760405162461bcd60e51b815260206004820152601f60248201527f444249533a206964656e7469747920616c72656164792076657269666965640060448201526064016104b5565b6005810154600160a81b900460ff16156113ca5760405162461bcd60e51b8152602060048201526024808201527f444249533a2063616e6e6f7420766572696679207265766f6b6564206964656e6044820152637469747960e01b60648201526084016104b5565b6005810180544260048401819055600160a01b336001600160a81b0319909316831717909255825460405192835290916001600160a01b038616907f120496c78192308aaef67d8588700531449c23f7d0c09c0e60449574db26cf8a906020016105cd565b3360008181526002602052604090205460ff1661145e5760405162461bcd60e51b81526004016104b59061186f565b3360009081526020819052604090206005810154600160a81b900460ff16156114de5760405162461bcd60e51b815260206004820152602c60248201527f444249533a2063616e6e6f7420616464207265636f726420666f72207265766f60448201526b6b6564206964656e7469747960a01b60648201526084016104b5565b6040805160c08101825286815260208082018781528284018781526000606080860182815260808088018481524260a08a01818152338088526004808c528d8920805460018082018355918b52998d90208e516005909b0201998a559a519a89019a909a5597516002880155935160038701805493511515600160a01b026001600160a81b03199094166001600160a01b0390921691909117929092179091559151939095019290925586518c81529485018b90528487018a905284015293519293927fa914f815f5f0d576b15c09ee186f3f0c57e55d528370056d7edd8b81eafb85f29281900390910190a2505050505050565b6001600160a01b03821660009081526002602052604081205481908190819081908190889060ff166116175760405162461bcd60e51b81526004016104b59061186f565b6001600160a01b038916600090815260046020526040902054881061167e5760405162461bcd60e51b815260206004820152601b60248201527f444249533a207265636f726420646f6573206e6f74206578697374000000000060448201526064016104b5565b6001600160a01b038916600090815260046020526040812080548a9081106116a8576116a8611932565b600091825260209091206005909102018054600182015460028301546003840154600490940154929e919d509b506001600160a01b0383169a50600160a01b90920460ff1698509650945050505050565b6001600160a01b038116600090815260026020526040812054829060ff166117335760405162461bcd60e51b81526004016104b59061186f565b6001600160a01b03831660009081526020819052604090206005810154600160a01b900460ff16801561177257506005810154600160a81b900460ff16155b949350505050565b80356001600160a01b038116811461179157600080fd5b919050565b6000602082840312156117a857600080fd5b6117b18261177a565b9392505050565b600080604083850312156117cb57600080fd5b6117d48361177a565b946020939093013593505050565b6000806000606084860312156117f757600080fd5b505081359360208301359350604090920135919050565b60006020828403121561182057600080fd5b5035919050565b60208082526028908201527f444249533a2063616c6c6572206d7573742062652061646d696e206f7220676f6040820152671d995c9b9b595b9d60c21b606082015260800190565b6020808252601d908201527f444249533a206964656e7469747920646f6573206e6f74206578697374000000604082015260600190565b60208082526028908201527f444249533a2063616c6c657220646f6573206e6f74206861766520726571756960408201526772656420726f6c6560c01b606082015260800190565b60208082526024908201527f444249533a2063616e6e6f7420757064617465207265766f6b6564206964656e6040820152637469747960e01b606082015260800190565b634e487b7160e01b600052603260045260246000fdfedf8b4c520ffe197c5343c6f5aec59570151ef9a492f2c624fd45ddde6135ec42c7a6bfa28ee24953425efb0bb89772445020cd5ae1af751673fd61a47416f017a2646970667358221220ef9147a2692f9b9e045c43732fb9ef653983bb8319866fc1fe62e8f113d49acb64736f6c63430008110033",
  "linkReferences": {},
  "deployedLinkReferences": {}
}