{"blockchain/contracts/BiometricIdentitySystem.sol":{"BiometricIdentitySystem":{"abi":[{"inputs":[],"stateMutability":"nonpayable","type":"constructor"},{"anonymous":false,"inputs":[{"indexed":true,"internalType":"address","name":"userAddress","type":"address"},{"indexed":true,"internalType":"bytes32","name":"userId","type":"bytes32"},{"indexed":false,"internalType":"bytes32","name":"newBiometricHash","type":"bytes32"},{"indexed":false,"internalType":"uint256","name":"timestamp","type":"uint256"}],"name":"BiometricHashUpdated","type":"event"},{"anonymous":false,"inputs":[{"indexed":true,"internalType":"address","name":"userAddress","type":"address"},{"indexed":true,"internalType":"bytes32","name":"userId","type":"bytes32"},{"indexed":false,"internalType":"bytes32","name":"newCredentialsHash","type":"bytes32"},{"indexed":false,"internalType":"uint256","name":"timestamp","type":"uint256"}],"name":"CredentialsHashUpdated","type":"event"},{"anonymous":false,"inputs":[{"indexed":true,"internalType":"address","name":"account","type":"address"},{"indexed":true,"internalType":"bytes32","name":"role","type":"bytes32"},{"indexed":true,"internalType":"address","name":"grantor","type":"address"}],"name":"RoleGranted","type":"event"},{"anonymous":false,"inputs":[{"indexed":true,"internalType":"address","name":"account","type":"address"},{"indexed":true,"internalType":"bytes32","name":"role","type":"bytes32"},{"indexed":true,"internalType":"address","name":"revoker","type":"address"}],"name":"RoleRevoked","type":"event"},{"anonymous":false,"inputs":[{"indexed":true,"internalType":"address","name":"userAddress","type":"address"},{"indexed":true,"internalType":"bytes32","name":"userId","type":"bytes32"},{"indexed":false,"internalType":"bytes32","name":"biometricHash","type":"bytes32"},{"indexed":false,"internalType":"uint256","name":"timestamp","type":"uint256"}],"name":"UserRegistered","type":"event"},{"anonymous":false,"inputs":[{"indexed":true,"internalType":"address","name":"userAddress","type":"address"},{"indexed":true,"internalType":"bytes32","name":"userId","type":"bytes32"},{"indexed":true,"internalType":"address","name":"revoker","type":"address"},{"indexed":false,"internalType":"uint256","name":"timestamp","type":"uint256"}],"name":"UserRevoked","type":"event"},{"anonymous":false,"inputs":[{"indexed":true,"internalType":"address","name":"userAddress","type":"address"},{"indexed":true,"internalType":"bytes32","name":"userId","type":"bytes32"},{"indexed":true,"internalType":"address","name":"updater","type":"address"},{"indexed":false,"internalType":"uint256","name":"timestamp","type":"uint256"}],"name":"UserUpdated","type":"event"},{"anonymous":false,"inputs":[{"indexed":true,"internalType":"address","name":"userAddress","type":"address"},{"indexed":true,"internalType":"bytes32","name":"userId","type":"bytes32"},{"indexed":true,"internalType":"address","name":"verifier","type":"address"},{"indexed":false,"internalType":"uint256","name":"timestamp","type":"uint256"}],"name":"UserVerified","type":"event"},{"inputs":[],"name":"ADMIN_ROLE","outputs":[{"internalType":"bytes32","name":"","type":"bytes32"}],"stateMutability":"view","type":"function"},{"inputs":[],"name":"GOVERNMENT_ROLE","outputs":[{"internalType":"bytes32","name":"","type":"bytes32"}],"stateMutability":"view","type":"function"},{"inputs":[],"name":"USER_ROLE","outputs":[{"internalType":"bytes32","name":"","type":"bytes32"}],"stateMutability":"view","type":"function"},{"inputs":[{"internalType":"bytes32","name":"userId","type":"bytes32"}],"name":"getAddressByUserId","outputs":[{"internalType":"address","name":"","type":"address"}],"stateMutability":"view","type":"function"},{"inputs":[{"internalType":"address","name":"userAddress","type":"address"}],"name":"getIdentity","outputs":[{"internalType":"bytes32","name":"userId","type":"bytes32"},{"internalType":"bytes32","name":"biometricHash","type":"bytes32"},{"internalType":"bytes32","name":"credentialsHash","type":"bytes32"},{"internalType":"bool","name":"isVerified","type":"bool"},{"internalType":"bool","name":"isRevoked","type":"bool"},{"internalType":"uint256","name":"lastUpdated","type":"uint256"}],"stateMutability":"view","type":"function"},{"inputs":[{"internalType":"bytes32","name":"userId","type":"bytes32"}],"name":"getIdentityByUserId","outputs":[{"internalType":"address","name":"userAddress","type":"address"},{"internalType":"bytes32","name":"biometricHash","type":"bytes32"},{"internalType":"bytes32","name":"credentialsHash","type":"bytes32"},{"internalType":"bool","name":"isVerified","type":"bool"},{"internalType":"bool","name":"isRevoked","type":"bool"},{"internalType":"uint256","name":"lastUpdated","type":"uint256"}],"stateMutability":"view","type":"function"},{"inputs":[{"internalType":"address","name":"account","type":"address"},{"internalType":"bytes32","name":"role","type":"bytes32"}],"name":"grantRole","outputs":[],"stateMutability":"nonpayable","type":"function"},{"inputs":[{"internalType":"address","name":"account","type":"address"},{"internalType":"bytes32","name":"role","type":"bytes32"}],"name":"hasRole","outputs":[{"internalType":"bool","name":"","type":"bool"}],"stateMutability":"view","type":"function"},{"inputs":[{"internalType":"address","name":"userAddress","type":"address"}],"name":"identityExistsForAddress","outputs":[{"internalType":"bool","name":"","type":"bool"}],"stateMutability":"view","type":"function"},{"inputs":[{"internalType":"address","name":"userAddress","type":"address"}],"name":"isIdentityVerified","outputs":[{"internalType":"bool","name":"","type":"bool"}],"stateMutability":"view","type":"function"},{"inputs":[{"internalType":"bytes32","name":"userId","type":"bytes32"},{"internalType":"bytes32","name":"biometricHash","type":"bytes32"},{"internalType":"bytes32","name":"credentialsHash","type":"bytes32"}],"name":"registerIdentity","outputs":[],"stateMutability":"nonpayable","type":"function"},{"inputs":[{"internalType":"address","name":"userAddress","type":"address"}],"name":"revokeIdentity","outputs":[],"stateMutability":"nonpayable","type":"function"},{"inputs":[{"internalType":"address","name":"account","type":"address"},{"internalType":"bytes32","name":"role","type":"bytes32"}],"name":"revokeRole","outputs":[],"stateMutability":"nonpayable","type":"function"},{"inputs":[{"internalType":"address","name":"userAddress","type":"address"},{"internalType":"bytes32","name":"newBiometricHash","type":"bytes32"}],"name":"updateBiometricHash","outputs":[],"stateMutability":"nonpayable","type":"function"},{"inputs":[{"internalType":"address","name":"userAddress","type":"address"},{"internalType":"bytes32","name":"newCredentialsHash","type":"bytes32"}],"name":"updateCredentialsHash","outputs":[],"stateMutability":"nonpayable","type":"function"},{"inputs":[{"internalType":"bytes32","name":"userId","type":"bytes32"}],"name":"userIdIsRegistered","outputs":[{"internalType":"bool","name":"","type":"bool"}],"stateMutability":"view","type":"function"},{"inputs":[{"internalType":"address","name":"userAddress","type":"address"},{"internalType":"bytes32","name":"documentHash","type":"bytes32"}],"name":"verifyDocument","outputs":[{"internalType":"bool","name":"","type":"bool"}],"stateMutability":"view","type":"function"},{"inputs":[{"internalType":"address","name":"userAddress","type":"address"}],"name":"verifyIdentity","outputs":[],"stateMutability":"nonpayable","type":"function"}],"evm":{"bytecode":{"linkReferences":{},"object":"60a060405234801561001057600080fd5b5033608081905260008181526003602090815260408083207fdf8b4c520ffe197c5343c6f5aec59570151ef9a492f2c624fd45ddde6135ec428085529252808320805460ff1916600117905551909183917f2739f947da5133134a8e9c6a84d5ed6da396844d81b4a760121c8b9c668bdf9c9190a46080516114156100a060003960006105aa01526114156000f3fe608060405234801561001057600080fd5b50600436106101165760003560e01c806382872fd8116100a2578063ab2742dc11610071578063ab2742dc14610302578063ac4ab3fb14610315578063b5b90fd91461034e578063dbc4f91114610361578063f63ac7621461038c57600080fd5b806382872fd81461029b5780639cbed582146102c75780639f0662b7146102dc578063a166c556146102ef57600080fd5b80632fea7b81116100e95780632fea7b81146101be57806336cf2ca0146102025780635ddf26ae1461021557806373fea5031461026357806375b238fc1461028657600080fd5b80630ebddd171461011b5780631311916114610130578063140632131461016a578063208dd1ff146101ab575b600080fd5b61012e6101293660046111a0565b61039f565b005b6101577f2db9fd3d099848027c2383d0a083396f6c41510d7acfd92adc99b6cffcf31e9681565b6040519081526020015b60405180910390f35b6101936101783660046111bb565b6000908152600160205260409020546001600160a01b031690565b6040516001600160a01b039091168152602001610161565b61012e6101b93660046111d4565b610547565b6101d16101cc3660046111a0565b6106bb565b60408051968752602087019590955293850192909252151560608401521515608083015260a082015260c001610161565b61012e6102103660046111fe565b610756565b6102286102233660046111bb565b610998565b604080516001600160a01b039097168752602087019590955293850192909252151560608401521515608083015260a082015260c001610161565b6102766102713660046111d4565b610a81565b6040519015158152602001610161565b61015760008051602061138083398151915281565b6102766102a93660046111a0565b6001600160a01b031660009081526002602052604090205460ff1690565b6101576000805160206113c083398151915281565b61012e6102ea3660046111d4565b610b12565b61012e6102fd3660046111d4565b610cc8565b61012e6103103660046111d4565b610e2d565b6102766103233660046111d4565b6001600160a01b03919091166000908152600360209081526040808320938352929052205460ff1690565b61012e61035c3660046111a0565b610ed5565b61027661036f3660046111bb565b6000908152600160205260409020546001600160a01b0316151590565b61027661039a3660046111a0565b6110ee565b336000908152600360209081526040808320600080516020611380833981519152845290915290205460ff16806103fe57503360009081526003602090815260408083206000805160206113c0833981519152845290915290205460ff165b6104235760405162461bcd60e51b815260040161041a9061122a565b60405180910390fd5b6001600160a01b038116600090815260026020526040902054819060ff1661045d5760405162461bcd60e51b815260040161041a90611287565b6001600160a01b03821660009081526020819052604090206005810154600160a81b900460ff16156104d95760405162461bcd60e51b815260206004820152603160248201526000805160206113a08339815191526044820152701e48185b1c9958591e481c995d9bdad959607a1b606482015260840161041a565b6005810180544260048401819055600160a81b336001600160b01b0319909316831717909255825460405192835290916001600160a01b038616907ffe37eb48e14f1a640691ac8d63b8e6e38a92f2df64c1ce7e7d290d16e3f76cb4906020015b60405180910390a4505050565b33600090815260036020908152604080832060008051602061138083398151915280855292529091205460ff166105905760405162461bcd60e51b815260040161041a906112c5565b600080516020611380833981519152821480156105de57507f00000000000000000000000000000000000000000000000000000000000000006001600160a01b0316836001600160a01b0316145b1561065f5760405162461bcd60e51b815260206004820152604560248201527f42696f6d65747269634964656e7469747953797374656d3a2063616e6e6f742060448201527f7265766f6b652061646d696e20726f6c652066726f6d206f726967696e616c2060648201526430b236b4b760d91b608482015260a40161041a565b6001600160a01b0383166000818152600360209081526040808320868452909152808220805460ff19169055513392859290917f8fa769283732af9aa4f65d966aceb1295944e96fcdd7031699b47da23286d2859190a4505050565b6001600160a01b03811660009081526002602052604081205481908190819081908190879060ff166106ff5760405162461bcd60e51b815260040161041a90611287565b505050506001600160a01b0393909316600090815260208190526040902080546001820154600283015460058401546004909401549297919650945060ff600160a01b840481169450600160a81b90930490921691565b3360009081526002602052604090205460ff16156107d45760405162461bcd60e51b815260206004820152604160248201526000805160206113a083398151915260448201527f7920616c72656164792065786973747320666f722074686973206164647265736064820152607360f81b608482015260a40161041a565b6000838152600160205260409020546001600160a01b03161561084f5760405162461bcd60e51b815260206004820152602d60248201527f42696f6d65747269634964656e7469747953797374656d3a207573657249642060448201526c30b63932b0b23c903a30b5b2b760991b606482015260840161041a565b3360008181526020818152604080832087815560018082018890556002808301889055426003808501829055600485018290556005850180546001600160b01b03191661ffff60a01b198b16179055918652848720805460ff1990811685179091558b885283875285882080546001600160a01b0319168a1790558888529186528487207f2db9fd3d099848027c2383d0a083396f6c41510d7acfd92adc99b6cffcf31e968852865295849020805490911690911790558151878152928301939093529192869290917f4fbc9185c3ef8a4baed290c2388409b2540d06266f68880f74a2263a03ae2511910160405180910390a360405133907f2db9fd3d099848027c2383d0a083396f6c41510d7acfd92adc99b6cffcf31e969082907f2739f947da5133134a8e9c6a84d5ed6da396844d81b4a760121c8b9c668bdf9c90600090a450505050565b6000818152600160205260408120548190819081908190819087906001600160a01b031680610a205760405162461bcd60e51b815260206004820152602e60248201527f42696f6d65747269634964656e7469747953797374656d3a207573657249642060448201526d191bd95cc81b9bdd08195e1a5cdd60921b606482015260840161041a565b50505060009586525050600160208181526040808720546001600160a01b03168088529187905290952090810154600282015460058301546004909301549697919690955060ff600160a01b840481169550600160a81b9093049092169250565b6001600160a01b038216600090815260026020526040812054839060ff16610abb5760405162461bcd60e51b815260040161041a90611287565b6001600160a01b03841660009081526020819052604090206005810154600160a01b900460ff168015610afa57506005810154600160a81b900460ff16155b8015610b095750838160020154145b95945050505050565b336000908152600360209081526040808320600080516020611380833981519152845290915290205460ff1680610b7157503360009081526003602090815260408083206000805160206113c0833981519152845290915290205460ff165b610b8d5760405162461bcd60e51b815260040161041a9061122a565b6001600160a01b038216600090815260026020526040902054829060ff16610bc75760405162461bcd60e51b815260040161041a90611287565b6001600160a01b03831660009081526020819052604090206005810154600160a81b900460ff1615610c0b5760405162461bcd60e51b815260040161041a90611322565b6002810183905542600482018190556005820180546001600160a01b03191633179055815460405190916001600160a01b038716917fadc575d4ac5e0c7de14c33d58c60a6605590c1cd7fc235888e3636c26f61b45f91610c7791889190918252602082015260400190565b60405180910390a380546040514281523391906001600160a01b038716907fd6834370a20d49b5dd17db7d3adfb8691e17cb15134a9e1241c0c54587a83e389060200160405180910390a450505050565b336000908152600360209081526040808320600080516020611380833981519152845290915290205460ff1680610d2757503360009081526003602090815260408083206000805160206113c0833981519152845290915290205460ff165b610d435760405162461bcd60e51b815260040161041a9061122a565b6001600160a01b038216600090815260026020526040902054829060ff16610d7d5760405162461bcd60e51b815260040161041a90611287565b6001600160a01b03831660009081526020819052604090206005810154600160a81b900460ff1615610dc15760405162461bcd60e51b815260040161041a90611322565b6001810183905542600482018190556005820180546001600160a01b03191633179055815460405190916001600160a01b038716917f821247c4ba3f1d1df82f34e743b010cb6d0ea980df3861f3c8d0c296405a9f3891610c7791889190918252602082015260400190565b33600090815260036020908152604080832060008051602061138083398151915280855292529091205460ff16610e765760405162461bcd60e51b815260040161041a906112c5565b6001600160a01b0383166000818152600360209081526040808320868452909152808220805460ff19166001179055513392859290917f2739f947da5133134a8e9c6a84d5ed6da396844d81b4a760121c8b9c668bdf9c9190a4505050565b336000908152600360209081526040808320600080516020611380833981519152845290915290205460ff1680610f3457503360009081526003602090815260408083206000805160206113c0833981519152845290915290205460ff165b610f505760405162461bcd60e51b815260040161041a9061122a565b6001600160a01b038116600090815260026020526040902054819060ff16610f8a5760405162461bcd60e51b815260040161041a90611287565b6001600160a01b03821660009081526020819052604090206005810154600160a01b900460ff16156110075760405162461bcd60e51b815260206004820152603260248201526000805160206113a08339815191526044820152711e48185b1c9958591e481d995c9a599a595960721b606482015260840161041a565b6005810154600160a81b900460ff16156110895760405162461bcd60e51b815260206004820152603760248201527f42696f6d65747269634964656e7469747953797374656d3a2063616e6e6f742060448201527f766572696679207265766f6b6564206964656e74697479000000000000000000606482015260840161041a565b6005810180544260048401819055600160a01b336001600160a81b0319909316831717909255825460405192835290916001600160a01b038616907f120496c78192308aaef67d8588700531449c23f7d0c09c0e60449574db26cf8a9060200161053a565b6001600160a01b038116600090815260026020526040812054829060ff166111285760405162461bcd60e51b815260040161041a90611287565b6001600160a01b038316600090815260208190526040902060050154600160a01b900460ff16801561117d57506001600160a01b038316600090815260208190526040902060050154600160a81b900460ff16155b9392505050565b80356001600160a01b038116811461119b57600080fd5b919050565b6000602082840312156111b257600080fd5b61117d82611184565b6000602082840312156111cd57600080fd5b5035919050565b600080604083850312156111e757600080fd5b6111f083611184565b946020939093013593505050565b60008060006060848603121561121357600080fd5b505081359360208301359350604090920135919050565b6020808252603b908201527f42696f6d65747269634964656e7469747953797374656d3a2063616c6c65722060408201527f6d7573742062652061646d696e206f7220676f7665726e6d656e740000000000606082015260800190565b60208082526030908201526000805160206113a083398151915260408201526f1e48191bd95cc81b9bdd08195e1a5cdd60821b606082015260800190565b6020808252603b908201527f42696f6d65747269634964656e7469747953797374656d3a2063616c6c65722060408201527f646f6573206e6f74206861766520726571756972656420726f6c650000000000606082015260800190565b60208082526037908201527f42696f6d65747269634964656e7469747953797374656d3a2063616e6e6f742060408201527f757064617465207265766f6b6564206964656e7469747900000000000000000060608201526080019056fedf8b4c520ffe197c5343c6f5aec59570151ef9a492f2c624fd45ddde6135ec4242696f6d65747269634964656e7469747953797374656d3a206964656e746974c7a6bfa28ee24953425efb0bb89772445020cd5ae1af751673fd61a47416f017a26469706673582212206bc485084927e1bbf2241efbcd8b6ec78efa40e3c6fec9f92461b85e7e97af5c64736f6c63430008110033","opcodes":"PUSH1 0xA0 PUSH1 0x40 MSTORE CALLVALUE DUP1 ISZERO PUSH2 0x10 JUMPI PUSH1 0x0 DUP1 REVERT JUMPDEST POP CALLER PUSH1 0x80 DUP2 SWAP1 MSTORE PUSH1 0x0 DUP2 DUP2 MSTORE PUSH1 0x3 PUSH1 0x20 SWAP1 DUP2 MSTORE PUSH1 0x40 DUP1 DUP4 KECCAK256 PUSH32 0xDF8B4C520FFE197C5343C6F5AEC59570151EF9A492F2C624FD45DDDE6135EC42 DUP1 DUP6 MSTORE SWAP3 MSTORE DUP1 DUP4 KECCAK256 DUP1 SLOAD PUSH1 0xFF NOT AND PUSH1 0x1 OR SWAP1 SSTORE MLOAD SWAP1 SWAP2 DUP4 SWAP2 PUSH32 0x2739F947DA5133134A8E9C6A84D5ED6DA396844D81B4A760121C8B9C668BDF9C SWAP2 SWAP1 LOG4 PUSH1 0x80 MLOAD PUSH2 0x1415 PUSH2 0xA0 PUSH1 0x0 CODECOPY PUSH1 0x0 PUSH2 0x5AA ADD MSTORE PUSH2 0x1415 PUSH1 0x0 RETURN INVALID PUSH1 0x80 PUSH1 0x40 MSTORE CALLVALUE DUP1 ISZERO PUSH2 0x10 JUMPI PUSH1 0x0 DUP1 REVERT JUMPDEST POP PUSH1 0x4 CALLDATASIZE LT PUSH2 0x116 JUMPI PUSH1 0x0 CALLDATALOAD PUSH1 0xE0 SHR DUP1 PUSH4 0x82872FD8 GT PUSH2 0xA2 JUMPI DUP1 PUSH4 0xAB2742DC GT PUSH2 0x71 JUMPI DUP1 PUSH4 0xAB2742DC EQ PUSH2 0x302 JUMPI DUP1 PUSH4 0xAC4AB3FB EQ PUSH2 0x315 JUMPI DUP1 PUSH4 0xB5B90FD9 EQ PUSH2 0x34E JUMPI DUP1 PUSH4 0xDBC4F911 EQ PUSH2 0x361 JUMPI DUP1 PUSH4 0xF63AC762 EQ PUSH2 0x38C JUMPI PUSH1 0x0 DUP1 REVERT JUMPDEST DUP1 PUSH4 0x82872FD8 EQ PUSH2 0x29B JUMPI DUP1 PUSH4 0x9CBED582 EQ PUSH2 0x2C7 JUMPI DUP1 PUSH4 0x9F0662B7 EQ PUSH2 0x2DC JUMPI DUP1 PUSH4 0xA166C556 EQ PUSH2 0x2EF JUMPI PUSH1 0x0 DUP1 REVERT JUMPDEST DUP1 PUSH4 0x2FEA7B81 GT PUSH2 0xE9 JUMPI DUP1 PUSH4 0x2FEA7B81 EQ PUSH2 0x1BE JUMPI DUP1 PUSH4 0x36CF2CA0 EQ PUSH2 0x202 JUMPI DUP1 PUSH4 0x5DDF26AE EQ PUSH2 0x215 JUMPI DUP1 PUSH4 0x73FEA503 EQ PUSH2 0x263 JUMPI DUP1 PUSH4 0x75B238FC EQ PUSH2 0x286 JUMPI PUSH1 0x0 DUP1 REVERT JUMPDEST DUP1 PUSH4 0xEBDDD17 EQ PUSH2 0x11B JUMPI DUP1 PUSH4 0x13119161 EQ PUSH2 0x130 JUMPI DUP1 PUSH4 0x14063213 EQ PUSH2 0x16A JUMPI DUP1 PUSH4 0x208DD1FF EQ PUSH2 0x1AB JUMPI JUMPDEST PUSH1 0x0 DUP1 REVERT JUMPDEST PUSH2 0x12E PUSH2 0x129 CALLDATASIZE PUSH1 0x4 PUSH2 0x11A0 JUMP JUMPDEST PUSH2 0x39F JUMP JUMPDEST STOP JUMPDEST PUSH2 0x157 PUSH32 0x2DB9FD3D099848027C2383D0A083396F6C41510D7ACFD92ADC99B6CFFCF31E96 DUP2 JUMP JUMPDEST PUSH1 0x40 MLOAD SWAP1 DUP2 MSTORE PUSH1 0x20 ADD JUMPDEST PUSH1 0x40 MLOAD DUP1 SWAP2 SUB SWAP1 RETURN JUMPDEST PUSH2 0x193 PUSH2 0x178 CALLDATASIZE PUSH1 0x4 PUSH2 0x11BB JUMP JUMPDEST PUSH1 0x0 SWAP1 DUP2 MSTORE PUSH1 0x1 PUSH1 0x20 MSTORE PUSH1 0x40 SWAP1 KECCAK256 SLOAD PUSH1 0x1 PUSH1 0x1 PUSH1 0xA0 SHL SUB AND SWAP1 JUMP JUMPDEST PUSH1 0x40 MLOAD PUSH1 0x1 PUSH1 0x1 PUSH1 0xA0 SHL SUB SWAP1 SWAP2 AND DUP2 MSTORE PUSH1 0x20 ADD PUSH2 0x161 JUMP JUMPDEST PUSH2 0x12E PUSH2 0x1B9 CALLDATASIZE PUSH1 0x4 PUSH2 0x11D4 JUMP JUMPDEST PUSH2 0x547 JUMP JUMPDEST PUSH2 0x1D1 PUSH2 0x1CC CALLDATASIZE PUSH1 0x4 PUSH2 0x11A0 JUMP JUMPDEST PUSH2 0x6BB JUMP JUMPDEST PUSH1 0x40 DUP1 MLOAD SWAP7 DUP8 MSTORE PUSH1 0x20 DUP8 ADD SWAP6 SWAP1 SWAP6 MSTORE SWAP4 DUP6 ADD SWAP3 SWAP1 SWAP3 MSTORE ISZERO ISZERO PUSH1 0x60 DUP5 ADD MSTORE ISZERO ISZERO PUSH1 0x80 DUP4 ADD MSTORE PUSH1 0xA0 DUP3 ADD MSTORE PUSH1 0xC0 ADD PUSH2 0x161 JUMP JUMPDEST PUSH2 0x12E PUSH2 0x210 CALLDATASIZE PUSH1 0x4 PUSH2 0x11FE JUMP JUMPDEST PUSH2 0x756 JUMP JUMPDEST PUSH2 0x228 PUSH2 0x223 CALLDATASIZE PUSH1 0x4 PUSH2 0x11BB JUMP JUMPDEST PUSH2 0x998 JUMP JUMPDEST PUSH1 0x40 DUP1 MLOAD PUSH1 0x1 PUSH1 0x1 PUSH1 0xA0 SHL SUB SWAP1 SWAP8 AND DUP8 MSTORE PUSH1 0x20 DUP8 ADD SWAP6 SWAP1 SWAP6 MSTORE SWAP4 DUP6 ADD SWAP3 SWAP1 SWAP3 MSTORE ISZERO ISZERO PUSH1 0x60 DUP5 ADD MSTORE ISZERO ISZERO PUSH1 0x80 DUP4 ADD MSTORE PUSH1 0xA0 DUP3 ADD MSTORE PUSH1 0xC0 ADD PUSH2 0x161 JUMP JUMPDEST PUSH2 0x276 PUSH2 0x271 CALLDATASIZE PUSH1 0x4 PUSH2 0x11D4 JUMP JUMPDEST PUSH2 0xA81 JUMP JUMPDEST PUSH1 0x40 MLOAD SWAP1 ISZERO ISZERO DUP2 MSTORE PUSH1 0x20 ADD PUSH2 0x161 JUMP JUMPDEST PUSH2 0x157 PUSH1 0x0 DUP1 MLOAD PUSH1 0x20 PUSH2 0x1380 DUP4 CODECOPY DUP2 MLOAD SWAP2 MSTORE DUP2 JUMP JUMPDEST PUSH2 0x276 PUSH2 0x2A9 CALLDATASIZE PUSH1 0x4 PUSH2 0x11A0 JUMP JUMPDEST PUSH1 0x1 PUSH1 0x1 PUSH1 0xA0 SHL SUB AND PUSH1 0x0 SWAP1 DUP2 MSTORE PUSH1 0x2 PUSH1 0x20 MSTORE PUSH1 0x40 SWAP1 KECCAK256 SLOAD PUSH1 0xFF AND SWAP1 JUMP JUMPDEST PUSH2 0x157 PUSH1 0x0 DUP1 MLOAD PUSH1 0x20 PUSH2 0x13C0 DUP4 CODECOPY DUP2 MLOAD SWAP2 MSTORE DUP2 JUMP JUMPDEST PUSH2 0x12E PUSH2 0x2EA CALLDATASIZE PUSH1 0x4 PUSH2 0x11D4 JUMP JUMPDEST PUSH2 0xB12 JUMP JUMPDEST PUSH2 0x12E PUSH2 0x2FD CALLDATASIZE PUSH1 0x4 PUSH2 0x11D4 JUMP JUMPDEST PUSH2 0xCC8 JUMP JUMPDEST PUSH2 0x12E PUSH2 0x310 CALLDATASIZE PUSH1 0x4 PUSH2 0x11D4 JUMP JUMPDEST PUSH2 0xE2D JUMP JUMPDEST PUSH2 0x276 PUSH2 0x323 CALLDATASIZE PUSH1 0x4 PUSH2 0x11D4 JUMP JUMPDEST PUSH1 0x1 PUSH1 0x1 PUSH1 0xA0 SHL SUB SWAP2 SWAP1 SWAP2 AND PUSH1 0x0 SWAP1 DUP2 MSTORE PUSH1 0x3 PUSH1 0x20 SWAP1 DUP2 MSTORE PUSH1 0x40 DUP1 DUP4 KECCAK256 SWAP4 DUP4 MSTORE SWAP3 SWAP1 MSTORE KECCAK256 SLOAD PUSH1 0xFF AND SWAP1 JUMP JUMPDEST PUSH2 0x12E PUSH2 0x35C CALLDATASIZE PUSH1 0x4 PUSH2 0x11A0 JUMP JUMPDEST PUSH2 0xED5 JUMP JUMPDEST PUSH2 0x276 PUSH2 0x36F CALLDATASIZE PUSH1 0x4 PUSH2 0x11BB JUMP JUMPDEST PUSH1 0x0 SWAP1 DUP2 MSTORE PUSH1 0x1 PUSH1 0x20 MSTORE PUSH1 0x40 SWAP1 KECCAK256 SLOAD PUSH1 0x1 PUSH1 0x1 PUSH1 0xA0 SHL SUB AND ISZERO ISZERO SWAP1 JUMP JUMPDEST PUSH2 0x276 PUSH2 0x39A CALLDATASIZE PUSH1 0x4 PUSH2 0x11A0 JUMP JUMPDEST PUSH2 0x10EE JUMP JUMPDEST CALLER PUSH1 0x0 SWAP1 DUP2 MSTORE PUSH1 0x3 PUSH1 0x20 SWAP1 DUP2 MSTORE PUSH1 0x40 DUP1 DUP4 KECCAK256 PUSH1 0x0 DUP1 MLOAD PUSH1 0x20 PUSH2 0x1380 DUP4 CODECOPY DUP2 MLOAD SWAP2 MSTORE DUP5 MSTORE SWAP1 SWAP2 MSTORE SWAP1 KECCAK256 SLOAD PUSH1 0xFF AND DUP1 PUSH2 0x3FE JUMPI POP CALLER PUSH1 0x0 SWAP1 DUP2 MSTORE PUSH1 0x3 PUSH1 0x20 SWAP1 DUP2 MSTORE PUSH1 0x40 DUP1 DUP4 KECCAK256 PUSH1 0x0 DUP1 MLOAD PUSH1 0x20 PUSH2 0x13C0 DUP4 CODECOPY DUP2 MLOAD SWAP2 MSTORE DUP5 MSTORE SWAP1 SWAP2 MSTORE SWAP1 KECCAK256 SLOAD PUSH1 0xFF AND JUMPDEST PUSH2 0x423 JUMPI PUSH1 0x40 MLOAD PUSH3 0x461BCD PUSH1 0xE5 SHL DUP2 MSTORE PUSH1 0x4 ADD PUSH2 0x41A SWAP1 PUSH2 0x122A JUMP JUMPDEST PUSH1 0x40 MLOAD DUP1 SWAP2 SUB SWAP1 REVERT JUMPDEST PUSH1 0x1 PUSH1 0x1 PUSH1 0xA0 SHL SUB DUP2 AND PUSH1 0x0 SWAP1 DUP2 MSTORE PUSH1 0x2 PUSH1 0x20 MSTORE PUSH1 0x40 SWAP1 KECCAK256 SLOAD DUP2 SWAP1 PUSH1 0xFF AND PUSH2 0x45D JUMPI PUSH1 0x40 MLOAD PUSH3 0x461BCD PUSH1 0xE5 SHL DUP2 MSTORE PUSH1 0x4 ADD PUSH2 0x41A SWAP1 PUSH2 0x1287 JUMP JUMPDEST PUSH1 0x1 PUSH1 0x1 PUSH1 0xA0 SHL SUB DUP3 AND PUSH1 0x0 SWAP1 DUP2 MSTORE PUSH1 0x20 DUP2 SWAP1 MSTORE PUSH1 0x40 SWAP1 KECCAK256 PUSH1 0x5 DUP2 ADD SLOAD PUSH1 0x1 PUSH1 0xA8 SHL SWAP1 DIV PUSH1 0xFF AND ISZERO PUSH2 0x4D9 JUMPI PUSH1 0x40 MLOAD PUSH3 0x461BCD PUSH1 0xE5 SHL DUP2 MSTORE PUSH1 0x20 PUSH1 0x4 DUP3 ADD MSTORE PUSH1 0x31 PUSH1 0x24 DUP3 ADD MSTORE PUSH1 0x0 DUP1 MLOAD PUSH1 0x20 PUSH2 0x13A0 DUP4 CODECOPY DUP2 MLOAD SWAP2 MSTORE PUSH1 0x44 DUP3 ADD MSTORE PUSH17 0x1E48185B1C9958591E481C995D9BDAD959 PUSH1 0x7A SHL PUSH1 0x64 DUP3 ADD MSTORE PUSH1 0x84 ADD PUSH2 0x41A JUMP JUMPDEST PUSH1 0x5 DUP2 ADD DUP1 SLOAD TIMESTAMP PUSH1 0x4 DUP5 ADD DUP2 SWAP1 SSTORE PUSH1 0x1 PUSH1 0xA8 SHL CALLER PUSH1 0x1 PUSH1 0x1 PUSH1 0xB0 SHL SUB NOT SWAP1 SWAP4 AND DUP4 OR OR SWAP1 SWAP3 SSTORE DUP3 SLOAD PUSH1 0x40 MLOAD SWAP3 DUP4 MSTORE SWAP1 SWAP2 PUSH1 0x1 PUSH1 0x1 PUSH1 0xA0 SHL SUB DUP7 AND SWAP1 PUSH32 0xFE37EB48E14F1A640691AC8D63B8E6E38A92F2DF64C1CE7E7D290D16E3F76CB4 SWAP1 PUSH1 0x20 ADD JUMPDEST PUSH1 0x40 MLOAD DUP1 SWAP2 SUB SWAP1 LOG4 POP POP POP JUMP JUMPDEST CALLER PUSH1 0x0 SWAP1 DUP2 MSTORE PUSH1 0x3 PUSH1 0x20 SWAP1 DUP2 MSTORE PUSH1 0x40 DUP1 DUP4 KECCAK256 PUSH1 0x0 DUP1 MLOAD PUSH1 0x20 PUSH2 0x1380 DUP4 CODECOPY DUP2 MLOAD SWAP2 MSTORE DUP1 DUP6 MSTORE SWAP3 MSTORE SWAP1 SWAP2 KECCAK256 SLOAD PUSH1 0xFF AND PUSH2 0x590 JUMPI PUSH1 0x40 MLOAD PUSH3 0x461BCD PUSH1 0xE5 SHL DUP2 MSTORE PUSH1 0x4 ADD PUSH2 0x41A SWAP1 PUSH2 0x12C5 JUMP JUMPDEST PUSH1 0x0 DUP1 MLOAD PUSH1 0x20 PUSH2 0x1380 DUP4 CODECOPY DUP2 MLOAD SWAP2 MSTORE DUP3 EQ DUP1 ISZERO PUSH2 0x5DE JUMPI POP PUSH32 0x0 PUSH1 0x1 PUSH1 0x1 PUSH1 0xA0 SHL SUB AND DUP4 PUSH1 0x1 PUSH1 0x1 PUSH1 0xA0 SHL SUB AND EQ JUMPDEST ISZERO PUSH2 0x65F JUMPI PUSH1 0x40 MLOAD PUSH3 0x461BCD PUSH1 0xE5 SHL DUP2 MSTORE PUSH1 0x20 PUSH1 0x4 DUP3 ADD MSTORE PUSH1 0x45 PUSH1 0x24 DUP3 ADD MSTORE PUSH32 0x42696F6D65747269634964656E7469747953797374656D3A2063616E6E6F7420 PUSH1 0x44 DUP3 ADD MSTORE PUSH32 0x7265766F6B652061646D696E20726F6C652066726F6D206F726967696E616C20 PUSH1 0x64 DUP3 ADD MSTORE PUSH5 0x30B236B4B7 PUSH1 0xD9 SHL PUSH1 0x84 DUP3 ADD MSTORE PUSH1 0xA4 ADD PUSH2 0x41A JUMP JUMPDEST PUSH1 0x1 PUSH1 0x1 PUSH1 0xA0 SHL SUB DUP4 AND PUSH1 0x0 DUP2 DUP2 MSTORE PUSH1 0x3 PUSH1 0x20 SWAP1 DUP2 MSTORE PUSH1 0x40 DUP1 DUP4 KECCAK256 DUP7 DUP5 MSTORE SWAP1 SWAP2 MSTORE DUP1 DUP3 KECCAK256 DUP1 SLOAD PUSH1 0xFF NOT AND SWAP1 SSTORE MLOAD CALLER SWAP3 DUP6 SWAP3 SWAP1 SWAP2 PUSH32 0x8FA769283732AF9AA4F65D966ACEB1295944E96FCDD7031699B47DA23286D285 SWAP2 SWAP1 LOG4 POP POP POP JUMP JUMPDEST PUSH1 0x1 PUSH1 0x1 PUSH1 0xA0 SHL SUB DUP2 AND PUSH1 0x0 SWAP1 DUP2 MSTORE PUSH1 0x2 PUSH1 0x20 MSTORE PUSH1 0x40 DUP2 KECCAK256 SLOAD DUP2 SWAP1 DUP2 SWAP1 DUP2 SWAP1 DUP2 SWAP1 DUP2 SWAP1 DUP8 SWAP1 PUSH1 0xFF AND PUSH2 0x6FF JUMPI PUSH1 0x40 MLOAD PUSH3 0x461BCD PUSH1 0xE5 SHL DUP2 MSTORE PUSH1 0x4 ADD PUSH2 0x41A SWAP1 PUSH2 0x1287 JUMP JUMPDEST POP POP POP POP PUSH1 0x1 PUSH1 0x1 PUSH1 0xA0 SHL SUB SWAP4 SWAP1 SWAP4 AND PUSH1 0x0 SWAP1 DUP2 MSTORE PUSH1 0x20 DUP2 SWAP1 MSTORE PUSH1 0x40 SWAP1 KECCAK256 DUP1 SLOAD PUSH1 0x1 DUP3 ADD SLOAD PUSH1 0x2 DUP4 ADD SLOAD PUSH1 0x5 DUP5 ADD SLOAD PUSH1 0x4 SWAP1 SWAP5 ADD SLOAD SWAP3 SWAP8 SWAP2 SWAP7 POP SWAP5 POP PUSH1 0xFF PUSH1 0x1 PUSH1 0xA0 SHL DUP5 DIV DUP2 AND SWAP5 POP PUSH1 0x1 PUSH1 0xA8 SHL SWAP1 SWAP4 DIV SWAP1 SWAP3 AND SWAP2 JUMP JUMPDEST CALLER PUSH1 0x0 SWAP1 DUP2 MSTORE PUSH1 0x2 PUSH1 0x20 MSTORE PUSH1 0x40 SWAP1 KECCAK256 SLOAD PUSH1 0xFF AND ISZERO PUSH2 0x7D4 JUMPI PUSH1 0x40 MLOAD PUSH3 0x461BCD PUSH1 0xE5 SHL DUP2 MSTORE PUSH1 0x20 PUSH1 0x4 DUP3 ADD MSTORE PUSH1 0x41 PUSH1 0x24 DUP3 ADD MSTORE PUSH1 0x0 DUP1 MLOAD PUSH1 0x20 PUSH2 0x13A0 DUP4 CODECOPY DUP2 MLOAD SWAP2 MSTORE PUSH1 0x44 DUP3 ADD MSTORE PUSH32 0x7920616C72656164792065786973747320666F72207468697320616464726573 PUSH1 0x64 DUP3 ADD MSTORE PUSH1 0x73 PUSH1 0xF8 SHL PUSH1 0x84 DUP3 ADD MSTORE PUSH1 0xA4 ADD PUSH2 0x41A JUMP JUMPDEST PUSH1 0x0 DUP4 DUP2 MSTORE PUSH1 0x1 PUSH1 0x20 MSTORE PUSH1 0x40 SWAP1 KECCAK256 SLOAD PUSH1 0x1 PUSH1 0x1 PUSH1 0xA0 SHL SUB AND ISZERO PUSH2 0x84F JUMPI PUSH1 0x40 MLOAD PUSH3 0x461BCD PUSH1 0xE5 SHL DUP2 MSTORE PUSH1 0x20 PUSH1 0x4 DUP3 ADD MSTORE PUSH1 0x2D PUSH1 0x24 DUP3 ADD MSTORE PUSH32 0x42696F6D65747269634964656E7469747953797374656D3A2075736572496420 PUSH1 0x44 DUP3 ADD MSTORE PUSH13 0x30B63932B0B23C903A30B5B2B7 PUSH1 0x99 SHL PUSH1 0x64 DUP3 ADD MSTORE PUSH1 0x84 ADD PUSH2 0x41A JUMP JUMPDEST CALLER PUSH1 0x0 DUP2 DUP2 MSTORE PUSH1 0x20 DUP2 DUP2 MSTORE PUSH1 0x40 DUP1 DUP4 KECCAK256 DUP8 DUP2 SSTORE PUSH1 0x1 DUP1 DUP3 ADD DUP9 SWAP1 SSTORE PUSH1 0x2 DUP1 DUP4 ADD DUP9 SWAP1 SSTORE TIMESTAMP PUSH1 0x3 DUP1 DUP6 ADD DUP3 SWAP1 SSTORE PUSH1 0x4 DUP6 ADD DUP3 SWAP1 SSTORE PUSH1 0x5 DUP6 ADD DUP1 SLOAD PUSH1 0x1 PUSH1 0x1 PUSH1 0xB0 SHL SUB NOT AND PUSH2 0xFFFF PUSH1 0xA0 SHL NOT DUP12 AND OR SWAP1 SSTORE SWAP2 DUP7 MSTORE DUP5 DUP8 KECCAK256 DUP1 SLOAD PUSH1 0xFF NOT SWAP1 DUP2 AND DUP6 OR SWAP1 SWAP2 SSTORE DUP12 DUP9 MSTORE DUP4 DUP8 MSTORE DUP6 DUP9 KECCAK256 DUP1 SLOAD PUSH1 0x1 PUSH1 0x1 PUSH1 0xA0 SHL SUB NOT AND DUP11 OR SWAP1 SSTORE DUP9 DUP9 MSTORE SWAP2 DUP7 MSTORE DUP5 DUP8 KECCAK256 PUSH32 0x2DB9FD3D099848027C2383D0A083396F6C41510D7ACFD92ADC99B6CFFCF31E96 DUP9 MSTORE DUP7 MSTORE SWAP6 DUP5 SWAP1 KECCAK256 DUP1 SLOAD SWAP1 SWAP2 AND SWAP1 SWAP2 OR SWAP1 SSTORE DUP2 MLOAD DUP8 DUP2 MSTORE SWAP3 DUP4 ADD SWAP4 SWAP1 SWAP4 MSTORE SWAP2 SWAP3 DUP7 SWAP3 SWAP1 SWAP2 PUSH32 0x4FBC9185C3EF8A4BAED290C2388409B2540D06266F68880F74A2263A03AE2511 SWAP2 ADD PUSH1 0x40 MLOAD DUP1 SWAP2 SUB SWAP1 LOG3 PUSH1 0x40 MLOAD CALLER SWAP1 PUSH32 0x2DB9FD3D099848027C2383D0A083396F6C41510D7ACFD92ADC99B6CFFCF31E96 SWAP1 DUP3 SWAP1 PUSH32 0x2739F947DA5133134A8E9C6A84D5ED6DA396844D81B4A760121C8B9C668BDF9C SWAP1 PUSH1 0x0 SWAP1 LOG4 POP POP POP POP JUMP JUMPDEST PUSH1 0x0 DUP2 DUP2 MSTORE PUSH1 0x1 PUSH1 0x20 MSTORE PUSH1 0x40 DUP2 KECCAK256 SLOAD DUP2 SWAP1 DUP2 SWAP1 DUP2 SWAP1 DUP2 SWAP1 DUP2 SWAP1 DUP8 SWAP1 PUSH1 0x1 PUSH1 0x1 PUSH1 0xA0 SHL SUB AND DUP1 PUSH2 0xA20 JUMPI PUSH1 0x40 MLOAD PUSH3 0x461BCD PUSH1 0xE5 SHL DUP2 MSTORE PUSH1 0x20 PUSH1 0x4 DUP3 ADD MSTORE PUSH1 0x2E PUSH1 0x24 DUP3 ADD MSTORE PUSH32 0x42696F6D65747269634964656E7469747953797374656D3A2075736572496420 PUSH1 0x44 DUP3 ADD MSTORE PUSH14 0x191BD95CC81B9BDD08195E1A5CDD PUSH1 0x92 SHL PUSH1 0x64 DUP3 ADD MSTORE PUSH1 0x84 ADD PUSH2 0x41A JUMP JUMPDEST POP POP POP PUSH1 0x0 SWAP6 DUP7 MSTORE POP POP PUSH1 0x1 PUSH1 0x20 DUP2 DUP2 MSTORE PUSH1 0x40 DUP1 DUP8 KECCAK256 SLOAD PUSH1 0x1 PUSH1 0x1 PUSH1 0xA0 SHL SUB AND DUP1 DUP9 MSTORE SWAP2 DUP8 SWAP1 MSTORE SWAP1 SWAP6 KECCAK256 SWAP1 DUP2 ADD SLOAD PUSH1 0x2 DUP3 ADD SLOAD PUSH1 0x5 DUP4 ADD SLOAD PUSH1 0x4 SWAP1 SWAP4 ADD SLOAD SWAP7 SWAP8 SWAP2 SWAP7 SWAP1 SWAP6 POP PUSH1 0xFF PUSH1 0x1 PUSH1 0xA0 SHL DUP5 DIV DUP2 AND SWAP6 POP PUSH1 0x1 PUSH1 0xA8 SHL SWAP1 SWAP4 DIV SWAP1 SWAP3 AND SWAP3 POP JUMP JUMPDEST PUSH1 0x1 PUSH1 0x1 PUSH1 0xA0 SHL SUB DUP3 AND PUSH1 0x0 SWAP1 DUP2 MSTORE PUSH1 0x2 PUSH1 0x20 MSTORE PUSH1 0x40 DUP2 KECCAK256 SLOAD DUP4 SWAP1 PUSH1 0xFF AND PUSH2 0xABB JUMPI PUSH1 0x40 MLOAD PUSH3 0x461BCD PUSH1 0xE5 SHL DUP2 MSTORE PUSH1 0x4 ADD PUSH2 0x41A SWAP1 PUSH2 0x1287 JUMP JUMPDEST PUSH1 0x1 PUSH1 0x1 PUSH1 0xA0 SHL SUB DUP5 AND PUSH1 0x0 SWAP1 DUP2 MSTORE PUSH1 0x20 DUP2 SWAP1 MSTORE PUSH1 0x40 SWAP1 KECCAK256 PUSH1 0x5 DUP2 ADD SLOAD PUSH1 0x1 PUSH1 0xA0 SHL SWAP1 DIV PUSH1 0xFF AND DUP1 ISZERO PUSH2 0xAFA JUMPI POP PUSH1 0x5 DUP2 ADD SLOAD PUSH1 0x1 PUSH1 0xA8 SHL SWAP1 DIV PUSH1 0xFF AND ISZERO JUMPDEST DUP1 ISZERO PUSH2 0xB09 JUMPI POP DUP4 DUP2 PUSH1 0x2 ADD SLOAD EQ JUMPDEST SWAP6 SWAP5 POP POP POP POP POP JUMP JUMPDEST CALLER PUSH1 0x0 SWAP1 DUP2 MSTORE PUSH1 0x3 PUSH1 0x20 SWAP1 DUP2 MSTORE PUSH1 0x40 DUP1 DUP4 KECCAK256 PUSH1 0x0 DUP1 MLOAD PUSH1 0x20 PUSH2 0x1380 DUP4 CODECOPY DUP2 MLOAD SWAP2 MSTORE DUP5 MSTORE SWAP1 SWAP2 MSTORE SWAP1 KECCAK256 SLOAD PUSH1 0xFF AND DUP1 PUSH2 0xB71 JUMPI POP CALLER PUSH1 0x0 SWAP1 DUP2 MSTORE PUSH1 0x3 PUSH1 0x20 SWAP1 DUP2 MSTORE PUSH1 0x40 DUP1 DUP4 KECCAK256 PUSH1 0x0 DUP1 MLOAD PUSH1 0x20 PUSH2 0x13C0 DUP4 CODECOPY DUP2 MLOAD SWAP2 MSTORE DUP5 MSTORE SWAP1 SWAP2 MSTORE SWAP1 KECCAK256 SLOAD PUSH1 0xFF AND JUMPDEST PUSH2 0xB8D JUMPI PUSH1 0x40 MLOAD PUSH3 0x461BCD PUSH1 0xE5 SHL DUP2 MSTORE PUSH1 0x4 ADD PUSH2 0x41A SWAP1 PUSH2 0x122A JUMP JUMPDEST PUSH1 0x1 PUSH1 0x1 PUSH1 0xA0 SHL SUB DUP3 AND PUSH1 0x0 SWAP1 DUP2 MSTORE PUSH1 0x2 PUSH1 0x20 MSTORE PUSH1 0x40 SWAP1 KECCAK256 SLOAD DUP3 SWAP1 PUSH1 0xFF AND PUSH2 0xBC7 JUMPI PUSH1 0x40 MLOAD PUSH3 0x461BCD PUSH1 0xE5 SHL DUP2 MSTORE PUSH1 0x4 ADD PUSH2 0x41A SWAP1 PUSH2 0x1287 JUMP JUMPDEST PUSH1 0x1 PUSH1 0x1 PUSH1 0xA0 SHL SUB DUP4 AND PUSH1 0x0 SWAP1 DUP2 MSTORE PUSH1 0x20 DUP2 SWAP1 MSTORE PUSH1 0x40 SWAP1 KECCAK256 PUSH1 0x5 DUP2 ADD SLOAD PUSH1 0x1 PUSH1 0xA8 SHL SWAP1 DIV PUSH1 0xFF AND ISZERO PUSH2 0xC0B JUMPI PUSH1 0x40 MLOAD PUSH3 0x461BCD PUSH1 0xE5 SHL DUP2 MSTORE PUSH1 0x4 ADD PUSH2 0x41A SWAP1 PUSH2 0x1322 JUMP JUMPDEST PUSH1 0x2 DUP2 ADD DUP4 SWAP1 SSTORE TIMESTAMP PUSH1 0x4 DUP3 ADD DUP2 SWAP1 SSTORE PUSH1 0x5 DUP3 ADD DUP1 SLOAD PUSH1 0x1 PUSH1 0x1 PUSH1 0xA0 SHL SUB NOT AND CALLER OR SWAP1 SSTORE DUP2 SLOAD PUSH1 0x40 MLOAD SWAP1 SWAP2 PUSH1 0x1 PUSH1 0x1 PUSH1 0xA0 SHL SUB DUP8 AND SWAP2 PUSH32 0xADC575D4AC5E0C7DE14C33D58C60A6605590C1CD7FC235888E3636C26F61B45F SWAP2 PUSH2 0xC77 SWAP2 DUP9 SWAP2 SWAP1 SWAP2 DUP3 MSTORE PUSH1 0x20 DUP3 ADD MSTORE PUSH1 0x40 ADD SWAP1 JUMP JUMPDEST PUSH1 0x40 MLOAD DUP1 SWAP2 SUB SWAP1 LOG3 DUP1 SLOAD PUSH1 0x40 MLOAD TIMESTAMP DUP2 MSTORE CALLER SWAP2 SWAP1 PUSH1 0x1 PUSH1 0x1 PUSH1 0xA0 SHL SUB DUP8 AND SWAP1 PUSH32 0xD6834370A20D49B5DD17DB7D3ADFB8691E17CB15134A9E1241C0C54587A83E38 SWAP1 PUSH1 0x20 ADD PUSH1 0x40 MLOAD DUP1 SWAP2 SUB SWAP1 LOG4 POP POP POP POP JUMP JUMPDEST CALLER PUSH1 0x0 SWAP1 DUP2 MSTORE PUSH1 0x3 PUSH1 0x20 SWAP1 DUP2 MSTORE PUSH1 0x40 DUP1 DUP4 KECCAK256 PUSH1 0x0 DUP1 MLOAD PUSH1 0x20 PUSH2 0x1380 DUP4 CODECOPY DUP2 MLOAD SWAP2 MSTORE DUP5 MSTORE SWAP1 SWAP2 MSTORE SWAP1 KECCAK256 SLOAD PUSH1 0xFF AND DUP1 PUSH2 0xD27 JUMPI POP CALLER PUSH1 0x0 SWAP1 DUP2 MSTORE PUSH1 0x3 PUSH1 0x20 SWAP1 DUP2 MSTORE PUSH1 0x40 DUP1 DUP4 KECCAK256 PUSH1 0x0 DUP1 MLOAD PUSH1 0x20 PUSH2 0x13C0 DUP4 CODECOPY DUP2 MLOAD SWAP2 MSTORE DUP5 MSTORE SWAP1 SWAP2 MSTORE SWAP1 KECCAK256 SLOAD PUSH1 0xFF AND JUMPDEST PUSH2 0xD43 JUMPI PUSH1 0x40 MLOAD PUSH3 0x461BCD PUSH1 0xE5 SHL DUP2 MSTORE PUSH1 0x4 ADD PUSH2 0x41A SWAP1 PUSH2 0x122A JUMP JUMPDEST PUSH1 0x1 PUSH1 0x1 PUSH1 0xA0 SHL SUB DUP3 AND PUSH1 0x0 SWAP1 DUP2 MSTORE PUSH1 0x2 PUSH1 0x20 MSTORE PUSH1 0x40 SWAP1 KECCAK256 SLOAD DUP3 SWAP1 PUSH1 0xFF AND PUSH2 0xD7D JUMPI PUSH1 0x40 MLOAD PUSH3 0x461BCD PUSH1 0xE5 SHL DUP2 MSTORE PUSH1 0x4 ADD PUSH2 0x41A SWAP1 PUSH2 0x1287 JUMP JUMPDEST PUSH1 0x1 PUSH1 0x1 PUSH1 0xA0 SHL SUB DUP4 AND PUSH1 0x0 SWAP1 DUP2 MSTORE PUSH1 0x20 DUP2 SWAP1 MSTORE PUSH1 0x40 SWAP1 KECCAK256 PUSH1 0x5 DUP2 ADD SLOAD PUSH1 0x1 PUSH1 0xA8 SHL SWAP1 DIV PUSH1 0xFF AND ISZERO PUSH2 0xDC1 JUMPI PUSH1 0x40 MLOAD PUSH3 0x461BCD PUSH1 0xE5 SHL DUP2 MSTORE PUSH1 0x4 ADD PUSH2 0x41A SWAP1 PUSH2 0x1322 JUMP JUMPDEST PUSH1 0x1 DUP2 ADD DUP4 SWAP1 SSTORE TIMESTAMP PUSH1 0x4 DUP3 ADD DUP2 SWAP1 SSTORE PUSH1 0x5 DUP3 ADD DUP1 SLOAD PUSH1 0x1 PUSH1 0x1 PUSH1 0xA0 SHL SUB NOT AND CALLER OR SWAP1 SSTORE DUP2 SLOAD PUSH1 0x40 MLOAD SWAP1 SWAP2 PUSH1 0x1 PUSH1 0x1 PUSH1 0xA0 SHL SUB DUP8 AND SWAP2 PUSH32 0x821247C4BA3F1D1DF82F34E743B010CB6D0EA980DF3861F3C8D0C296405A9F38 SWAP2 PUSH2 0xC77 SWAP2 DUP9 SWAP2 SWAP1 SWAP2 DUP3 MSTORE PUSH1 0x20 DUP3 ADD MSTORE PUSH1 0x40 ADD SWAP1 JUMP JUMPDEST CALLER PUSH1 0x0 SWAP1 DUP2 MSTORE PUSH1 0x3 PUSH1 0x20 SWAP1 DUP2 MSTORE PUSH1 0x40 DUP1 DUP4 KECCAK256 PUSH1 0x0 DUP1 MLOAD PUSH1 0x20 PUSH2 0x1380 DUP4 CODECOPY DUP2 MLOAD SWAP2 MSTORE DUP1 DUP6 MSTORE SWAP3 MSTORE SWAP1 SWAP2 KECCAK256 SLOAD PUSH1 0xFF AND PUSH2 0xE76 JUMPI PUSH1 0x40 MLOAD PUSH3 0x461BCD PUSH1 0xE5 SHL DUP2 MSTORE PUSH1 0x4 ADD PUSH2 0x41A SWAP1 PUSH2 0x12C5 JUMP JUMPDEST PUSH1 0x1 PUSH1 0x1 PUSH1 0xA0 SHL SUB DUP4 AND PUSH1 0x0 DUP2 DUP2 MSTORE PUSH1 0x3 PUSH1 0x20 SWAP1 DUP2 MSTORE PUSH1 0x40 DUP1 DUP4 KECCAK256 DUP7 DUP5 MSTORE SWAP1 SWAP2 MSTORE DUP1 DUP3 KECCAK256 DUP1 SLOAD PUSH1 0xFF NOT AND PUSH1 0x1 OR SWAP1 SSTORE MLOAD CALLER SWAP3 DUP6 SWAP3 SWAP1 SWAP2 PUSH32 0x2739F947DA5133134A8E9C6A84D5ED6DA396844D81B4A760121C8B9C668BDF9C SWAP2 SWAP1 LOG4 POP POP POP JUMP JUMPDEST CALLER PUSH1 0x0 SWAP1 DUP2 MSTORE PUSH1 0x3 PUSH1 0x20 SWAP1 DUP2 MSTORE PUSH1 0x40 DUP1 DUP4 KECCAK256 PUSH1 0x0 DUP1 MLOAD PUSH1 0x20 PUSH2 0x1380 DUP4 CODECOPY DUP2 MLOAD SWAP2 MSTORE DUP5 MSTORE SWAP1 SWAP2 MSTORE SWAP1 KECCAK256 SLOAD PUSH1 0xFF AND DUP1 PUSH2 0xF34 JUMPI POP CALLER PUSH1 0x0 SWAP1 DUP2 MSTORE PUSH1 0x3 PUSH1 0x20 SWAP1 DUP2 MSTORE PUSH1 0x40 DUP1 DUP4 KECCAK256 PUSH1 0x0 DUP1 MLOAD PUSH1 0x20 PUSH2 0x13C0 DUP4 CODECOPY DUP2 MLOAD SWAP2 MSTORE DUP5 MSTORE SWAP1 SWAP2 MSTORE SWAP1 KECCAK256 SLOAD PUSH1 0xFF AND JUMPDEST PUSH2 0xF50 JUMPI PUSH1 0x40 MLOAD PUSH3 0x461BCD PUSH1 0xE5 SHL DUP2 MSTORE PUSH1 0x4 ADD PUSH2 0x41A SWAP1 PUSH2 0x122A JUMP JUMPDEST PUSH1 0x1 PUSH1 0x1 PUSH1 0xA0 SHL SUB DUP2 AND PUSH1 0x0 SWAP1 DUP2 MSTORE PUSH1 0x2 PUSH1 0x20 MSTORE PUSH1 0x40 SWAP1 KECCAK256 SLOAD DUP2 SWAP1 PUSH1 0xFF AND PUSH2 0xF8A JUMPI PUSH1 0x40 MLOAD PUSH3 0x461BCD PUSH1 0xE5 SHL DUP2 MSTORE PUSH1 0x4 ADD PUSH2 0x41A SWAP1 PUSH2 0x1287 JUMP JUMPDEST PUSH1 0x1 PUSH1 0x1 PUSH1 0xA0 SHL SUB DUP3 AND PUSH1 0x0 SWAP1 DUP2 MSTORE PUSH1 0x20 DUP2 SWAP1 MSTORE PUSH1 0x40 SWAP1 KECCAK256 PUSH1 0x5 DUP2 ADD SLOAD PUSH1 0x1 PUSH1 0xA0 SHL SWAP1 DIV PUSH1 0xFF AND ISZERO PUSH2 0x1007 JUMPI PUSH1 0x40 MLOAD PUSH3 0x461BCD PUSH1 0xE5 SHL DUP2 MSTORE PUSH1 0x20 PUSH1 0x4 DUP3 ADD MSTORE PUSH1 0x32 PUSH1 0x24 DUP3 ADD MSTORE PUSH1 0x0 DUP1 MLOAD PUSH1 0x20 PUSH2 0x13A0 DUP4 CODECOPY DUP2 MLOAD SWAP2 MSTORE PUSH1 0x44 DUP3 ADD MSTORE PUSH18 0x1E48185B1C9958591E481D995C9A599A5959 PUSH1 0x72 SHL PUSH1 0x64 DUP3 ADD MSTORE PUSH1 0x84 ADD PUSH2 0x41A JUMP JUMPDEST PUSH1 0x5 DUP2 ADD SLOAD PUSH1 0x1 PUSH1 0xA8 SHL SWAP1 DIV PUSH1 0xFF AND ISZERO PUSH2 0x1089 JUMPI PUSH1 0x40 MLOAD PUSH3 0x461BCD PUSH1 0xE5 SHL DUP2 MSTORE PUSH1 0x20 PUSH1 0x4 DUP3 ADD MSTORE PUSH1 0x37 PUSH1 0x24 DUP3 ADD MSTORE PUSH32 0x42696F6D65747269634964656E7469747953797374656D3A2063616E6E6F7420 PUSH1 0x44 DUP3 ADD MSTORE PUSH32 0x766572696679207265766F6B6564206964656E74697479000000000000000000 PUSH1 0x64 DUP3 ADD MSTORE PUSH1 0x84 ADD PUSH2 0x41A JUMP JUMPDEST PUSH1 0x5 DUP2 ADD DUP1 SLOAD TIMESTAMP PUSH1 0x4 DUP5 ADD DUP2 SWAP1 SSTORE PUSH1 0x1 PUSH1 0xA0 SHL CALLER PUSH1 0x1 PUSH1 0x1 PUSH1 0xA8 SHL SUB NOT SWAP1 SWAP4 AND DUP4 OR OR SWAP1 SWAP3 SSTORE DUP3 SLOAD PUSH1 0x40 MLOAD SWAP3 DUP4 MSTORE SWAP1 SWAP2 PUSH1 0x1 PUSH1 0x1 PUSH1 0xA0 SHL SUB DUP7 AND SWAP1 PUSH32 0x120496C78192308AAEF67D8588700531449C23F7D0C09C0E60449574DB26CF8A SWAP1 PUSH1 0x20 ADD PUSH2 0x53A JUMP JUMPDEST PUSH1 0x1 PUSH1 0x1 PUSH1 0xA0 SHL SUB DUP2 AND PUSH1 0x0 SWAP1 DUP2 MSTORE PUSH1 0x2 PUSH1 0x20 MSTORE PUSH1 0x40 DUP2 KECCAK256 SLOAD DUP3 SWAP1 PUSH1 0xFF AND PUSH2 0x1128 JUMPI PUSH1 0x40 MLOAD PUSH3 0x461BCD PUSH1 0xE5 SHL DUP2 MSTORE PUSH1 0x4 ADD PUSH2 0x41A SWAP1 PUSH2 0x1287 JUMP JUMPDEST PUSH1 0x1 PUSH1 0x1 PUSH1 0xA0 SHL SUB DUP4 AND PUSH1 0x0 SWAP1 DUP2 MSTORE PUSH1 0x20 DUP2 SWAP1 MSTORE PUSH1 0x40 SWAP1 KECCAK256 PUSH1 0x5 ADD SLOAD PUSH1 0x1 PUSH1 0xA0 SHL SWAP1 DIV PUSH1 0xFF AND DUP1 ISZERO PUSH2 0x117D JUMPI POP PUSH1 0x1 PUSH1 0x1 PUSH1 0xA0 SHL SUB DUP4 AND PUSH1 0x0 SWAP1 DUP2 MSTORE PUSH1 0x20 DUP2 SWAP1 MSTORE PUSH1 0x40 SWAP1 KECCAK256 PUSH1 0x5 ADD SLOAD PUSH1 0x1 PUSH1 0xA8 SHL SWAP1 DIV PUSH1 0xFF AND ISZERO JUMPDEST SWAP4 SWAP3 POP POP POP JUMP JUMPDEST DUP1 CALLDATALOAD PUSH1 0x1 PUSH1 0x1 PUSH1 0xA0 SHL SUB DUP2 AND DUP2 EQ PUSH2 0x119B JUMPI PUSH1 0x0 DUP1 REVERT JUMPDEST SWAP2 SWAP1 POP JUMP JUMPDEST PUSH1 0x0 PUSH1 0x20 DUP3 DUP5 SUB SLT ISZERO PUSH2 0x11B2 JUMPI PUSH1 0x0 DUP1 REVERT JUMPDEST PUSH2 0x117D DUP3 PUSH2 0x1184 JUMP JUMPDEST PUSH1 0x0 PUSH1 0x20 DUP3 DUP5 SUB SLT ISZERO PUSH2 0x11CD JUMPI PUSH1 0x0 DUP1 REVERT JUMPDEST POP CALLDATALOAD SWAP2 SWAP1 POP JUMP JUMPDEST PUSH1 0x0 DUP1 PUSH1 0x40 DUP4 DUP6 SUB SLT ISZERO PUSH2 0x11E7 JUMPI PUSH1 0x0 DUP1 REVERT JUMPDEST PUSH2 0x11F0 DUP4 PUSH2 0x1184 JUMP JUMPDEST SWAP5 PUSH1 0x20 SWAP4 SWAP1 SWAP4 ADD CALLDATALOAD SWAP4 POP POP POP JUMP JUMPDEST PUSH1 0x0 DUP1 PUSH1 0x0 PUSH1 0x60 DUP5 DUP7 SUB SLT ISZERO PUSH2 0x1213 JUMPI PUSH1 0x0 DUP1 REVERT JUMPDEST POP POP DUP2 CALLDATALOAD SWAP4 PUSH1 0x20 DUP4 ADD CALLDATALOAD SWAP4 POP PUSH1 0x40 SWAP1 SWAP3 ADD CALLDATALOAD SWAP2 SWAP1 POP JUMP JUMPDEST PUSH1 0x20 DUP1 DUP3 MSTORE PUSH1 0x3B SWAP1 DUP3 ADD MSTORE PUSH32 0x42696F6D65747269634964656E7469747953797374656D3A2063616C6C657220 PUSH1 0x40 DUP3 ADD MSTORE PUSH32 0x6D7573742062652061646D696E206F7220676F7665726E6D656E740000000000 PUSH1 0x60 DUP3 ADD MSTORE PUSH1 0x80 ADD SWAP1 JUMP JUMPDEST PUSH1 0x20 DUP1 DUP3 MSTORE PUSH1 0x30 SWAP1 DUP3 ADD MSTORE PUSH1 0x0 DUP1 MLOAD PUSH1 0x20 PUSH2 0x13A0 DUP4 CODECOPY DUP2 MLOAD SWAP2 MSTORE PUSH1 0x40 DUP3 ADD MSTORE PUSH16 0x1E48191BD95CC81B9BDD08195E1A5CDD PUSH1 0x82 SHL PUSH1 0x60 DUP3 ADD MSTORE PUSH1 0x80 ADD SWAP1 JUMP JUMPDEST PUSH1 0x20 DUP1 DUP3 MSTORE PUSH1 0x3B SWAP1 DUP3 ADD MSTORE PUSH32 0x42696F6D65747269634964656E7469747953797374656D3A2063616C6C657220 PUSH1 0x40 DUP3 ADD MSTORE PUSH32 0x646F6573206E6F74206861766520726571756972656420726F6C650000000000 PUSH1 0x60 DUP3 ADD MSTORE PUSH1 0x80 ADD SWAP1 JUMP JUMPDEST PUSH1 0x20 DUP1 DUP3 MSTORE PUSH1 0x37 SWAP1 DUP3 ADD MSTORE PUSH32 0x42696F6D65747269634964656E7469747953797374656D3A2063616E6E6F7420 PUSH1 0x40 DUP3 ADD MSTORE PUSH32 0x757064617465207265766F6B6564206964656E74697479000000000000000000 PUSH1 0x60 DUP3 ADD MSTORE PUSH1 0x80 ADD SWAP1 JUMP INVALID 0xDF DUP12 0x4C MSTORE 0xF INVALID NOT PUSH29 0x5343C6F5AEC59570151EF9A492F2C624FD45DDDE6135EC4242696F6D65 PUSH21 0x7269634964656E7469747953797374656D3A206964 PUSH6 0x6E746974C7A6 0xBF LOG2 DUP15 0xE2 0x49 MSTORE8 TIMESTAMP 0x5E 0xFB SIGNEXTEND 0xB8 SWAP8 PUSH19 0x445020CD5AE1AF751673FD61A47416F017A264 PUSH10 0x706673582212206BC485 ADDMOD 0x49 0x27 0xE1 0xBB CALLCODE 0x24 0x1E 0xFB 0xCD DUP12 PUSH15 0xC78EFA40E3C6FEC9F92461B85E7E97 0xAF 0x5C PUSH5 0x736F6C6343 STOP ADDMOD GT STOP CALLER "},"methodIdentifiers":{"ADMIN_ROLE()":"75b238fc","GOVERNMENT_ROLE()":"9cbed582","USER_ROLE()":"13119161","getAddressByUserId(bytes32)":"14063213","getIdentity(address)":"2fea7b81","getIdentityByUserId(bytes32)":"5ddf26ae","grantRole(address,bytes32)":"ab2742dc","hasRole(address,bytes32)":"ac4ab3fb","identityExistsForAddress(address)":"82872fd8","isIdentityVerified(address)":"f63ac762","registerIdentity(bytes32,bytes32,bytes32)":"36cf2ca0","revokeIdentity(address)":"0ebddd17","revokeRole(address,bytes32)":"208dd1ff","updateBiometricHash(address,bytes32)":"a166c556","updateCredentialsHash(address,bytes32)":"9f0662b7","userIdIsRegistered(bytes32)":"dbc4f911","verifyDocument(address,bytes32)":"73fea503","verifyIdentity(address)":"b5b90fd9"}}}}}