{"blockchain/contracts/DBISIdentityContract.sol":{"DBISIdentityContract":{"abi":[{"inputs":[],"stateMutability":"nonpayable","type":"constructor"},{"anonymous":false,"inputs":[{"indexed":true,"internalType":"address","name":"userAddress","type":"address"},{"indexed":true,"internalType":"bytes32","name":"userId","type":"bytes32"},{"indexed":false,"internalType":"bytes32","name":"newBiometricHash","type":"bytes32"},{"indexed":false,"internalType":"uint256","name":"timestamp","type":"uint256"}],"name":"BiometricHashUpdated","type":"event"},{"anonymous":false,"inputs":[{"indexed":true,"internalType":"bytes32","name":"documentHash","type":"bytes32"},{"indexed":true,"internalType":"address","name":"issuer","type":"address"},{"indexed":false,"internalType":"uint256","name":"timestamp","type":"uint256"}],"name":"DocumentRegistered","type":"event"},{"anonymous":false,"inputs":[{"indexed":true,"internalType":"address","name":"userAddress","type":"address"},{"indexed":true,"internalType":"bytes32","name":"userId","type":"bytes32"},{"indexed":false,"internalType":"bytes32","name":"newProfessionalDataHash","type":"bytes32"},{"indexed":false,"internalType":"uint256","name":"timestamp","type":"uint256"}],"name":"ProfessionalDataUpdated","type":"event"},{"anonymous":false,"inputs":[{"indexed":true,"internalType":"address","name":"userAddress","type":"address"},{"indexed":false,"internalType":"bytes32","name":"dataHash","type":"bytes32"},{"indexed":false,"internalType":"uint256","name":"startDate","type":"uint256"},{"indexed":false,"internalType":"uint256","name":"endDate","type":"uint256"},{"indexed":false,"internalType":"uint256","name":"timestamp","type":"uint256"}],"name":"ProfessionalRecordAdded","type":"event"},{"anonymous":false,"inputs":[{"indexed":true,"internalType":"address","name":"userAddress","type":"address"},{"indexed":false,"internalType":"uint256","name":"recordIndex","type":"uint256"},{"indexed":true,"internalType":"address","name":"verifier","type":"address"},{"indexed":false,"internalType":"uint256","name":"timestamp","type":"uint256"}],"name":"ProfessionalRecordVerified","type":"event"},{"anonymous":false,"inputs":[{"indexed":true,"internalType":"address","name":"account","type":"address"},{"indexed":true,"internalType":"bytes32","name":"role","type":"bytes32"},{"indexed":true,"internalType":"address","name":"grantor","type":"address"}],"name":"RoleGranted","type":"event"},{"anonymous":false,"inputs":[{"indexed":true,"internalType":"address","name":"account","type":"address"},{"indexed":true,"internalType":"bytes32","name":"role","type":"bytes32"},{"indexed":true,"internalType":"address","name":"revoker","type":"address"}],"name":"RoleRevoked","type":"event"},{"anonymous":false,"inputs":[{"indexed":true,"internalType":"address","name":"userAddress","type":"address"},{"indexed":true,"internalType":"bytes32","name":"userId","type":"bytes32"},{"indexed":false,"internalType":"bytes32","name":"biometricHash","type":"bytes32"},{"indexed":false,"internalType":"uint256","name":"timestamp","type":"uint256"}],"name":"UserRegistered","type":"event"},{"anonymous":false,"inputs":[{"indexed":true,"internalType":"address","name":"userAddress","type":"address"},{"indexed":true,"internalType":"bytes32","name":"userId","type":"bytes32"},{"indexed":true,"internalType":"address","name":"revoker","type":"address"},{"indexed":false,"internalType":"uint256","name":"timestamp","type":"uint256"}],"name":"UserRevoked","type":"event"},{"anonymous":false,"inputs":[{"indexed":true,"internalType":"address","name":"userAddress","type":"address"},{"indexed":true,"internalType":"bytes32","name":"userId","type":"bytes32"},{"indexed":true,"internalType":"address","name":"updater","type":"address"},{"indexed":false,"internalType":"uint256","name":"timestamp","type":"uint256"}],"name":"UserUpdated","type":"event"},{"anonymous":false,"inputs":[{"indexed":true,"internalType":"address","name":"userAddress","type":"address"},{"indexed":true,"internalType":"bytes32","name":"userId","type":"bytes32"},{"indexed":true,"internalType":"address","name":"verifier","type":"address"},{"indexed":false,"internalType":"uint256","name":"timestamp","type":"uint256"}],"name":"UserVerified","type":"event"},{"inputs":[],"name":"ADMIN_ROLE","outputs":[{"internalType":"bytes32","name":"","type":"bytes32"}],"stateMutability":"view","type":"function"},{"inputs":[],"name":"GOVERNMENT_ROLE","outputs":[{"internalType":"bytes32","name":"","type":"bytes32"}],"stateMutability":"view","type":"function"},{"inputs":[],"name":"USER_ROLE","outputs":[{"internalType":"bytes32","name":"","type":"bytes32"}],"stateMutability":"view","type":"function"},{"inputs":[{"internalType":"bytes32","name":"dataHash","type":"bytes32"},{"internalType":"uint256","name":"startDate","type":"uint256"},{"internalType":"uint256","name":"endDate","type":"uint256"}],"name":"addProfessionalRecord","outputs":[],"stateMutability":"nonpayable","type":"function"},{"inputs":[{"internalType":"bytes32","name":"userId","type":"bytes32"},{"internalType":"bytes32","name":"biometricHash","type":"bytes32"},{"internalType":"bytes32","name":"professionalDataHash","type":"bytes32"}],"name":"createIdentity","outputs":[],"stateMutability":"nonpayable","type":"function"},{"inputs":[{"internalType":"address","name":"userAddress","type":"address"}],"name":"getBiometricHash","outputs":[{"internalType":"bytes32","name":"","type":"bytes32"}],"stateMutability":"view","type":"function"},{"inputs":[{"internalType":"address","name":"userAddress","type":"address"}],"name":"getIdentity","outputs":[{"internalType":"bytes32","name":"userId","type":"bytes32"},{"internalType":"bytes32","name":"biometricHash","type":"bytes32"},{"internalType":"bytes32","name":"professionalDataHash","type":"bytes32"},{"internalType":"bool","name":"isVerified","type":"bool"},{"internalType":"bool","name":"isRevoked","type":"bool"},{"internalType":"uint256","name":"timestamp","type":"uint256"}],"stateMutability":"view","type":"function"},{"inputs":[{"internalType":"bytes32","name":"userId","type":"bytes32"}],"name":"getIdentityByUserId","outputs":[{"internalType":"address","name":"userAddress","type":"address"},{"internalType":"bytes32","name":"biometricHash","type":"bytes32"},{"internalType":"bytes32","name":"professionalDataHash","type":"bytes32"},{"internalType":"bool","name":"isVerified","type":"bool"},{"internalType":"bool","name":"isRevoked","type":"bool"},{"internalType":"uint256","name":"timestamp","type":"uint256"}],"stateMutability":"view","type":"function"},{"inputs":[{"internalType":"address","name":"userAddress","type":"address"},{"internalType":"uint256","name":"recordIndex","type":"uint256"}],"name":"getProfessionalRecord","outputs":[{"internalType":"bytes32","name":"dataHash","type":"bytes32"},{"internalType":"uint256","name":"startDate","type":"uint256"},{"internalType":"uint256","name":"endDate","type":"uint256"},{"internalType":"address","name":"verifier","type":"address"},{"internalType":"bool","name":"isVerified","type":"bool"},{"internalType":"uint256","name":"createdAt","type":"uint256"}],"stateMutability":"view","type":"function"},{"inputs":[{"internalType":"address","name":"userAddress","type":"address"}],"name":"getProfessionalRecordCount","outputs":[{"internalType":"uint256","name":"","type":"uint256"}],"stateMutability":"view","type":"function"},{"inputs":[{"internalType":"address","name":"account","type":"address"},{"internalType":"bytes32","name":"role","type":"bytes32"}],"name":"grantRole","outputs":[],"stateMutability":"nonpayable","type":"function"},{"inputs":[{"internalType":"address","name":"account","type":"address"},{"internalType":"bytes32","name":"role","type":"bytes32"}],"name":"hasRole","outputs":[{"internalType":"bool","name":"","type":"bool"}],"stateMutability":"view","type":"function"},{"inputs":[{"internalType":"address","name":"userAddress","type":"address"}],"name":"isIdentityVerified","outputs":[{"internalType":"bool","name":"","type":"bool"}],"stateMutability":"view","type":"function"},{"inputs":[{"internalType":"bytes32","name":"documentHash","type":"bytes32"}],"name":"registerDocument","outputs":[],"stateMutability":"nonpayable","type":"function"},{"inputs":[{"internalType":"address","name":"userAddress","type":"address"}],"name":"revokeIdentity","outputs":[],"stateMutability":"nonpayable","type":"function"},{"inputs":[{"internalType":"address","name":"account","type":"address"},{"internalType":"bytes32","name":"role","type":"bytes32"}],"name":"revokeRole","outputs":[],"stateMutability":"nonpayable","type":"function"},{"inputs":[{"internalType":"address","name":"userAddress","type":"address"},{"internalType":"bytes32","name":"newBiometricHash","type":"bytes32"}],"name":"updateBiometricHash","outputs":[],"stateMutability":"nonpayable","type":"function"},{"inputs":[{"internalType":"address","name":"userAddress","type":"address"},{"internalType":"bytes32","name":"newProfessionalDataHash","type":"bytes32"}],"name":"updateProfessionalDataHash","outputs":[],"stateMutability":"nonpayable","type":"function"},{"inputs":[{"internalType":"bytes32","name":"documentHash","type":"bytes32"}],"name":"verifyDocument","outputs":[{"internalType":"bool","name":"exists","type":"bool"},{"internalType":"address","name":"issuer","type":"address"},{"internalType":"uint256","name":"timestamp","type":"uint256"}],"stateMutability":"view","type":"function"},{"inputs":[{"internalType":"address","name":"userAddress","type":"address"}],"name":"verifyIdentity","outputs":[],"stateMutability":"nonpayable","type":"function"},{"inputs":[{"internalType":"address","name":"userAddress","type":"address"},{"internalType":"uint256","name":"recordIndex","type":"uint256"}],"name":"verifyProfessionalRecord","outputs":[],"stateMutability":"nonpayable","type":"function"}],"evm":{"bytecode":{"linkReferences":{},"object":"60a060405234801561001057600080fd5b5033608081905260008181526003602090815260408083207fdf8b4c520ffe197c5343c6f5aec59570151ef9a492f2c624fd45ddde6135ec428085529252808320805460ff1916600117905551909183917f2739f947da5133134a8e9c6a84d5ed6da396844d81b4a760121c8b9c668bdf9c9190a46080516119be6100a0600039600061063d01526119be6000f3fe608060405234801561001057600080fd5b50600436106101375760003560e01c80639b131974116100b8578063b3dccb7d1161007c578063b3dccb7d1461033e578063b5b90fd914610351578063bdbf8bcd14610364578063d4f2dbf914610377578063f63ac762146103c2578063fe35089f146103d557600080fd5b80639b131974146102a75780639cbed582146102ba578063a166c556146102cf578063ab2742dc146102e2578063ac4ab3fb146102f557600080fd5b80635ddf26ae116100ff5780635ddf26ae146101f55780635dfe215414610243578063680a138b1461026c57806375b238fc1461027f57806375be85e71461029457600080fd5b80630ebddd171461013c5780631311916114610151578063208dd1ff1461018b5780632fea7b811461019e57806346a528ba146101e2575b600080fd5b61014f61014a366004611796565b61043a565b005b6101787f2db9fd3d099848027c2383d0a083396f6c41510d7acfd92adc99b6cffcf31e9681565b6040519081526020015b60405180910390f35b61014f6101993660046117b8565b6105da565b6101b16101ac366004611796565b610735565b60408051968752602087019590955293850192909252151560608401521515608083015260a082015260c001610182565b61014f6101f03660046117e2565b6107d0565b61020861020336600461180e565b6109f5565b604080516001600160a01b039097168752602087019590955293850192909252151560608401521515608083015260a082015260c001610182565b610178610251366004611796565b6001600160a01b031660009081526004602052604090205490565b61017861027a366004611796565b610ac7565b61017860008051602061194983398151915281565b61014f6102a23660046117b8565b610b21565b61014f6102b536600461180e565b610cd7565b61017860008051602061196983398151915281565b61014f6102dd3660046117b8565b610e42565b61014f6102f03660046117b8565b610fa7565b61032e6103033660046117b8565b6001600160a01b03919091166000908152600360209081526040808320938352929052205460ff1690565b6040519015158152602001610182565b61014f61034c3660046117b8565b61104f565b61014f61035f366004611796565b611239565b61014f6103723660046117e2565b61142f565b61038a6103853660046117b8565b6115d3565b604080519687526020870195909552938501929092526001600160a01b031660608401521515608083015260a082015260c001610182565b61032e6103d0366004611796565b6116f9565b6104156103e336600461180e565b60009081526005602052604090206003810154600182015460029092015460ff909116926001600160a01b0390921691565b6040805193151584526001600160a01b03909216602084015290820152606001610182565b336000908152600360209081526040808320600080516020611949833981519152845290915290205460ff16806104995750336000908152600360209081526040808320600080516020611969833981519152845290915290205460ff165b6104be5760405162461bcd60e51b81526004016104b590611827565b60405180910390fd5b6001600160a01b038116600090815260026020526040902054819060ff166104f85760405162461bcd60e51b81526004016104b59061186f565b6001600160a01b03821660009081526020819052604090206005810154600160a81b900460ff161561056c5760405162461bcd60e51b815260206004820152601e60248201527f444249533a206964656e7469747920616c7265616479207265766f6b6564000060448201526064016104b5565b6005810180544260048401819055600160a81b336001600160b01b0319909316831717909255825460405192835290916001600160a01b038616907ffe37eb48e14f1a640691ac8d63b8e6e38a92f2df64c1ce7e7d290d16e3f76cb4906020015b60405180910390a4505050565b33600090815260036020908152604080832060008051602061194983398151915280855292529091205460ff166106235760405162461bcd60e51b81526004016104b5906118a6565b6000805160206119498339815191528214801561067157507f00000000000000000000000000000000000000000000000000000000000000006001600160a01b0316836001600160a01b0316145b156106d95760405162461bcd60e51b815260206004820152603260248201527f444249533a2063616e6e6f74207265766f6b652061646d696e20726f6c6520666044820152713937b69037b934b3b4b730b61030b236b4b760711b60648201526084016104b5565b6001600160a01b0383166000818152600360209081526040808320868452909152808220805460ff19169055513392859290917f8fa769283732af9aa4f65d966aceb1295944e96fcdd7031699b47da23286d2859190a4505050565b6001600160a01b03811660009081526002602052604081205481908190819081908190879060ff166107795760405162461bcd60e51b81526004016104b59061186f565b505050506001600160a01b0393909316600090815260208190526040902080546001820154600283015460058401546004909401549297919650945060ff600160a01b840481169450600160a81b90930490921691565b3360009081526002602052604090205460ff16156108475760405162461bcd60e51b815260206004820152602e60248201527f444249533a206964656e7469747920616c72656164792065786973747320666f60448201526d722074686973206164647265737360901b60648201526084016104b5565b6000838152600160205260409020546001600160a01b0316156108ac5760405162461bcd60e51b815260206004820152601a60248201527f444249533a2075736572496420616c72656164792074616b656e00000000000060448201526064016104b5565b3360008181526020818152604080832087815560018082018890556002808301889055426003808501829055600485018290556005850180546001600160b01b03191661ffff60a01b198b16179055918652848720805460ff1990811685179091558b885283875285882080546001600160a01b0319168a1790558888529186528487207f2db9fd3d099848027c2383d0a083396f6c41510d7acfd92adc99b6cffcf31e968852865295849020805490911690911790558151878152928301939093529192869290917f4fbc9185c3ef8a4baed290c2388409b2540d06266f68880f74a2263a03ae2511910160405180910390a360405133907f2db9fd3d099848027c2383d0a083396f6c41510d7acfd92adc99b6cffcf31e969082907f2739f947da5133134a8e9c6a84d5ed6da396844d81b4a760121c8b9c668bdf9c90600090a450505050565b6000818152600160205260408120548190819081908190819087906001600160a01b031680610a665760405162461bcd60e51b815260206004820152601b60248201527f444249533a2075736572496420646f6573206e6f74206578697374000000000060448201526064016104b5565b50505060009586525050600160208181526040808720546001600160a01b03168088529187905290952090810154600282015460058301546004909301549697919690955060ff600160a01b840481169550600160a81b9093049092169250565b6001600160a01b038116600090815260026020526040812054829060ff16610b015760405162461bcd60e51b81526004016104b59061186f565b50506001600160a01b031660009081526020819052604090206001015490565b336000908152600360209081526040808320600080516020611949833981519152845290915290205460ff1680610b805750336000908152600360209081526040808320600080516020611969833981519152845290915290205460ff165b610b9c5760405162461bcd60e51b81526004016104b590611827565b6001600160a01b038216600090815260026020526040902054829060ff16610bd65760405162461bcd60e51b81526004016104b59061186f565b6001600160a01b03831660009081526020819052604090206005810154600160a81b900460ff1615610c1a5760405162461bcd60e51b81526004016104b5906118ee565b6002810183905542600482018190556005820180546001600160a01b03191633179055815460405190916001600160a01b038716917f20b42ac31f28150d919b1ef6acf649afa37bddcf6849a68ad69303ad26e16d9191610c8691889190918252602082015260400190565b60405180910390a380546040514281523391906001600160a01b038716907fd6834370a20d49b5dd17db7d3adfb8691e17cb15134a9e1241c0c54587a83e389060200160405180910390a450505050565b336000908152600360209081526040808320600080516020611949833981519152845290915290205460ff1680610d365750336000908152600360209081526040808320600080516020611969833981519152845290915290205460ff165b610d525760405162461bcd60e51b81526004016104b590611827565b60008181526005602052604090206003015460ff1615610dbe5760405162461bcd60e51b815260206004820152602160248201527f444249533a20646f63756d656e7420616c7265616479207265676973746572656044820152601960fa1b60648201526084016104b5565b60008181526005602052604090819020828155600180820180546001600160a01b03191633908117909155426002840181905560038401805460ff1916909317909255925191929184917f6569e54c43a697fc61e67763858d5abef16899d2b13215c7c07090aa878b24a891610e3691815260200190565b60405180910390a35050565b336000908152600360209081526040808320600080516020611949833981519152845290915290205460ff1680610ea15750336000908152600360209081526040808320600080516020611969833981519152845290915290205460ff165b610ebd5760405162461bcd60e51b81526004016104b590611827565b6001600160a01b038216600090815260026020526040902054829060ff16610ef75760405162461bcd60e51b81526004016104b59061186f565b6001600160a01b03831660009081526020819052604090206005810154600160a81b900460ff1615610f3b5760405162461bcd60e51b81526004016104b5906118ee565b6001810183905542600482018190556005820180546001600160a01b03191633179055815460405190916001600160a01b038716917f821247c4ba3f1d1df82f34e743b010cb6d0ea980df3861f3c8d0c296405a9f3891610c8691889190918252602082015260400190565b33600090815260036020908152604080832060008051602061194983398151915280855292529091205460ff16610ff05760405162461bcd60e51b81526004016104b5906118a6565b6001600160a01b0383166000818152600360209081526040808320868452909152808220805460ff19166001179055513392859290917f2739f947da5133134a8e9c6a84d5ed6da396844d81b4a760121c8b9c668bdf9c9190a4505050565b33600090815260036020908152604080832060008051602061196983398151915280855292529091205460ff166110985760405162461bcd60e51b81526004016104b5906118a6565b6001600160a01b038316600090815260026020526040902054839060ff166110d25760405162461bcd60e51b81526004016104b59061186f565b6001600160a01b03841660009081526004602052604090205483106111395760405162461bcd60e51b815260206004820152601b60248201527f444249533a207265636f726420646f6573206e6f74206578697374000000000060448201526064016104b5565b6001600160a01b038416600090815260046020526040812080548590811061116357611163611932565b906000526020600020906005020190508060030160149054906101000a900460ff16156111d25760405162461bcd60e51b815260206004820152601d60248201527f444249533a207265636f726420616c726561647920766572696669656400000060448201526064016104b5565b6003810180546001600160a81b03191633908117600160a01b17909155604080518681524260208201526001600160a01b038816917fd8834d67aec3b146bb27dfad80040e86365c1bd9a455fcf900236a83ed5fe4ec910160405180910390a35050505050565b336000908152600360209081526040808320600080516020611949833981519152845290915290205460ff16806112985750336000908152600360209081526040808320600080516020611969833981519152845290915290205460ff165b6112b45760405162461bcd60e51b81526004016104b590611827565b6001600160a01b038116600090815260026020526040902054819060ff166112ee5760405162461bcd60e51b81526004016104b59061186f565b6001600160a01b03821660009081526020819052604090206005810154600160a01b900460ff16156113625760405162461bcd60e51b815260206004820152601f60248201527f444249533a206964656e7469747920616c72656164792076657269666965640060448201526064016104b5565b6005810154600160a81b900460ff16156113ca5760405162461bcd60e51b8152602060048201526024808201527f444249533a2063616e6e6f7420766572696679207265766f6b6564206964656e6044820152637469747960e01b60648201526084016104b5565b6005810180544260048401819055600160a01b336001600160a81b0319909316831717909255825460405192835290916001600160a01b038616907f120496c78192308aaef67d8588700531449c23f7d0c09c0e60449574db26cf8a906020016105cd565b3360008181526002602052604090205460ff1661145e5760405162461bcd60e51b81526004016104b59061186f565b3360009081526020819052604090206005810154600160a81b900460ff16156114de5760405162461bcd60e51b815260206004820152602c60248201527f444249533a2063616e6e6f7420616464207265636f726420666f72207265766f60448201526b6b6564206964656e7469747960a01b60648201526084016104b5565b6040805160c08101825286815260208082018781528284018781526000606080860182815260808088018481524260a08a01818152338088526004808c528d8920805460018082018355918b52998d90208e516005909b0201998a559a519a89019a909a5597516002880155935160038701805493511515600160a01b026001600160a81b03199094166001600160a01b0390921691909117929092179091559151939095019290925586518c81529485018b90528487018a905284015293519293927fa914f815f5f0d576b15c09ee186f3f0c57e55d528370056d7edd8b81eafb85f29281900390910190a2505050505050565b6001600160a01b03821660009081526002602052604081205481908190819081908190889060ff166116175760405162461bcd60e51b81526004016104b59061186f565b6001600160a01b038916600090815260046020526040902054881061167e5760405162461bcd60e51b815260206004820152601b60248201527f444249533a207265636f726420646f6573206e6f74206578697374000000000060448201526064016104b5565b6001600160a01b038916600090815260046020526040812080548a9081106116a8576116a8611932565b600091825260209091206005909102018054600182015460028301546003840154600490940154929e919d509b506001600160a01b0383169a50600160a01b90920460ff1698509650945050505050565b6001600160a01b038116600090815260026020526040812054829060ff166117335760405162461bcd60e51b81526004016104b59061186f565b6001600160a01b03831660009081526020819052604090206005810154600160a01b900460ff16801561177257506005810154600160a81b900460ff16155b949350505050565b80356001600160a01b038116811461179157600080fd5b919050565b6000602082840312156117a857600080fd5b6117b18261177a565b9392505050565b600080604083850312156117cb57600080fd5b6117d48361177a565b946020939093013593505050565b6000806000606084860312156117f757600080fd5b505081359360208301359350604090920135919050565b60006020828403121561182057600080fd5b5035919050565b60208082526028908201527f444249533a2063616c6c6572206d7573742062652061646d696e206f7220676f6040820152671d995c9b9b595b9d60c21b606082015260800190565b6020808252601d908201527f444249533a206964656e7469747920646f6573206e6f74206578697374000000604082015260600190565b60208082526028908201527f444249533a2063616c6c657220646f6573206e6f74206861766520726571756960408201526772656420726f6c6560c01b606082015260800190565b60208082526024908201527f444249533a2063616e6e6f7420757064617465207265766f6b6564206964656e6040820152637469747960e01b606082015260800190565b634e487b7160e01b600052603260045260246000fdfedf8b4c520ffe197c5343c6f5aec59570151ef9a492f2c624fd45ddde6135ec42c7a6bfa28ee24953425efb0bb89772445020cd5ae1af751673fd61a47416f017a26469706673582212209adb0ddbbf9c6b04be4e43154bb04f5eb94a9c41751b406ae91dbc67d11136c964736f6c63430008110033","opcodes":"PUSH1 0xA0 PUSH1 0x40 MSTORE CALLVALUE DUP1 ISZERO PUSH2 0x10 JUMPI PUSH1 0x0 DUP1 REVERT JUMPDEST POP CALLER PUSH1 0x80 DUP2 SWAP1 MSTORE PUSH1 0x0 DUP2 DUP2 MSTORE PUSH1 0x3 PUSH1 0x20 SWAP1 DUP2 MSTORE PUSH1 0x40 DUP1 DUP4 KECCAK256 PUSH32 0xDF8B4C520FFE197C5343C6F5AEC59570151EF9A492F2C624FD45DDDE6135EC42 DUP1 DUP6 MSTORE SWAP3 MSTORE DUP1 DUP4 KECCAK256 DUP1 SLOAD PUSH1 0xFF NOT AND PUSH1 0x1 OR SWAP1 SSTORE MLOAD SWAP1 SWAP2 DUP4 SWAP2 PUSH32 0x2739F947DA5133134A8E9C6A84D5ED6DA396844D81B4A760121C8B9C668BDF9C SWAP2 SWAP1 LOG4 PUSH1 0x80 MLOAD PUSH2 0x19BE PUSH2 0xA0 PUSH1 0x0 CODECOPY PUSH1 0x0 PUSH2 0x63D ADD MSTORE PUSH2 0x19BE PUSH1 0x0 RETURN INVALID PUSH1 0x80 PUSH1 0x40 MSTORE CALLVALUE DUP1 ISZERO PUSH2 0x10 JUMPI PUSH1 0x0 DUP1 REVERT JUMPDEST POP PUSH1 0x4 CALLDATASIZE LT PUSH2 0x137 JUMPI PUSH1 0x0 CALLDATALOAD PUSH1 0xE0 SHR DUP1 PUSH4 0x9B131974 GT PUSH2 0xB8 JUMPI DUP1 PUSH4 0xB3DCCB7D GT PUSH2 0x7C JUMPI DUP1 PUSH4 0xB3DCCB7D EQ PUSH2 0x33E JUMPI DUP1 PUSH4 0xB5B90FD9 EQ PUSH2 0x351 JUMPI DUP1 PUSH4 0xBDBF8BCD EQ PUSH2 0x364 JUMPI DUP1 PUSH4 0xD4F2DBF9 EQ PUSH2 0x377 JUMPI DUP1 PUSH4 0xF63AC762 EQ PUSH2 0x3C2 JUMPI DUP1 PUSH4 0xFE35089F EQ PUSH2 0x3D5 JUMPI PUSH1 0x0 DUP1 REVERT JUMPDEST DUP1 PUSH4 0x9B131974 EQ PUSH2 0x2A7 JUMPI DUP1 PUSH4 0x9CBED582 EQ PUSH2 0x2BA JUMPI DUP1 PUSH4 0xA166C556 EQ PUSH2 0x2CF JUMPI DUP1 PUSH4 0xAB2742DC EQ PUSH2 0x2E2 JUMPI DUP1 PUSH4 0xAC4AB3FB EQ PUSH2 0x2F5 JUMPI PUSH1 0x0 DUP1 REVERT JUMPDEST DUP1 PUSH4 0x5DDF26AE GT PUSH2 0xFF JUMPI DUP1 PUSH4 0x5DDF26AE EQ PUSH2 0x1F5 JUMPI DUP1 PUSH4 0x5DFE2154 EQ PUSH2 0x243 JUMPI DUP1 PUSH4 0x680A138B EQ PUSH2 0x26C JUMPI DUP1 PUSH4 0x75B238FC EQ PUSH2 0x27F JUMPI DUP1 PUSH4 0x75BE85E7 EQ PUSH2 0x294 JUMPI PUSH1 0x0 DUP1 REVERT JUMPDEST DUP1 PUSH4 0xEBDDD17 EQ PUSH2 0x13C JUMPI DUP1 PUSH4 0x13119161 EQ PUSH2 0x151 JUMPI DUP1 PUSH4 0x208DD1FF EQ PUSH2 0x18B JUMPI DUP1 PUSH4 0x2FEA7B81 EQ PUSH2 0x19E JUMPI DUP1 PUSH4 0x46A528BA EQ PUSH2 0x1E2 JUMPI JUMPDEST PUSH1 0x0 DUP1 REVERT JUMPDEST PUSH2 0x14F PUSH2 0x14A CALLDATASIZE PUSH1 0x4 PUSH2 0x1796 JUMP JUMPDEST PUSH2 0x43A JUMP JUMPDEST STOP JUMPDEST PUSH2 0x178 PUSH32 0x2DB9FD3D099848027C2383D0A083396F6C41510D7ACFD92ADC99B6CFFCF31E96 DUP2 JUMP JUMPDEST PUSH1 0x40 MLOAD SWAP1 DUP2 MSTORE PUSH1 0x20 ADD JUMPDEST PUSH1 0x40 MLOAD DUP1 SWAP2 SUB SWAP1 RETURN JUMPDEST PUSH2 0x14F PUSH2 0x199 CALLDATASIZE PUSH1 0x4 PUSH2 0x17B8 JUMP JUMPDEST PUSH2 0x5DA JUMP JUMPDEST PUSH2 0x1B1 PUSH2 0x1AC CALLDATASIZE PUSH1 0x4 PUSH2 0x1796 JUMP JUMPDEST PUSH2 0x735 JUMP JUMPDEST PUSH1 0x40 DUP1 MLOAD SWAP7 DUP8 MSTORE PUSH1 0x20 DUP8 ADD SWAP6 SWAP1 SWAP6 MSTORE SWAP4 DUP6 ADD SWAP3 SWAP1 SWAP3 MSTORE ISZERO ISZERO PUSH1 0x60 DUP5 ADD MSTORE ISZERO ISZERO PUSH1 0x80 DUP4 ADD MSTORE PUSH1 0xA0 DUP3 ADD MSTORE PUSH1 0xC0 ADD PUSH2 0x182 JUMP JUMPDEST PUSH2 0x14F PUSH2 0x1F0 CALLDATASIZE PUSH1 0x4 PUSH2 0x17E2 JUMP JUMPDEST PUSH2 0x7D0 JUMP JUMPDEST PUSH2 0x208 PUSH2 0x203 CALLDATASIZE PUSH1 0x4 PUSH2 0x180E JUMP JUMPDEST PUSH2 0x9F5 JUMP JUMPDEST PUSH1 0x40 DUP1 MLOAD PUSH1 0x1 PUSH1 0x1 PUSH1 0xA0 SHL SUB SWAP1 SWAP8 AND DUP8 MSTORE PUSH1 0x20 DUP8 ADD SWAP6 SWAP1 SWAP6 MSTORE SWAP4 DUP6 ADD SWAP3 SWAP1 SWAP3 MSTORE ISZERO ISZERO PUSH1 0x60 DUP5 ADD MSTORE ISZERO ISZERO PUSH1 0x80 DUP4 ADD MSTORE PUSH1 0xA0 DUP3 ADD MSTORE PUSH1 0xC0 ADD PUSH2 0x182 JUMP JUMPDEST PUSH2 0x178 PUSH2 0x251 CALLDATASIZE PUSH1 0x4 PUSH2 0x1796 JUMP JUMPDEST PUSH1 0x1 PUSH1 0x1 PUSH1 0xA0 SHL SUB AND PUSH1 0x0 SWAP1 DUP2 MSTORE PUSH1 0x4 PUSH1 0x20 MSTORE PUSH1 0x40 SWAP1 KECCAK256 SLOAD SWAP1 JUMP JUMPDEST PUSH2 0x178 PUSH2 0x27A CALLDATASIZE PUSH1 0x4 PUSH2 0x1796 JUMP JUMPDEST PUSH2 0xAC7 JUMP JUMPDEST PUSH2 0x178 PUSH1 0x0 DUP1 MLOAD PUSH1 0x20 PUSH2 0x1949 DUP4 CODECOPY DUP2 MLOAD SWAP2 MSTORE DUP2 JUMP JUMPDEST PUSH2 0x14F PUSH2 0x2A2 CALLDATASIZE PUSH1 0x4 PUSH2 0x17B8 JUMP JUMPDEST PUSH2 0xB21 JUMP JUMPDEST PUSH2 0x14F PUSH2 0x2B5 CALLDATASIZE PUSH1 0x4 PUSH2 0x180E JUMP JUMPDEST PUSH2 0xCD7 JUMP JUMPDEST PUSH2 0x178 PUSH1 0x0 DUP1 MLOAD PUSH1 0x20 PUSH2 0x1969 DUP4 CODECOPY DUP2 MLOAD SWAP2 MSTORE DUP2 JUMP JUMPDEST PUSH2 0x14F PUSH2 0x2DD CALLDATASIZE PUSH1 0x4 PUSH2 0x17B8 JUMP JUMPDEST PUSH2 0xE42 JUMP JUMPDEST PUSH2 0x14F PUSH2 0x2F0 CALLDATASIZE PUSH1 0x4 PUSH2 0x17B8 JUMP JUMPDEST PUSH2 0xFA7 JUMP JUMPDEST PUSH2 0x32E PUSH2 0x303 CALLDATASIZE PUSH1 0x4 PUSH2 0x17B8 JUMP JUMPDEST PUSH1 0x1 PUSH1 0x1 PUSH1 0xA0 SHL SUB SWAP2 SWAP1 SWAP2 AND PUSH1 0x0 SWAP1 DUP2 MSTORE PUSH1 0x3 PUSH1 0x20 SWAP1 DUP2 MSTORE PUSH1 0x40 DUP1 DUP4 KECCAK256 SWAP4 DUP4 MSTORE SWAP3 SWAP1 MSTORE KECCAK256 SLOAD PUSH1 0xFF AND SWAP1 JUMP JUMPDEST PUSH1 0x40 MLOAD SWAP1 ISZERO ISZERO DUP2 MSTORE PUSH1 0x20 ADD PUSH2 0x182 JUMP JUMPDEST PUSH2 0x14F PUSH2 0x34C CALLDATASIZE PUSH1 0x4 PUSH2 0x17B8 JUMP JUMPDEST PUSH2 0x104F JUMP JUMPDEST PUSH2 0x14F PUSH2 0x35F CALLDATASIZE PUSH1 0x4 PUSH2 0x1796 JUMP JUMPDEST PUSH2 0x1239 JUMP JUMPDEST PUSH2 0x14F PUSH2 0x372 CALLDATASIZE PUSH1 0x4 PUSH2 0x17E2 JUMP JUMPDEST PUSH2 0x142F JUMP JUMPDEST PUSH2 0x38A PUSH2 0x385 CALLDATASIZE PUSH1 0x4 PUSH2 0x17B8 JUMP JUMPDEST PUSH2 0x15D3 JUMP JUMPDEST PUSH1 0x40 DUP1 MLOAD SWAP7 DUP8 MSTORE PUSH1 0x20 DUP8 ADD SWAP6 SWAP1 SWAP6 MSTORE SWAP4 DUP6 ADD SWAP3 SWAP1 SWAP3 MSTORE PUSH1 0x1 PUSH1 0x1 PUSH1 0xA0 SHL SUB AND PUSH1 0x60 DUP5 ADD MSTORE ISZERO ISZERO PUSH1 0x80 DUP4 ADD MSTORE PUSH1 0xA0 DUP3 ADD MSTORE PUSH1 0xC0 ADD PUSH2 0x182 JUMP JUMPDEST PUSH2 0x32E PUSH2 0x3D0 CALLDATASIZE PUSH1 0x4 PUSH2 0x1796 JUMP JUMPDEST PUSH2 0x16F9 JUMP JUMPDEST PUSH2 0x415 PUSH2 0x3E3 CALLDATASIZE PUSH1 0x4 PUSH2 0x180E JUMP JUMPDEST PUSH1 0x0 SWAP1 DUP2 MSTORE PUSH1 0x5 PUSH1 0x20 MSTORE PUSH1 0x40 SWAP1 KECCAK256 PUSH1 0x3 DUP2 ADD SLOAD PUSH1 0x1 DUP3 ADD SLOAD PUSH1 0x2 SWAP1 SWAP3 ADD SLOAD PUSH1 0xFF SWAP1 SWAP2 AND SWAP3 PUSH1 0x1 PUSH1 0x1 PUSH1 0xA0 SHL SUB SWAP1 SWAP3 AND SWAP2 JUMP JUMPDEST PUSH1 0x40 DUP1 MLOAD SWAP4 ISZERO ISZERO DUP5 MSTORE PUSH1 0x1 PUSH1 0x1 PUSH1 0xA0 SHL SUB SWAP1 SWAP3 AND PUSH1 0x20 DUP5 ADD MSTORE SWAP1 DUP3 ADD MSTORE PUSH1 0x60 ADD PUSH2 0x182 JUMP JUMPDEST CALLER PUSH1 0x0 SWAP1 DUP2 MSTORE PUSH1 0x3 PUSH1 0x20 SWAP1 DUP2 MSTORE PUSH1 0x40 DUP1 DUP4 KECCAK256 PUSH1 0x0 DUP1 MLOAD PUSH1 0x20 PUSH2 0x1949 DUP4 CODECOPY DUP2 MLOAD SWAP2 MSTORE DUP5 MSTORE SWAP1 SWAP2 MSTORE SWAP1 KECCAK256 SLOAD PUSH1 0xFF AND DUP1 PUSH2 0x499 JUMPI POP CALLER PUSH1 0x0 SWAP1 DUP2 MSTORE PUSH1 0x3 PUSH1 0x20 SWAP1 DUP2 MSTORE PUSH1 0x40 DUP1 DUP4 KECCAK256 PUSH1 0x0 DUP1 MLOAD PUSH1 0x20 PUSH2 0x1969 DUP4 CODECOPY DUP2 MLOAD SWAP2 MSTORE DUP5 MSTORE SWAP1 SWAP2 MSTORE SWAP1 KECCAK256 SLOAD PUSH1 0xFF AND JUMPDEST PUSH2 0x4BE JUMPI PUSH1 0x40 MLOAD PUSH3 0x461BCD PUSH1 0xE5 SHL DUP2 MSTORE PUSH1 0x4 ADD PUSH2 0x4B5 SWAP1 PUSH2 0x1827 JUMP JUMPDEST PUSH1 0x40 MLOAD DUP1 SWAP2 SUB SWAP1 REVERT JUMPDEST PUSH1 0x1 PUSH1 0x1 PUSH1 0xA0 SHL SUB DUP2 AND PUSH1 0x0 SWAP1 DUP2 MSTORE PUSH1 0x2 PUSH1 0x20 MSTORE PUSH1 0x40 SWAP1 KECCAK256 SLOAD DUP2 SWAP1 PUSH1 0xFF AND PUSH2 0x4F8 JUMPI PUSH1 0x40 MLOAD PUSH3 0x461BCD PUSH1 0xE5 SHL DUP2 MSTORE PUSH1 0x4 ADD PUSH2 0x4B5 SWAP1 PUSH2 0x186F JUMP JUMPDEST PUSH1 0x1 PUSH1 0x1 PUSH1 0xA0 SHL SUB DUP3 AND PUSH1 0x0 SWAP1 DUP2 MSTORE PUSH1 0x20 DUP2 SWAP1 MSTORE PUSH1 0x40 SWAP1 KECCAK256 PUSH1 0x5 DUP2 ADD SLOAD PUSH1 0x1 PUSH1 0xA8 SHL SWAP1 DIV PUSH1 0xFF AND ISZERO PUSH2 0x56C JUMPI PUSH1 0x40 MLOAD PUSH3 0x461BCD PUSH1 0xE5 SHL DUP2 MSTORE PUSH1 0x20 PUSH1 0x4 DUP3 ADD MSTORE PUSH1 0x1E PUSH1 0x24 DUP3 ADD MSTORE PUSH32 0x444249533A206964656E7469747920616C7265616479207265766F6B65640000 PUSH1 0x44 DUP3 ADD MSTORE PUSH1 0x64 ADD PUSH2 0x4B5 JUMP JUMPDEST PUSH1 0x5 DUP2 ADD DUP1 SLOAD TIMESTAMP PUSH1 0x4 DUP5 ADD DUP2 SWAP1 SSTORE PUSH1 0x1 PUSH1 0xA8 SHL CALLER PUSH1 0x1 PUSH1 0x1 PUSH1 0xB0 SHL SUB NOT SWAP1 SWAP4 AND DUP4 OR OR SWAP1 SWAP3 SSTORE DUP3 SLOAD PUSH1 0x40 MLOAD SWAP3 DUP4 MSTORE SWAP1 SWAP2 PUSH1 0x1 PUSH1 0x1 PUSH1 0xA0 SHL SUB DUP7 AND SWAP1 PUSH32 0xFE37EB48E14F1A640691AC8D63B8E6E38A92F2DF64C1CE7E7D290D16E3F76CB4 SWAP1 PUSH1 0x20 ADD JUMPDEST PUSH1 0x40 MLOAD DUP1 SWAP2 SUB SWAP1 LOG4 POP POP POP JUMP JUMPDEST CALLER PUSH1 0x0 SWAP1 DUP2 MSTORE PUSH1 0x3 PUSH1 0x20 SWAP1 DUP2 MSTORE PUSH1 0x40 DUP1 DUP4 KECCAK256 PUSH1 0x0 DUP1 MLOAD PUSH1 0x20 PUSH2 0x1949 DUP4 CODECOPY DUP2 MLOAD SWAP2 MSTORE DUP1 DUP6 MSTORE SWAP3 MSTORE SWAP1 SWAP2 KECCAK256 SLOAD PUSH1 0xFF AND PUSH2 0x623 JUMPI PUSH1 0x40 MLOAD PUSH3 0x461BCD PUSH1 0xE5 SHL DUP2 MSTORE PUSH1 0x4 ADD PUSH2 0x4B5 SWAP1 PUSH2 0x18A6 JUMP JUMPDEST PUSH1 0x0 DUP1 MLOAD PUSH1 0x20 PUSH2 0x1949 DUP4 CODECOPY DUP2 MLOAD SWAP2 MSTORE DUP3 EQ DUP1 ISZERO PUSH2 0x671 JUMPI POP PUSH32 0x0 PUSH1 0x1 PUSH1 0x1 PUSH1 0xA0 SHL SUB AND DUP4 PUSH1 0x1 PUSH1 0x1 PUSH1 0xA0 SHL SUB AND EQ JUMPDEST ISZERO PUSH2 0x6D9 JUMPI PUSH1 0x40 MLOAD PUSH3 0x461BCD PUSH1 0xE5 SHL DUP2 MSTORE PUSH1 0x20 PUSH1 0x4 DUP3 ADD MSTORE PUSH1 0x32 PUSH1 0x24 DUP3 ADD MSTORE PUSH32 0x444249533A2063616E6E6F74207265766F6B652061646D696E20726F6C652066 PUSH1 0x44 DUP3 ADD MSTORE PUSH18 0x3937B69037B934B3B4B730B61030B236B4B7 PUSH1 0x71 SHL PUSH1 0x64 DUP3 ADD MSTORE PUSH1 0x84 ADD PUSH2 0x4B5 JUMP JUMPDEST PUSH1 0x1 PUSH1 0x1 PUSH1 0xA0 SHL SUB DUP4 AND PUSH1 0x0 DUP2 DUP2 MSTORE PUSH1 0x3 PUSH1 0x20 SWAP1 DUP2 MSTORE PUSH1 0x40 DUP1 DUP4 KECCAK256 DUP7 DUP5 MSTORE SWAP1 SWAP2 MSTORE DUP1 DUP3 KECCAK256 DUP1 SLOAD PUSH1 0xFF NOT AND SWAP1 SSTORE MLOAD CALLER SWAP3 DUP6 SWAP3 SWAP1 SWAP2 PUSH32 0x8FA769283732AF9AA4F65D966ACEB1295944E96FCDD7031699B47DA23286D285 SWAP2 SWAP1 LOG4 POP POP POP JUMP JUMPDEST PUSH1 0x1 PUSH1 0x1 PUSH1 0xA0 SHL SUB DUP2 AND PUSH1 0x0 SWAP1 DUP2 MSTORE PUSH1 0x2 PUSH1 0x20 MSTORE PUSH1 0x40 DUP2 KECCAK256 SLOAD DUP2 SWAP1 DUP2 SWAP1 DUP2 SWAP1 DUP2 SWAP1 DUP2 SWAP1 DUP8 SWAP1 PUSH1 0xFF AND PUSH2 0x779 JUMPI PUSH1 0x40 MLOAD PUSH3 0x461BCD PUSH1 0xE5 SHL DUP2 MSTORE PUSH1 0x4 ADD PUSH2 0x4B5 SWAP1 PUSH2 0x186F JUMP JUMPDEST POP POP POP POP PUSH1 0x1 PUSH1 0x1 PUSH1 0xA0 SHL SUB SWAP4 SWAP1 SWAP4 AND PUSH1 0x0 SWAP1 DUP2 MSTORE PUSH1 0x20 DUP2 SWAP1 MSTORE PUSH1 0x40 SWAP1 KECCAK256 DUP1 SLOAD PUSH1 0x1 DUP3 ADD SLOAD PUSH1 0x2 DUP4 ADD SLOAD PUSH1 0x5 DUP5 ADD SLOAD PUSH1 0x4 SWAP1 SWAP5 ADD SLOAD SWAP3 SWAP8 SWAP2 SWAP7 POP SWAP5 POP PUSH1 0xFF PUSH1 0x1 PUSH1 0xA0 SHL DUP5 DIV DUP2 AND SWAP5 POP PUSH1 0x1 PUSH1 0xA8 SHL SWAP1 SWAP4 DIV SWAP1 SWAP3 AND SWAP2 JUMP JUMPDEST CALLER PUSH1 0x0 SWAP1 DUP2 MSTORE PUSH1 0x2 PUSH1 0x20 MSTORE PUSH1 0x40 SWAP1 KECCAK256 SLOAD PUSH1 0xFF AND ISZERO PUSH2 0x847 JUMPI PUSH1 0x40 MLOAD PUSH3 0x461BCD PUSH1 0xE5 SHL DUP2 MSTORE PUSH1 0x20 PUSH1 0x4 DUP3 ADD MSTORE PUSH1 0x2E PUSH1 0x24 DUP3 ADD MSTORE PUSH32 0x444249533A206964656E7469747920616C72656164792065786973747320666F PUSH1 0x44 DUP3 ADD MSTORE PUSH14 0x7220746869732061646472657373 PUSH1 0x90 SHL PUSH1 0x64 DUP3 ADD MSTORE PUSH1 0x84 ADD PUSH2 0x4B5 JUMP JUMPDEST PUSH1 0x0 DUP4 DUP2 MSTORE PUSH1 0x1 PUSH1 0x20 MSTORE PUSH1 0x40 SWAP1 KECCAK256 SLOAD PUSH1 0x1 PUSH1 0x1 PUSH1 0xA0 SHL SUB AND ISZERO PUSH2 0x8AC JUMPI PUSH1 0x40 MLOAD PUSH3 0x461BCD PUSH1 0xE5 SHL DUP2 MSTORE PUSH1 0x20 PUSH1 0x4 DUP3 ADD MSTORE PUSH1 0x1A PUSH1 0x24 DUP3 ADD MSTORE PUSH32 0x444249533A2075736572496420616C72656164792074616B656E000000000000 PUSH1 0x44 DUP3 ADD MSTORE PUSH1 0x64 ADD PUSH2 0x4B5 JUMP JUMPDEST CALLER PUSH1 0x0 DUP2 DUP2 MSTORE PUSH1 0x20 DUP2 DUP2 MSTORE PUSH1 0x40 DUP1 DUP4 KECCAK256 DUP8 DUP2 SSTORE PUSH1 0x1 DUP1 DUP3 ADD DUP9 SWAP1 SSTORE PUSH1 0x2 DUP1 DUP4 ADD DUP9 SWAP1 SSTORE TIMESTAMP PUSH1 0x3 DUP1 DUP6 ADD DUP3 SWAP1 SSTORE PUSH1 0x4 DUP6 ADD DUP3 SWAP1 SSTORE PUSH1 0x5 DUP6 ADD DUP1 SLOAD PUSH1 0x1 PUSH1 0x1 PUSH1 0xB0 SHL SUB NOT AND PUSH2 0xFFFF PUSH1 0xA0 SHL NOT DUP12 AND OR SWAP1 SSTORE SWAP2 DUP7 MSTORE DUP5 DUP8 KECCAK256 DUP1 SLOAD PUSH1 0xFF NOT SWAP1 DUP2 AND DUP6 OR SWAP1 SWAP2 SSTORE DUP12 DUP9 MSTORE DUP4 DUP8 MSTORE DUP6 DUP9 KECCAK256 DUP1 SLOAD PUSH1 0x1 PUSH1 0x1 PUSH1 0xA0 SHL SUB NOT AND DUP11 OR SWAP1 SSTORE DUP9 DUP9 MSTORE SWAP2 DUP7 MSTORE DUP5 DUP8 KECCAK256 PUSH32 0x2DB9FD3D099848027C2383D0A083396F6C41510D7ACFD92ADC99B6CFFCF31E96 DUP9 MSTORE DUP7 MSTORE SWAP6 DUP5 SWAP1 KECCAK256 DUP1 SLOAD SWAP1 SWAP2 AND SWAP1 SWAP2 OR SWAP1 SSTORE DUP2 MLOAD DUP8 DUP2 MSTORE SWAP3 DUP4 ADD SWAP4 SWAP1 SWAP4 MSTORE SWAP2 SWAP3 DUP7 SWAP3 SWAP1 SWAP2 PUSH32 0x4FBC9185C3EF8A4BAED290C2388409B2540D06266F68880F74A2263A03AE2511 SWAP2 ADD PUSH1 0x40 MLOAD DUP1 SWAP2 SUB SWAP1 LOG3 PUSH1 0x40 MLOAD CALLER SWAP1 PUSH32 0x2DB9FD3D099848027C2383D0A083396F6C41510D7ACFD92ADC99B6CFFCF31E96 SWAP1 DUP3 SWAP1 PUSH32 0x2739F947DA5133134A8E9C6A84D5ED6DA396844D81B4A760121C8B9C668BDF9C SWAP1 PUSH1 0x0 SWAP1 LOG4 POP POP POP POP JUMP JUMPDEST PUSH1 0x0 DUP2 DUP2 MSTORE PUSH1 0x1 PUSH1 0x20 MSTORE PUSH1 0x40 DUP2 KECCAK256 SLOAD DUP2 SWAP1 DUP2 SWAP1 DUP2 SWAP1 DUP2 SWAP1 DUP2 SWAP1 DUP8 SWAP1 PUSH1 0x1 PUSH1 0x1 PUSH1 0xA0 SHL SUB AND DUP1 PUSH2 0xA66 JUMPI PUSH1 0x40 MLOAD PUSH3 0x461BCD PUSH1 0xE5 SHL DUP2 MSTORE PUSH1 0x20 PUSH1 0x4 DUP3 ADD MSTORE PUSH1 0x1B PUSH1 0x24 DUP3 ADD MSTORE PUSH32 0x444249533A2075736572496420646F6573206E6F742065786973740000000000 PUSH1 0x44 DUP3 ADD MSTORE PUSH1 0x64 ADD PUSH2 0x4B5 JUMP JUMPDEST POP POP POP PUSH1 0x0 SWAP6 DUP7 MSTORE POP POP PUSH1 0x1 PUSH1 0x20 DUP2 DUP2 MSTORE PUSH1 0x40 DUP1 DUP8 KECCAK256 SLOAD PUSH1 0x1 PUSH1 0x1 PUSH1 0xA0 SHL SUB AND DUP1 DUP9 MSTORE SWAP2 DUP8 SWAP1 MSTORE SWAP1 SWAP6 KECCAK256 SWAP1 DUP2 ADD SLOAD PUSH1 0x2 DUP3 ADD SLOAD PUSH1 0x5 DUP4 ADD SLOAD PUSH1 0x4 SWAP1 SWAP4 ADD SLOAD SWAP7 SWAP8 SWAP2 SWAP7 SWAP1 SWAP6 POP PUSH1 0xFF PUSH1 0x1 PUSH1 0xA0 SHL DUP5 DIV DUP2 AND SWAP6 POP PUSH1 0x1 PUSH1 0xA8 SHL SWAP1 SWAP4 DIV SWAP1 SWAP3 AND SWAP3 POP JUMP JUMPDEST PUSH1 0x1 PUSH1 0x1 PUSH1 0xA0 SHL SUB DUP2 AND PUSH1 0x0 SWAP1 DUP2 MSTORE PUSH1 0x2 PUSH1 0x20 MSTORE PUSH1 0x40 DUP2 KECCAK256 SLOAD DUP3 SWAP1 PUSH1 0xFF AND PUSH2 0xB01 JUMPI PUSH1 0x40 MLOAD PUSH3 0x461BCD PUSH1 0xE5 SHL DUP2 MSTORE PUSH1 0x4 ADD PUSH2 0x4B5 SWAP1 PUSH2 0x186F JUMP JUMPDEST POP POP PUSH1 0x1 PUSH1 0x1 PUSH1 0xA0 SHL SUB AND PUSH1 0x0 SWAP1 DUP2 MSTORE PUSH1 0x20 DUP2 SWAP1 MSTORE PUSH1 0x40 SWAP1 KECCAK256 PUSH1 0x1 ADD SLOAD SWAP1 JUMP JUMPDEST CALLER PUSH1 0x0 SWAP1 DUP2 MSTORE PUSH1 0x3 PUSH1 0x20 SWAP1 DUP2 MSTORE PUSH1 0x40 DUP1 DUP4 KECCAK256 PUSH1 0x0 DUP1 MLOAD PUSH1 0x20 PUSH2 0x1949 DUP4 CODECOPY DUP2 MLOAD SWAP2 MSTORE DUP5 MSTORE SWAP1 SWAP2 MSTORE SWAP1 KECCAK256 SLOAD PUSH1 0xFF AND DUP1 PUSH2 0xB80 JUMPI POP CALLER PUSH1 0x0 SWAP1 DUP2 MSTORE PUSH1 0x3 PUSH1 0x20 SWAP1 DUP2 MSTORE PUSH1 0x40 DUP1 DUP4 KECCAK256 PUSH1 0x0 DUP1 MLOAD PUSH1 0x20 PUSH2 0x1969 DUP4 CODECOPY DUP2 MLOAD SWAP2 MSTORE DUP5 MSTORE SWAP1 SWAP2 MSTORE SWAP1 KECCAK256 SLOAD PUSH1 0xFF AND JUMPDEST PUSH2 0xB9C JUMPI PUSH1 0x40 MLOAD PUSH3 0x461BCD PUSH1 0xE5 SHL DUP2 MSTORE PUSH1 0x4 ADD PUSH2 0x4B5 SWAP1 PUSH2 0x1827 JUMP JUMPDEST PUSH1 0x1 PUSH1 0x1 PUSH1 0xA0 SHL SUB DUP3 AND PUSH1 0x0 SWAP1 DUP2 MSTORE PUSH1 0x2 PUSH1 0x20 MSTORE PUSH1 0x40 SWAP1 KECCAK256 SLOAD DUP3 SWAP1 PUSH1 0xFF AND PUSH2 0xBD6 JUMPI PUSH1 0x40 MLOAD PUSH3 0x461BCD PUSH1 0xE5 SHL DUP2 MSTORE PUSH1 0x4 ADD PUSH2 0x4B5 SWAP1 PUSH2 0x186F JUMP JUMPDEST PUSH1 0x1 PUSH1 0x1 PUSH1 0xA0 SHL SUB DUP4 AND PUSH1 0x0 SWAP1 DUP2 MSTORE PUSH1 0x20 DUP2 SWAP1 MSTORE PUSH1 0x40 SWAP1 KECCAK256 PUSH1 0x5 DUP2 ADD SLOAD PUSH1 0x1 PUSH1 0xA8 SHL SWAP1 DIV PUSH1 0xFF AND ISZERO PUSH2 0xC1A JUMPI PUSH1 0x40 MLOAD PUSH3 0x461BCD PUSH1 0xE5 SHL DUP2 MSTORE PUSH1 0x4 ADD PUSH2 0x4B5 SWAP1 PUSH2 0x18EE JUMP JUMPDEST PUSH1 0x2 DUP2 ADD DUP4 SWAP1 SSTORE TIMESTAMP PUSH1 0x4 DUP3 ADD DUP2 SWAP1 SSTORE PUSH1 0x5 DUP3 ADD DUP1 SLOAD PUSH1 0x1 PUSH1 0x1 PUSH1 0xA0 SHL SUB NOT AND CALLER OR SWAP1 SSTORE DUP2 SLOAD PUSH1 0x40 MLOAD SWAP1 SWAP2 PUSH1 0x1 PUSH1 0x1 PUSH1 0xA0 SHL SUB DUP8 AND SWAP2 PUSH32 0x20B42AC31F28150D919B1EF6ACF649AFA37BDDCF6849A68AD69303AD26E16D91 SWAP2 PUSH2 0xC86 SWAP2 DUP9 SWAP2 SWAP1 SWAP2 DUP3 MSTORE PUSH1 0x20 DUP3 ADD MSTORE PUSH1 0x40 ADD SWAP1 JUMP JUMPDEST PUSH1 0x40 MLOAD DUP1 SWAP2 SUB SWAP1 LOG3 DUP1 SLOAD PUSH1 0x40 MLOAD TIMESTAMP DUP2 MSTORE CALLER SWAP2 SWAP1 PUSH1 0x1 PUSH1 0x1 PUSH1 0xA0 SHL SUB DUP8 AND SWAP1 PUSH32 0xD6834370A20D49B5DD17DB7D3ADFB8691E17CB15134A9E1241C0C54587A83E38 SWAP1 PUSH1 0x20 ADD PUSH1 0x40 MLOAD DUP1 SWAP2 SUB SWAP1 LOG4 POP POP POP POP JUMP JUMPDEST CALLER PUSH1 0x0 SWAP1 DUP2 MSTORE PUSH1 0x3 PUSH1 0x20 SWAP1 DUP2 MSTORE PUSH1 0x40 DUP1 DUP4 KECCAK256 PUSH1 0x0 DUP1 MLOAD PUSH1 0x20 PUSH2 0x1949 DUP4 CODECOPY DUP2 MLOAD SWAP2 MSTORE DUP5 MSTORE SWAP1 SWAP2 MSTORE SWAP1 KECCAK256 SLOAD PUSH1 0xFF AND DUP1 PUSH2 0xD36 JUMPI POP CALLER PUSH1 0x0 SWAP1 DUP2 MSTORE PUSH1 0x3 PUSH1 0x20 SWAP1 DUP2 MSTORE PUSH1 0x40 DUP1 DUP4 KECCAK256 PUSH1 0x0 DUP1 MLOAD PUSH1 0x20 PUSH2 0x1969 DUP4 CODECOPY DUP2 MLOAD SWAP2 MSTORE DUP5 MSTORE SWAP1 SWAP2 MSTORE SWAP1 KECCAK256 SLOAD PUSH1 0xFF AND JUMPDEST PUSH2 0xD52 JUMPI PUSH1 0x40 MLOAD PUSH3 0x461BCD PUSH1 0xE5 SHL DUP2 MSTORE PUSH1 0x4 ADD PUSH2 0x4B5 SWAP1 PUSH2 0x1827 JUMP JUMPDEST PUSH1 0x0 DUP2 DUP2 MSTORE PUSH1 0x5 PUSH1 0x20 MSTORE PUSH1 0x40 SWAP1 KECCAK256 PUSH1 0x3 ADD SLOAD PUSH1 0xFF AND ISZERO PUSH2 0xDBE JUMPI PUSH1 0x40 MLOAD PUSH3 0x461BCD PUSH1 0xE5 SHL DUP2 MSTORE PUSH1 0x20 PUSH1 0x4 DUP3 ADD MSTORE PUSH1 0x21 PUSH1 0x24 DUP3 ADD MSTORE PUSH32 0x444249533A20646F63756D656E7420616C726561647920726567697374657265 PUSH1 0x44 DUP3 ADD MSTORE PUSH1 0x19 PUSH1 0xFA SHL PUSH1 0x64 DUP3 ADD MSTORE PUSH1 0x84 ADD PUSH2 0x4B5 JUMP JUMPDEST PUSH1 0x0 DUP2 DUP2 MSTORE PUSH1 0x5 PUSH1 0x20 MSTORE PUSH1 0x40 SWAP1 DUP2 SWAP1 KECCAK256 DUP3 DUP2 SSTORE PUSH1 0x1 DUP1 DUP3 ADD DUP1 SLOAD PUSH1 0x1 PUSH1 0x1 PUSH1 0xA0 SHL SUB NOT AND CALLER SWAP1 DUP2 OR SWAP1 SWAP2 SSTORE TIMESTAMP PUSH1 0x2 DUP5 ADD DUP2 SWAP1 SSTORE PUSH1 0x3 DUP5 ADD DUP1 SLOAD PUSH1 0xFF NOT AND SWAP1 SWAP4 OR SWAP1 SWAP3 SSTORE SWAP3 MLOAD SWAP2 SWAP3 SWAP2 DUP5 SWAP2 PUSH32 0x6569E54C43A697FC61E67763858D5ABEF16899D2B13215C7C07090AA878B24A8 SWAP2 PUSH2 0xE36 SWAP2 DUP2 MSTORE PUSH1 0x20 ADD SWAP1 JUMP JUMPDEST PUSH1 0x40 MLOAD DUP1 SWAP2 SUB SWAP1 LOG3 POP POP JUMP JUMPDEST CALLER PUSH1 0x0 SWAP1 DUP2 MSTORE PUSH1 0x3 PUSH1 0x20 SWAP1 DUP2 MSTORE PUSH1 0x40 DUP1 DUP4 KECCAK256 PUSH1 0x0 DUP1 MLOAD PUSH1 0x20 PUSH2 0x1949 DUP4 CODECOPY DUP2 MLOAD SWAP2 MSTORE DUP5 MSTORE SWAP1 SWAP2 MSTORE SWAP1 KECCAK256 SLOAD PUSH1 0xFF AND DUP1 PUSH2 0xEA1 JUMPI POP CALLER PUSH1 0x0 SWAP1 DUP2 MSTORE PUSH1 0x3 PUSH1 0x20 SWAP1 DUP2 MSTORE PUSH1 0x40 DUP1 DUP4 KECCAK256 PUSH1 0x0 DUP1 MLOAD PUSH1 0x20 PUSH2 0x1969 DUP4 CODECOPY DUP2 MLOAD SWAP2 MSTORE DUP5 MSTORE SWAP1 SWAP2 MSTORE SWAP1 KECCAK256 SLOAD PUSH1 0xFF AND JUMPDEST PUSH2 0xEBD JUMPI PUSH1 0x40 MLOAD PUSH3 0x461BCD PUSH1 0xE5 SHL DUP2 MSTORE PUSH1 0x4 ADD PUSH2 0x4B5 SWAP1 PUSH2 0x1827 JUMP JUMPDEST PUSH1 0x1 PUSH1 0x1 PUSH1 0xA0 SHL SUB DUP3 AND PUSH1 0x0 SWAP1 DUP2 MSTORE PUSH1 0x2 PUSH1 0x20 MSTORE PUSH1 0x40 SWAP1 KECCAK256 SLOAD DUP3 SWAP1 PUSH1 0xFF AND PUSH2 0xEF7 JUMPI PUSH1 0x40 MLOAD PUSH3 0x461BCD PUSH1 0xE5 SHL DUP2 MSTORE PUSH1 0x4 ADD PUSH2 0x4B5 SWAP1 PUSH2 0x186F JUMP JUMPDEST PUSH1 0x1 PUSH1 0x1 PUSH1 0xA0 SHL SUB DUP4 AND PUSH1 0x0 SWAP1 DUP2 MSTORE PUSH1 0x20 DUP2 SWAP1 MSTORE PUSH1 0x40 SWAP1 KECCAK256 PUSH1 0x5 DUP2 ADD SLOAD PUSH1 0x1 PUSH1 0xA8 SHL SWAP1 DIV PUSH1 0xFF AND ISZERO PUSH2 0xF3B JUMPI PUSH1 0x40 MLOAD PUSH3 0x461BCD PUSH1 0xE5 SHL DUP2 MSTORE PUSH1 0x4 ADD PUSH2 0x4B5 SWAP1 PUSH2 0x18EE JUMP JUMPDEST PUSH1 0x1 DUP2 ADD DUP4 SWAP1 SSTORE TIMESTAMP PUSH1 0x4 DUP3 ADD DUP2 SWAP1 SSTORE PUSH1 0x5 DUP3 ADD DUP1 SLOAD PUSH1 0x1 PUSH1 0x1 PUSH1 0xA0 SHL SUB NOT AND CALLER OR SWAP1 SSTORE DUP2 SLOAD PUSH1 0x40 MLOAD SWAP1 SWAP2 PUSH1 0x1 PUSH1 0x1 PUSH1 0xA0 SHL SUB DUP8 AND SWAP2 PUSH32 0x821247C4BA3F1D1DF82F34E743B010CB6D0EA980DF3861F3C8D0C296405A9F38 SWAP2 PUSH2 0xC86 SWAP2 DUP9 SWAP2 SWAP1 SWAP2 DUP3 MSTORE PUSH1 0x20 DUP3 ADD MSTORE PUSH1 0x40 ADD SWAP1 JUMP JUMPDEST CALLER PUSH1 0x0 SWAP1 DUP2 MSTORE PUSH1 0x3 PUSH1 0x20 SWAP1 DUP2 MSTORE PUSH1 0x40 DUP1 DUP4 KECCAK256 PUSH1 0x0 DUP1 MLOAD PUSH1 0x20 PUSH2 0x1949 DUP4 CODECOPY DUP2 MLOAD SWAP2 MSTORE DUP1 DUP6 MSTORE SWAP3 MSTORE SWAP1 SWAP2 KECCAK256 SLOAD PUSH1 0xFF AND PUSH2 0xFF0 JUMPI PUSH1 0x40 MLOAD PUSH3 0x461BCD PUSH1 0xE5 SHL DUP2 MSTORE PUSH1 0x4 ADD PUSH2 0x4B5 SWAP1 PUSH2 0x18A6 JUMP JUMPDEST PUSH1 0x1 PUSH1 0x1 PUSH1 0xA0 SHL SUB DUP4 AND PUSH1 0x0 DUP2 DUP2 MSTORE PUSH1 0x3 PUSH1 0x20 SWAP1 DUP2 MSTORE PUSH1 0x40 DUP1 DUP4 KECCAK256 DUP7 DUP5 MSTORE SWAP1 SWAP2 MSTORE DUP1 DUP3 KECCAK256 DUP1 SLOAD PUSH1 0xFF NOT AND PUSH1 0x1 OR SWAP1 SSTORE MLOAD CALLER SWAP3 DUP6 SWAP3 SWAP1 SWAP2 PUSH32 0x2739F947DA5133134A8E9C6A84D5ED6DA396844D81B4A760121C8B9C668BDF9C SWAP2 SWAP1 LOG4 POP POP POP JUMP JUMPDEST CALLER PUSH1 0x0 SWAP1 DUP2 MSTORE PUSH1 0x3 PUSH1 0x20 SWAP1 DUP2 MSTORE PUSH1 0x40 DUP1 DUP4 KECCAK256 PUSH1 0x0 DUP1 MLOAD PUSH1 0x20 PUSH2 0x1969 DUP4 CODECOPY DUP2 MLOAD SWAP2 MSTORE DUP1 DUP6 MSTORE SWAP3 MSTORE SWAP1 SWAP2 KECCAK256 SLOAD PUSH1 0xFF AND PUSH2 0x1098 JUMPI PUSH1 0x40 MLOAD PUSH3 0x461BCD PUSH1 0xE5 SHL DUP2 MSTORE PUSH1 0x4 ADD PUSH2 0x4B5 SWAP1 PUSH2 0x18A6 JUMP JUMPDEST PUSH1 0x1 PUSH1 0x1 PUSH1 0xA0 SHL SUB DUP4 AND PUSH1 0x0 SWAP1 DUP2 MSTORE PUSH1 0x2 PUSH1 0x20 MSTORE PUSH1 0x40 SWAP1 KECCAK256 SLOAD DUP4 SWAP1 PUSH1 0xFF AND PUSH2 0x10D2 JUMPI PUSH1 0x40 MLOAD PUSH3 0x461BCD PUSH1 0xE5 SHL DUP2 MSTORE PUSH1 0x4 ADD PUSH2 0x4B5 SWAP1 PUSH2 0x186F JUMP JUMPDEST PUSH1 0x1 PUSH1 0x1 PUSH1 0xA0 SHL SUB DUP5 AND PUSH1 0x0 SWAP1 DUP2 MSTORE PUSH1 0x4 PUSH1 0x20 MSTORE PUSH1 0x40 SWAP1 KECCAK256 SLOAD DUP4 LT PUSH2 0x1139 JUMPI PUSH1 0x40 MLOAD PUSH3 0x461BCD PUSH1 0xE5 SHL DUP2 MSTORE PUSH1 0x20 PUSH1 0x4 DUP3 ADD MSTORE PUSH1 0x1B PUSH1 0x24 DUP3 ADD MSTORE PUSH32 0x444249533A207265636F726420646F6573206E6F742065786973740000000000 PUSH1 0x44 DUP3 ADD MSTORE PUSH1 0x64 ADD PUSH2 0x4B5 JUMP JUMPDEST PUSH1 0x1 PUSH1 0x1 PUSH1 0xA0 SHL SUB DUP5 AND PUSH1 0x0 SWAP1 DUP2 MSTORE PUSH1 0x4 PUSH1 0x20 MSTORE PUSH1 0x40 DUP2 KECCAK256 DUP1 SLOAD DUP6 SWAP1 DUP2 LT PUSH2 0x1163 JUMPI PUSH2 0x1163 PUSH2 0x1932 JUMP JUMPDEST SWAP1 PUSH1 0x0 MSTORE PUSH1 0x20 PUSH1 0x0 KECCAK256 SWAP1 PUSH1 0x5 MUL ADD SWAP1 POP DUP1 PUSH1 0x3 ADD PUSH1 0x14 SWAP1 SLOAD SWAP1 PUSH2 0x100 EXP SWAP1 DIV PUSH1 0xFF AND ISZERO PUSH2 0x11D2 JUMPI PUSH1 0x40 MLOAD PUSH3 0x461BCD PUSH1 0xE5 SHL DUP2 MSTORE PUSH1 0x20 PUSH1 0x4 DUP3 ADD MSTORE PUSH1 0x1D PUSH1 0x24 DUP3 ADD MSTORE PUSH32 0x444249533A207265636F726420616C7265616479207665726966696564000000 PUSH1 0x44 DUP3 ADD MSTORE PUSH1 0x64 ADD PUSH2 0x4B5 JUMP JUMPDEST PUSH1 0x3 DUP2 ADD DUP1 SLOAD PUSH1 0x1 PUSH1 0x1 PUSH1 0xA8 SHL SUB NOT AND CALLER SWAP1 DUP2 OR PUSH1 0x1 PUSH1 0xA0 SHL OR SWAP1 SWAP2 SSTORE PUSH1 0x40 DUP1 MLOAD DUP7 DUP2 MSTORE TIMESTAMP PUSH1 0x20 DUP3 ADD MSTORE PUSH1 0x1 PUSH1 0x1 PUSH1 0xA0 SHL SUB DUP9 AND SWAP2 PUSH32 0xD8834D67AEC3B146BB27DFAD80040E86365C1BD9A455FCF900236A83ED5FE4EC SWAP2 ADD PUSH1 0x40 MLOAD DUP1 SWAP2 SUB SWAP1 LOG3 POP POP POP POP POP JUMP JUMPDEST CALLER PUSH1 0x0 SWAP1 DUP2 MSTORE PUSH1 0x3 PUSH1 0x20 SWAP1 DUP2 MSTORE PUSH1 0x40 DUP1 DUP4 KECCAK256 PUSH1 0x0 DUP1 MLOAD PUSH1 0x20 PUSH2 0x1949 DUP4 CODECOPY DUP2 MLOAD SWAP2 MSTORE DUP5 MSTORE SWAP1 SWAP2 MSTORE SWAP1 KECCAK256 SLOAD PUSH1 0xFF AND DUP1 PUSH2 0x1298 JUMPI POP CALLER PUSH1 0x0 SWAP1 DUP2 MSTORE PUSH1 0x3 PUSH1 0x20 SWAP1 DUP2 MSTORE PUSH1 0x40 DUP1 DUP4 KECCAK256 PUSH1 0x0 DUP1 MLOAD PUSH1 0x20 PUSH2 0x1969 DUP4 CODECOPY DUP2 MLOAD SWAP2 MSTORE DUP5 MSTORE SWAP1 SWAP2 MSTORE SWAP1 KECCAK256 SLOAD PUSH1 0xFF AND JUMPDEST PUSH2 0x12B4 JUMPI PUSH1 0x40 MLOAD PUSH3 0x461BCD PUSH1 0xE5 SHL DUP2 MSTORE PUSH1 0x4 ADD PUSH2 0x4B5 SWAP1 PUSH2 0x1827 JUMP JUMPDEST PUSH1 0x1 PUSH1 0x1 PUSH1 0xA0 SHL SUB DUP2 AND PUSH1 0x0 SWAP1 DUP2 MSTORE PUSH1 0x2 PUSH1 0x20 MSTORE PUSH1 0x40 SWAP1 KECCAK256 SLOAD DUP2 SWAP1 PUSH1 0xFF AND PUSH2 0x12EE JUMPI PUSH1 0x40 MLOAD PUSH3 0x461BCD PUSH1 0xE5 SHL DUP2 MSTORE PUSH1 0x4 ADD PUSH2 0x4B5 SWAP1 PUSH2 0x186F JUMP JUMPDEST PUSH1 0x1 PUSH1 0x1 PUSH1 0xA0 SHL SUB DUP3 AND PUSH1 0x0 SWAP1 DUP2 MSTORE PUSH1 0x20 DUP2 SWAP1 MSTORE PUSH1 0x40 SWAP1 KECCAK256 PUSH1 0x5 DUP2 ADD SLOAD PUSH1 0x1 PUSH1 0xA0 SHL SWAP1 DIV PUSH1 0xFF AND ISZERO PUSH2 0x1362 JUMPI PUSH1 0x40 MLOAD PUSH3 0x461BCD PUSH1 0xE5 SHL DUP2 MSTORE PUSH1 0x20 PUSH1 0x4 DUP3 ADD MSTORE PUSH1 0x1F PUSH1 0x24 DUP3 ADD MSTORE PUSH32 0x444249533A206964656E7469747920616C726561647920766572696669656400 PUSH1 0x44 DUP3 ADD MSTORE PUSH1 0x64 ADD PUSH2 0x4B5 JUMP JUMPDEST PUSH1 0x5 DUP2 ADD SLOAD PUSH1 0x1 PUSH1 0xA8 SHL SWAP1 DIV PUSH1 0xFF AND ISZERO PUSH2 0x13CA JUMPI PUSH1 0x40 MLOAD PUSH3 0x461BCD PUSH1 0xE5 SHL DUP2 MSTORE PUSH1 0x20 PUSH1 0x4 DUP3 ADD MSTORE PUSH1 0x24 DUP1 DUP3 ADD MSTORE PUSH32 0x444249533A2063616E6E6F7420766572696679207265766F6B6564206964656E PUSH1 0x44 DUP3 ADD MSTORE PUSH4 0x74697479 PUSH1 0xE0 SHL PUSH1 0x64 DUP3 ADD MSTORE PUSH1 0x84 ADD PUSH2 0x4B5 JUMP JUMPDEST PUSH1 0x5 DUP2 ADD DUP1 SLOAD TIMESTAMP PUSH1 0x4 DUP5 ADD DUP2 SWAP1 SSTORE PUSH1 0x1 PUSH1 0xA0 SHL CALLER PUSH1 0x1 PUSH1 0x1 PUSH1 0xA8 SHL SUB NOT SWAP1 SWAP4 AND DUP4 OR OR SWAP1 SWAP3 SSTORE DUP3 SLOAD PUSH1 0x40 MLOAD SWAP3 DUP4 MSTORE SWAP1 SWAP2 PUSH1 0x1 PUSH1 0x1 PUSH1 0xA0 SHL SUB DUP7 AND SWAP1 PUSH32 0x120496C78192308AAEF67D8588700531449C23F7D0C09C0E60449574DB26CF8A SWAP1 PUSH1 0x20 ADD PUSH2 0x5CD JUMP JUMPDEST CALLER PUSH1 0x0 DUP2 DUP2 MSTORE PUSH1 0x2 PUSH1 0x20 MSTORE PUSH1 0x40 SWAP1 KECCAK256 SLOAD PUSH1 0xFF AND PUSH2 0x145E JUMPI PUSH1 0x40 MLOAD PUSH3 0x461BCD PUSH1 0xE5 SHL DUP2 MSTORE PUSH1 0x4 ADD PUSH2 0x4B5 SWAP1 PUSH2 0x186F JUMP JUMPDEST CALLER PUSH1 0x0 SWAP1 DUP2 MSTORE PUSH1 0x20 DUP2 SWAP1 MSTORE PUSH1 0x40 SWAP1 KECCAK256 PUSH1 0x5 DUP2 ADD SLOAD PUSH1 0x1 PUSH1 0xA8 SHL SWAP1 DIV PUSH1 0xFF AND ISZERO PUSH2 0x14DE JUMPI PUSH1 0x40 MLOAD PUSH3 0x461BCD PUSH1 0xE5 SHL DUP2 MSTORE PUSH1 0x20 PUSH1 0x4 DUP3 ADD MSTORE PUSH1 0x2C PUSH1 0x24 DUP3 ADD MSTORE PUSH32 0x444249533A2063616E6E6F7420616464207265636F726420666F72207265766F PUSH1 0x44 DUP3 ADD MSTORE PUSH12 0x6B6564206964656E74697479 PUSH1 0xA0 SHL PUSH1 0x64 DUP3 ADD MSTORE PUSH1 0x84 ADD PUSH2 0x4B5 JUMP JUMPDEST PUSH1 0x40 DUP1 MLOAD PUSH1 0xC0 DUP2 ADD DUP3 MSTORE DUP7 DUP2 MSTORE PUSH1 0x20 DUP1 DUP3 ADD DUP8 DUP2 MSTORE DUP3 DUP5 ADD DUP8 DUP2 MSTORE PUSH1 0x0 PUSH1 0x60 DUP1 DUP7 ADD DUP3 DUP2 MSTORE PUSH1 0x80 DUP1 DUP9 ADD DUP5 DUP2 MSTORE TIMESTAMP PUSH1 0xA0 DUP11 ADD DUP2 DUP2 MSTORE CALLER DUP1 DUP9 MSTORE PUSH1 0x4 DUP1 DUP13 MSTORE DUP14 DUP10 KECCAK256 DUP1 SLOAD PUSH1 0x1 DUP1 DUP3 ADD DUP4 SSTORE SWAP2 DUP12 MSTORE SWAP10 DUP14 SWAP1 KECCAK256 DUP15 MLOAD PUSH1 0x5 SWAP1 SWAP12 MUL ADD SWAP10 DUP11 SSTORE SWAP11 MLOAD SWAP11 DUP10 ADD SWAP11 SWAP1 SWAP11 SSTORE SWAP8 MLOAD PUSH1 0x2 DUP9 ADD SSTORE SWAP4 MLOAD PUSH1 0x3 DUP8 ADD DUP1 SLOAD SWAP4 MLOAD ISZERO ISZERO PUSH1 0x1 PUSH1 0xA0 SHL MUL PUSH1 0x1 PUSH1 0x1 PUSH1 0xA8 SHL SUB NOT SWAP1 SWAP5 AND PUSH1 0x1 PUSH1 0x1 PUSH1 0xA0 SHL SUB SWAP1 SWAP3 AND SWAP2 SWAP1 SWAP2 OR SWAP3 SWAP1 SWAP3 OR SWAP1 SWAP2 SSTORE SWAP2 MLOAD SWAP4 SWAP1 SWAP6 ADD SWAP3 SWAP1 SWAP3 SSTORE DUP7 MLOAD DUP13 DUP2 MSTORE SWAP5 DUP6 ADD DUP12 SWAP1 MSTORE DUP5 DUP8 ADD DUP11 SWAP1 MSTORE DUP5 ADD MSTORE SWAP4 MLOAD SWAP3 SWAP4 SWAP3 PUSH32 0xA914F815F5F0D576B15C09EE186F3F0C57E55D528370056D7EDD8B81EAFB85F2 SWAP3 DUP2 SWAP1 SUB SWAP1 SWAP2 ADD SWAP1 LOG2 POP POP POP POP POP POP JUMP JUMPDEST PUSH1 0x1 PUSH1 0x1 PUSH1 0xA0 SHL SUB DUP3 AND PUSH1 0x0 SWAP1 DUP2 MSTORE PUSH1 0x2 PUSH1 0x20 MSTORE PUSH1 0x40 DUP2 KECCAK256 SLOAD DUP2 SWAP1 DUP2 SWAP1 DUP2 SWAP1 DUP2 SWAP1 DUP2 SWAP1 DUP9 SWAP1 PUSH1 0xFF AND PUSH2 0x1617 JUMPI PUSH1 0x40 MLOAD PUSH3 0x461BCD PUSH1 0xE5 SHL DUP2 MSTORE PUSH1 0x4 ADD PUSH2 0x4B5 SWAP1 PUSH2 0x186F JUMP JUMPDEST PUSH1 0x1 PUSH1 0x1 PUSH1 0xA0 SHL SUB DUP10 AND PUSH1 0x0 SWAP1 DUP2 MSTORE PUSH1 0x4 PUSH1 0x20 MSTORE PUSH1 0x40 SWAP1 KECCAK256 SLOAD DUP9 LT PUSH2 0x167E JUMPI PUSH1 0x40 MLOAD PUSH3 0x461BCD PUSH1 0xE5 SHL DUP2 MSTORE PUSH1 0x20 PUSH1 0x4 DUP3 ADD MSTORE PUSH1 0x1B PUSH1 0x24 DUP3 ADD MSTORE PUSH32 0x444249533A207265636F726420646F6573206E6F742065786973740000000000 PUSH1 0x44 DUP3 ADD MSTORE PUSH1 0x64 ADD PUSH2 0x4B5 JUMP JUMPDEST PUSH1 0x1 PUSH1 0x1 PUSH1 0xA0 SHL SUB DUP10 AND PUSH1 0x0 SWAP1 DUP2 MSTORE PUSH1 0x4 PUSH1 0x20 MSTORE PUSH1 0x40 DUP2 KECCAK256 DUP1 SLOAD DUP11 SWAP1 DUP2 LT PUSH2 0x16A8 JUMPI PUSH2 0x16A8 PUSH2 0x1932 JUMP JUMPDEST PUSH1 0x0 SWAP2 DUP3 MSTORE PUSH1 0x20 SWAP1 SWAP2 KECCAK256 PUSH1 0x5 SWAP1 SWAP2 MUL ADD DUP1 SLOAD PUSH1 0x1 DUP3 ADD SLOAD PUSH1 0x2 DUP4 ADD SLOAD PUSH1 0x3 DUP5 ADD SLOAD PUSH1 0x4 SWAP1 SWAP5 ADD SLOAD SWAP3 SWAP15 SWAP2 SWAP14 POP SWAP12 POP PUSH1 0x1 PUSH1 0x1 PUSH1 0xA0 SHL SUB DUP4 AND SWAP11 POP PUSH1 0x1 PUSH1 0xA0 SHL SWAP1 SWAP3 DIV PUSH1 0xFF AND SWAP9 POP SWAP7 POP SWAP5 POP POP POP POP POP JUMP JUMPDEST PUSH1 0x1 PUSH1 0x1 PUSH1 0xA0 SHL SUB DUP2 AND PUSH1 0x0 SWAP1 DUP2 MSTORE PUSH1 0x2 PUSH1 0x20 MSTORE PUSH1 0x40 DUP2 KECCAK256 SLOAD DUP3 SWAP1 PUSH1 0xFF AND PUSH2 0x1733 JUMPI PUSH1 0x40 MLOAD PUSH3 0x461BCD PUSH1 0xE5 SHL DUP2 MSTORE PUSH1 0x4 ADD PUSH2 0x4B5 SWAP1 PUSH2 0x186F JUMP JUMPDEST PUSH1 0x1 PUSH1 0x1 PUSH1 0xA0 SHL SUB DUP4 AND PUSH1 0x0 SWAP1 DUP2 MSTORE PUSH1 0x20 DUP2 SWAP1 MSTORE PUSH1 0x40 SWAP1 KECCAK256 PUSH1 0x5 DUP2 ADD SLOAD PUSH1 0x1 PUSH1 0xA0 SHL SWAP1 DIV PUSH1 0xFF AND DUP1 ISZERO PUSH2 0x1772 JUMPI POP PUSH1 0x5 DUP2 ADD SLOAD PUSH1 0x1 PUSH1 0xA8 SHL SWAP1 DIV PUSH1 0xFF AND ISZERO JUMPDEST SWAP5 SWAP4 POP POP POP POP JUMP JUMPDEST DUP1 CALLDATALOAD PUSH1 0x1 PUSH1 0x1 PUSH1 0xA0 SHL SUB DUP2 AND DUP2 EQ PUSH2 0x1791 JUMPI PUSH1 0x0 DUP1 REVERT JUMPDEST SWAP2 SWAP1 POP JUMP JUMPDEST PUSH1 0x0 PUSH1 0x20 DUP3 DUP5 SUB SLT ISZERO PUSH2 0x17A8 JUMPI PUSH1 0x0 DUP1 REVERT JUMPDEST PUSH2 0x17B1 DUP3 PUSH2 0x177A JUMP JUMPDEST SWAP4 SWAP3 POP POP POP JUMP JUMPDEST PUSH1 0x0 DUP1 PUSH1 0x40 DUP4 DUP6 SUB SLT ISZERO PUSH2 0x17CB JUMPI PUSH1 0x0 DUP1 REVERT JUMPDEST PUSH2 0x17D4 DUP4 PUSH2 0x177A JUMP JUMPDEST SWAP5 PUSH1 0x20 SWAP4 SWAP1 SWAP4 ADD CALLDATALOAD SWAP4 POP POP POP JUMP JUMPDEST PUSH1 0x0 DUP1 PUSH1 0x0 PUSH1 0x60 DUP5 DUP7 SUB SLT ISZERO PUSH2 0x17F7 JUMPI PUSH1 0x0 DUP1 REVERT JUMPDEST POP POP DUP2 CALLDATALOAD SWAP4 PUSH1 0x20 DUP4 ADD CALLDATALOAD SWAP4 POP PUSH1 0x40 SWAP1 SWAP3 ADD CALLDATALOAD SWAP2 SWAP1 POP JUMP JUMPDEST PUSH1 0x0 PUSH1 0x20 DUP3 DUP5 SUB SLT ISZERO PUSH2 0x1820 JUMPI PUSH1 0x0 DUP1 REVERT JUMPDEST POP CALLDATALOAD SWAP2 SWAP1 POP JUMP JUMPDEST PUSH1 0x20 DUP1 DUP3 MSTORE PUSH1 0x28 SWAP1 DUP3 ADD MSTORE PUSH32 0x444249533A2063616C6C6572206D7573742062652061646D696E206F7220676F PUSH1 0x40 DUP3 ADD MSTORE PUSH8 0x1D995C9B9B595B9D PUSH1 0xC2 SHL PUSH1 0x60 DUP3 ADD MSTORE PUSH1 0x80 ADD SWAP1 JUMP JUMPDEST PUSH1 0x20 DUP1 DUP3 MSTORE PUSH1 0x1D SWAP1 DUP3 ADD MSTORE PUSH32 0x444249533A206964656E7469747920646F6573206E6F74206578697374000000 PUSH1 0x40 DUP3 ADD MSTORE PUSH1 0x60 ADD SWAP1 JUMP JUMPDEST PUSH1 0x20 DUP1 DUP3 MSTORE PUSH1 0x28 SWAP1 DUP3 ADD MSTORE PUSH32 0x444249533A2063616C6C657220646F6573206E6F742068617665207265717569 PUSH1 0x40 DUP3 ADD MSTORE PUSH8 0x72656420726F6C65 PUSH1 0xC0 SHL PUSH1 0x60 DUP3 ADD MSTORE PUSH1 0x80 ADD SWAP1 JUMP JUMPDEST PUSH1 0x20 DUP1 DUP3 MSTORE PUSH1 0x24 SWAP1 DUP3 ADD MSTORE PUSH32 0x444249533A2063616E6E6F7420757064617465207265766F6B6564206964656E PUSH1 0x40 DUP3 ADD MSTORE PUSH4 0x74697479 PUSH1 0xE0 SHL PUSH1 0x60 DUP3 ADD MSTORE PUSH1 0x80 ADD SWAP1 JUMP JUMPDEST PUSH4 0x4E487B71 PUSH1 0xE0 SHL PUSH1 0x0 MSTORE PUSH1 0x32 PUSH1 0x4 MSTORE PUSH1 0x24 PUSH1 0x0 REVERT INVALID 0xDF DUP12 0x4C MSTORE 0xF INVALID NOT PUSH29 0x5343C6F5AEC59570151EF9A492F2C624FD45DDDE6135EC42C7A6BFA28E 0xE2 0x49 MSTORE8 TIMESTAMP 0x5E 0xFB SIGNEXTEND 0xB8 SWAP8 PUSH19 0x445020CD5AE1AF751673FD61A47416F017A264 PUSH10 0x706673582212209ADB0D 0xDB 0xBF SWAP13 PUSH12 0x4BE4E43154BB04F5EB94A9C COINBASE PUSH22 0x1B406AE91DBC67D11136C964736F6C63430008110033 "},"methodIdentifiers":{"ADMIN_ROLE()":"75b238fc","GOVERNMENT_ROLE()":"9cbed582","USER_ROLE()":"13119161","addProfessionalRecord(bytes32,uint256,uint256)":"bdbf8bcd","createIdentity(bytes32,bytes32,bytes32)":"46a528ba","getBiometricHash(address)":"680a138b","getIdentity(address)":"2fea7b81","getIdentityByUserId(bytes32)":"5ddf26ae","getProfessionalRecord(address,uint256)":"d4f2dbf9","getProfessionalRecordCount(address)":"5dfe2154","grantRole(address,bytes32)":"ab2742dc","hasRole(address,bytes32)":"ac4ab3fb","isIdentityVerified(address)":"f63ac762","registerDocument(bytes32)":"9b131974","revokeIdentity(address)":"0ebddd17","revokeRole(address,bytes32)":"208dd1ff","updateBiometricHash(address,bytes32)":"a166c556","updateProfessionalDataHash(address,bytes32)":"75be85e7","verifyDocument(bytes32)":"fe35089f","verifyIdentity(address)":"b5b90fd9","verifyProfessionalRecord(address,uint256)":"b3dccb7d"}}}}}