{"blockchain/contracts/IdentityManagement.sol":{"IdentityManagement":{"abi":[{"inputs":[],"stateMutability":"nonpayable","type":"constructor"},{"anonymous":false,"inputs":[{"indexed":true,"internalType":"address","name":"user","type":"address"},{"indexed":false,"internalType":"bytes32","name":"biometricHash","type":"bytes32"},{"indexed":false,"internalType":"uint256","name":"timestamp","type":"uint256"}],"name":"IdentityCreated","type":"event"},{"anonymous":false,"inputs":[{"indexed":true,"internalType":"address","name":"user","type":"address"},{"indexed":true,"internalType":"address","name":"updatedBy","type":"address"},{"indexed":false,"internalType":"uint256","name":"timestamp","type":"uint256"}],"name":"IdentityUpdated","type":"event"},{"anonymous":false,"inputs":[{"indexed":true,"internalType":"address","name":"user","type":"address"},{"indexed":true,"internalType":"address","name":"verifier","type":"address"},{"indexed":false,"internalType":"uint256","name":"timestamp","type":"uint256"}],"name":"IdentityVerified","type":"event"},{"anonymous":false,"inputs":[{"indexed":true,"internalType":"address","name":"user","type":"address"},{"indexed":false,"internalType":"bytes32","name":"dataHash","type":"bytes32"},{"indexed":false,"internalType":"uint256","name":"timestamp","type":"uint256"}],"name":"ProfessionalRecordAdded","type":"event"},{"anonymous":false,"inputs":[{"indexed":true,"internalType":"address","name":"user","type":"address"},{"indexed":false,"internalType":"uint256","name":"recordIndex","type":"uint256"},{"indexed":false,"internalType":"address","name":"verifier","type":"address"},{"indexed":false,"internalType":"uint256","name":"timestamp","type":"uint256"}],"name":"ProfessionalRecordVerified","type":"event"},{"anonymous":false,"inputs":[{"indexed":true,"internalType":"address","name":"account","type":"address"},{"indexed":true,"internalType":"bytes32","name":"role","type":"bytes32"},{"indexed":true,"internalType":"address","name":"grantor","type":"address"}],"name":"RoleGranted","type":"event"},{"anonymous":false,"inputs":[{"indexed":true,"internalType":"address","name":"account","type":"address"},{"indexed":true,"internalType":"bytes32","name":"role","type":"bytes32"},{"indexed":true,"internalType":"address","name":"revoker","type":"address"}],"name":"RoleRevoked","type":"event"},{"inputs":[],"name":"ADMIN_ROLE","outputs":[{"internalType":"bytes32","name":"","type":"bytes32"}],"stateMutability":"view","type":"function"},{"inputs":[],"name":"GOVERNMENT_ROLE","outputs":[{"internalType":"bytes32","name":"","type":"bytes32"}],"stateMutability":"view","type":"function"},{"inputs":[],"name":"USER_ROLE","outputs":[{"internalType":"bytes32","name":"","type":"bytes32"}],"stateMutability":"view","type":"function"},{"inputs":[{"internalType":"bytes32","name":"dataHash","type":"bytes32"},{"internalType":"uint256","name":"startDate","type":"uint256"},{"internalType":"uint256","name":"endDate","type":"uint256"}],"name":"addProfessionalRecord","outputs":[],"stateMutability":"nonpayable","type":"function"},{"inputs":[{"internalType":"bytes32","name":"biometricHash","type":"bytes32"},{"internalType":"bytes32","name":"professionalDataHash","type":"bytes32"}],"name":"createIdentity","outputs":[],"stateMutability":"nonpayable","type":"function"},{"inputs":[{"internalType":"address","name":"user","type":"address"}],"name":"getBiometricHash","outputs":[{"internalType":"bytes32","name":"","type":"bytes32"}],"stateMutability":"view","type":"function"},{"inputs":[{"internalType":"address","name":"user","type":"address"},{"internalType":"uint256","name":"recordIndex","type":"uint256"}],"name":"getProfessionalRecord","outputs":[{"internalType":"bytes32","name":"dataHash","type":"bytes32"},{"internalType":"uint256","name":"startDate","type":"uint256"},{"internalType":"uint256","name":"endDate","type":"uint256"},{"internalType":"address","name":"verifier","type":"address"},{"internalType":"bool","name":"isVerified","type":"bool"},{"internalType":"uint256","name":"createdAt","type":"uint256"}],"stateMutability":"view","type":"function"},{"inputs":[{"internalType":"address","name":"user","type":"address"}],"name":"getProfessionalRecordCount","outputs":[{"internalType":"uint256","name":"","type":"uint256"}],"stateMutability":"view","type":"function"},{"inputs":[{"internalType":"address","name":"account","type":"address"},{"internalType":"bytes32","name":"role","type":"bytes32"}],"name":"grantRole","outputs":[],"stateMutability":"nonpayable","type":"function"},{"inputs":[{"internalType":"address","name":"account","type":"address"},{"internalType":"bytes32","name":"role","type":"bytes32"}],"name":"hasRole","outputs":[{"internalType":"bool","name":"","type":"bool"}],"stateMutability":"view","type":"function"},{"inputs":[{"internalType":"address","name":"user","type":"address"}],"name":"isIdentityVerified","outputs":[{"internalType":"bool","name":"","type":"bool"}],"stateMutability":"view","type":"function"},{"inputs":[{"internalType":"address","name":"account","type":"address"},{"internalType":"bytes32","name":"role","type":"bytes32"}],"name":"revokeRole","outputs":[],"stateMutability":"nonpayable","type":"function"},{"inputs":[{"internalType":"address","name":"user","type":"address"},{"internalType":"bytes32","name":"newBiometricHash","type":"bytes32"}],"name":"updateBiometricHash","outputs":[],"stateMutability":"nonpayable","type":"function"},{"inputs":[{"internalType":"bytes32","name":"newProfessionalDataHash","type":"bytes32"}],"name":"updateProfessionalData","outputs":[],"stateMutability":"nonpayable","type":"function"},{"inputs":[{"internalType":"address","name":"user","type":"address"}],"name":"verifyIdentity","outputs":[],"stateMutability":"nonpayable","type":"function"},{"inputs":[{"internalType":"address","name":"user","type":"address"},{"internalType":"uint256","name":"recordIndex","type":"uint256"}],"name":"verifyProfessionalRecord","outputs":[],"stateMutability":"nonpayable","type":"function"}],"evm":{"bytecode":{"linkReferences":{},"object":"608060405234801561001057600080fd5b503360008181526002602090815260408083207fdf8b4c520ffe197c5343c6f5aec59570151ef9a492f2c624fd45ddde6135ec428085529252808320805460ff1916600117905551909183917f2739f947da5133134a8e9c6a84d5ed6da396844d81b4a760121c8b9c668bdf9c9190a4610fc58061008f6000396000f3fe608060405234801561001057600080fd5b50600436106101005760003560e01c8063ab2742dc11610097578063bdbf8bcd11610066578063bdbf8bcd14610262578063d4f2dbf914610275578063f28d0c1f146102c0578063f63ac762146102d357600080fd5b8063ab2742dc146101e0578063ac4ab3fb146101f3578063b3dccb7d1461023c578063b5b90fd91461024f57600080fd5b806375b238fc116100d357806375b238fc146101905780637f95b089146101a55780639cbed582146101b8578063a166c556146101cd57600080fd5b80631311916114610105578063208dd1ff1461013f5780635dfe215414610154578063680a138b1461017d575b600080fd5b61012c7f2db9fd3d099848027c2383d0a083396f6c41510d7acfd92adc99b6cffcf31e9681565b6040519081526020015b60405180910390f35b61015261014d366004610e09565b6102e6565b005b61012c610162366004610e33565b6001600160a01b031660009081526001602052604090205490565b61012c61018b366004610e33565b610394565b61012c600080516020610f5083398151915281565b6101526101b3366004610e55565b6103eb565b61012c600080516020610f7083398151915281565b6101526101db366004610e09565b610573565b6101526101ee366004610e09565b6106e1565b61022c610201366004610e09565b6001600160a01b03919091166000908152600260209081526040808320938352929052205460ff1690565b6040519015158152602001610136565b61015261024a366004610e09565b610789565b61015261025d366004610e33565b610919565b610152610270366004610e77565b610a0c565b610288610283366004610e09565b610bcf565b604080519687526020870195909552938501929092526001600160a01b031660608401521515608083015260a082015260c001610136565b6101526102ce366004610ea3565b610ced565b61022c6102e1366004610e33565b610d89565b336000908152600260209081526040808320600080516020610f5083398151915280855292529091205460ff166103385760405162461bcd60e51b815260040161032f90610ebc565b60405180910390fd5b6001600160a01b0383166000818152600260209081526040808320868452909152808220805460ff19169055513392859290917f8fa769283732af9aa4f65d966aceb1295944e96fcdd7031699b47da23286d2859190a4505050565b6001600160a01b038116600090815260036020526040812054829060ff166103ce5760405162461bcd60e51b815260040161032f90610f02565b50506001600160a01b031660009081526020819052604090205490565b3360009081526003602052604090205460ff161561044b5760405162461bcd60e51b815260206004820152601760248201527f4964656e7469747920616c726561647920657869737473000000000000000000604482015260640161032f565b336000818152602081815260408083208681556001808201879055426002808401829055600380850183905560048501805460ff60a01b198b166001600160a81b03199091161790558652848720805460ff1990811685179091559086528487207f2db9fd3d099848027c2383d0a083396f6c41510d7acfd92adc99b6cffcf31e96885290955294839020805490941617909255519092917f9161cc6e1ef27bd9c14e13d3328d786ace99bcc06695aee418950a6b8388e8929161051791878252602082015260400190565b60405180910390a260405133907f2db9fd3d099848027c2383d0a083396f6c41510d7acfd92adc99b6cffcf31e969082907f2739f947da5133134a8e9c6a84d5ed6da396844d81b4a760121c8b9c668bdf9c90600090a4505050565b6001600160a01b038216600090815260036020526040902054829060ff166105ad5760405162461bcd60e51b815260040161032f90610f02565b6001600160a01b0383163314806105ec5750336000908152600260209081526040808320600080516020610f70833981519152845290915290205460ff165b8061061f5750336000908152600260209081526040808320600080516020610f50833981519152845290915290205460ff165b61066b5760405162461bcd60e51b815260206004820152601860248201527f4e6f7420617574686f72697a656420746f207570646174650000000000000000604482015260640161032f565b6001600160a01b0383166000818152602081815260409182902085815542600382018190556004820180546001600160a01b0319163390811790915593519081529093917f1fceeede3e7bc3a67e8a2a88ef6df032033ae36ee4c9c25364375ff57cf1245191015b60405180910390a350505050565b336000908152600260209081526040808320600080516020610f5083398151915280855292529091205460ff1661072a5760405162461bcd60e51b815260040161032f90610ebc565b6001600160a01b0383166000818152600260209081526040808320868452909152808220805460ff19166001179055513392859290917f2739f947da5133134a8e9c6a84d5ed6da396844d81b4a760121c8b9c668bdf9c9190a4505050565b336000908152600260209081526040808320600080516020610f7083398151915280855292529091205460ff166107d25760405162461bcd60e51b815260040161032f90610ebc565b6001600160a01b038316600090815260036020526040902054839060ff1661080c5760405162461bcd60e51b815260040161032f90610f02565b6001600160a01b038416600090815260016020526040902054831061086b5760405162461bcd60e51b8152602060048201526015602482015274149958dbdc9908191bd95cc81b9bdd08195e1a5cdd605a1b604482015260640161032f565b6001600160a01b038416600090815260016020526040812080548590811061089557610895610f39565b6000918252602091829020600590910201600381018054600160a01b336001600160a81b03199092168217179091556040805188815293840191909152429083015291506001600160a01b038616907fd8834d67aec3b146bb27dfad80040e86365c1bd9a455fcf900236a83ed5fe4ec906060015b60405180910390a25050505050565b336000908152600260209081526040808320600080516020610f7083398151915280855292529091205460ff166109625760405162461bcd60e51b815260040161032f90610ebc565b6001600160a01b038216600090815260036020526040902054829060ff1661099c5760405162461bcd60e51b815260040161032f90610f02565b6001600160a01b038316600081815260208181526040918290206004810180544260038401819055600160a01b336001600160a81b031990931683171790925593519081529093917fb2bcb3ba2bf3b93e2542d507691451c5931f37cbc94db4d3290226b09334972491016106d3565b3360008181526003602052604090205460ff16610a3b5760405162461bcd60e51b815260040161032f90610f02565b42831115610a965760405162461bcd60e51b815260206004820152602260248201527f537461727420646174652063616e6e6f7420626520696e207468652066757475604482015261726560f01b606482015260840161032f565b811580610aa35750828210155b610af95760405162461bcd60e51b815260206004820152602160248201527f456e642064617465206d757374206265206166746572207374617274206461746044820152606560f81b606482015260840161032f565b6040805160c0810182528581526020808201868152828401868152600060608501818152608086018281524260a08801818152338086526001808a528b872080548083018255908852968a90208b5160059098020196875597519786019790975594516002850155915160038401805492511515600160a01b026001600160a81b03199093166001600160a01b0390921691909117919091179055915160049091015584518981529283015291927f7d7fe050998aff3da8ebec061ec0ba43f66201a3681e88947fe714495a188579910161090a565b6001600160a01b03821660009081526003602052604081205481908190819081908190889060ff16610c135760405162461bcd60e51b815260040161032f90610f02565b6001600160a01b0389166000908152600160205260409020548810610c725760405162461bcd60e51b8152602060048201526015602482015274149958dbdc9908191bd95cc81b9bdd08195e1a5cdd605a1b604482015260640161032f565b6001600160a01b038916600090815260016020526040812080548a908110610c9c57610c9c610f39565b600091825260209091206005909102018054600182015460028301546003840154600490940154929e919d509b506001600160a01b0383169a50600160a01b90920460ff1698509650945050505050565b3360008181526003602052604090205460ff16610d1c5760405162461bcd60e51b815260040161032f90610f02565b33600081815260208181526040918290206001810186905542600382018190556004820180546001600160a01b031916861790559251928352929182917f1fceeede3e7bc3a67e8a2a88ef6df032033ae36ee4c9c25364375ff57cf12451910160405180910390a3505050565b6001600160a01b038116600090815260036020526040812054829060ff16610dc35760405162461bcd60e51b815260040161032f90610f02565b50506001600160a01b0316600090815260208190526040902060040154600160a01b900460ff1690565b80356001600160a01b0381168114610e0457600080fd5b919050565b60008060408385031215610e1c57600080fd5b610e2583610ded565b946020939093013593505050565b600060208284031215610e4557600080fd5b610e4e82610ded565b9392505050565b60008060408385031215610e6857600080fd5b50508035926020909101359150565b600080600060608486031215610e8c57600080fd5b505081359360208301359350604090920135919050565b600060208284031215610eb557600080fd5b5035919050565b60208082526026908201527f43616c6c657220646f6573206e6f7420686176652074686520726571756972656040820152656420726f6c6560d01b606082015260800190565b60208082526017908201527f4964656e7469747920646f6573206e6f74206578697374000000000000000000604082015260600190565b634e487b7160e01b600052603260045260246000fdfedf8b4c520ffe197c5343c6f5aec59570151ef9a492f2c624fd45ddde6135ec42c7a6bfa28ee24953425efb0bb89772445020cd5ae1af751673fd61a47416f017a26469706673582212201c7f0908c8de74b85b7dc4a92a7945ba3b6de591cc9564f376d77d015743897364736f6c63430008110033","opcodes":"PUSH1 0x80 PUSH1 0x40 MSTORE CALLVALUE DUP1 ISZERO PUSH2 0x10 JUMPI PUSH1 0x0 DUP1 REVERT JUMPDEST POP CALLER PUSH1 0x0 DUP2 DUP2 MSTORE PUSH1 0x2 PUSH1 0x20 SWAP1 DUP2 MSTORE PUSH1 0x40 DUP1 DUP4 KECCAK256 PUSH32 0xDF8B4C520FFE197C5343C6F5AEC59570151EF9A492F2C624FD45DDDE6135EC42 DUP1 DUP6 MSTORE SWAP3 MSTORE DUP1 DUP4 KECCAK256 DUP1 SLOAD PUSH1 0xFF NOT AND PUSH1 0x1 OR SWAP1 SSTORE MLOAD SWAP1 SWAP2 DUP4 SWAP2 PUSH32 0x2739F947DA5133134A8E9C6A84D5ED6DA396844D81B4A760121C8B9C668BDF9C SWAP2 SWAP1 LOG4 PUSH2 0xFC5 DUP1 PUSH2 0x8F PUSH1 0x0 CODECOPY PUSH1 0x0 RETURN INVALID PUSH1 0x80 PUSH1 0x40 MSTORE CALLVALUE DUP1 ISZERO PUSH2 0x10 JUMPI PUSH1 0x0 DUP1 REVERT JUMPDEST POP PUSH1 0x4 CALLDATASIZE LT PUSH2 0x100 JUMPI PUSH1 0x0 CALLDATALOAD PUSH1 0xE0 SHR DUP1 PUSH4 0xAB2742DC GT PUSH2 0x97 JUMPI DUP1 PUSH4 0xBDBF8BCD GT PUSH2 0x66 JUMPI DUP1 PUSH4 0xBDBF8BCD EQ PUSH2 0x262 JUMPI DUP1 PUSH4 0xD4F2DBF9 EQ PUSH2 0x275 JUMPI DUP1 PUSH4 0xF28D0C1F EQ PUSH2 0x2C0 JUMPI DUP1 PUSH4 0xF63AC762 EQ PUSH2 0x2D3 JUMPI PUSH1 0x0 DUP1 REVERT JUMPDEST DUP1 PUSH4 0xAB2742DC EQ PUSH2 0x1E0 JUMPI DUP1 PUSH4 0xAC4AB3FB EQ PUSH2 0x1F3 JUMPI DUP1 PUSH4 0xB3DCCB7D EQ PUSH2 0x23C JUMPI DUP1 PUSH4 0xB5B90FD9 EQ PUSH2 0x24F JUMPI PUSH1 0x0 DUP1 REVERT JUMPDEST DUP1 PUSH4 0x75B238FC GT PUSH2 0xD3 JUMPI DUP1 PUSH4 0x75B238FC EQ PUSH2 0x190 JUMPI DUP1 PUSH4 0x7F95B089 EQ PUSH2 0x1A5 JUMPI DUP1 PUSH4 0x9CBED582 EQ PUSH2 0x1B8 JUMPI DUP1 PUSH4 0xA166C556 EQ PUSH2 0x1CD JUMPI PUSH1 0x0 DUP1 REVERT JUMPDEST DUP1 PUSH4 0x13119161 EQ PUSH2 0x105 JUMPI DUP1 PUSH4 0x208DD1FF EQ PUSH2 0x13F JUMPI DUP1 PUSH4 0x5DFE2154 EQ PUSH2 0x154 JUMPI DUP1 PUSH4 0x680A138B EQ PUSH2 0x17D JUMPI JUMPDEST PUSH1 0x0 DUP1 REVERT JUMPDEST PUSH2 0x12C PUSH32 0x2DB9FD3D099848027C2383D0A083396F6C41510D7ACFD92ADC99B6CFFCF31E96 DUP2 JUMP JUMPDEST PUSH1 0x40 MLOAD SWAP1 DUP2 MSTORE PUSH1 0x20 ADD JUMPDEST PUSH1 0x40 MLOAD DUP1 SWAP2 SUB SWAP1 RETURN JUMPDEST PUSH2 0x152 PUSH2 0x14D CALLDATASIZE PUSH1 0x4 PUSH2 0xE09 JUMP JUMPDEST PUSH2 0x2E6 JUMP JUMPDEST STOP JUMPDEST PUSH2 0x12C PUSH2 0x162 CALLDATASIZE PUSH1 0x4 PUSH2 0xE33 JUMP JUMPDEST PUSH1 0x1 PUSH1 0x1 PUSH1 0xA0 SHL SUB AND PUSH1 0x0 SWAP1 DUP2 MSTORE PUSH1 0x1 PUSH1 0x20 MSTORE PUSH1 0x40 SWAP1 KECCAK256 SLOAD SWAP1 JUMP JUMPDEST PUSH2 0x12C PUSH2 0x18B CALLDATASIZE PUSH1 0x4 PUSH2 0xE33 JUMP JUMPDEST PUSH2 0x394 JUMP JUMPDEST PUSH2 0x12C PUSH1 0x0 DUP1 MLOAD PUSH1 0x20 PUSH2 0xF50 DUP4 CODECOPY DUP2 MLOAD SWAP2 MSTORE DUP2 JUMP JUMPDEST PUSH2 0x152 PUSH2 0x1B3 CALLDATASIZE PUSH1 0x4 PUSH2 0xE55 JUMP JUMPDEST PUSH2 0x3EB JUMP JUMPDEST PUSH2 0x12C PUSH1 0x0 DUP1 MLOAD PUSH1 0x20 PUSH2 0xF70 DUP4 CODECOPY DUP2 MLOAD SWAP2 MSTORE DUP2 JUMP JUMPDEST PUSH2 0x152 PUSH2 0x1DB CALLDATASIZE PUSH1 0x4 PUSH2 0xE09 JUMP JUMPDEST PUSH2 0x573 JUMP JUMPDEST PUSH2 0x152 PUSH2 0x1EE CALLDATASIZE PUSH1 0x4 PUSH2 0xE09 JUMP JUMPDEST PUSH2 0x6E1 JUMP JUMPDEST PUSH2 0x22C PUSH2 0x201 CALLDATASIZE PUSH1 0x4 PUSH2 0xE09 JUMP JUMPDEST PUSH1 0x1 PUSH1 0x1 PUSH1 0xA0 SHL SUB SWAP2 SWAP1 SWAP2 AND PUSH1 0x0 SWAP1 DUP2 MSTORE PUSH1 0x2 PUSH1 0x20 SWAP1 DUP2 MSTORE PUSH1 0x40 DUP1 DUP4 KECCAK256 SWAP4 DUP4 MSTORE SWAP3 SWAP1 MSTORE KECCAK256 SLOAD PUSH1 0xFF AND SWAP1 JUMP JUMPDEST PUSH1 0x40 MLOAD SWAP1 ISZERO ISZERO DUP2 MSTORE PUSH1 0x20 ADD PUSH2 0x136 JUMP JUMPDEST PUSH2 0x152 PUSH2 0x24A CALLDATASIZE PUSH1 0x4 PUSH2 0xE09 JUMP JUMPDEST PUSH2 0x789 JUMP JUMPDEST PUSH2 0x152 PUSH2 0x25D CALLDATASIZE PUSH1 0x4 PUSH2 0xE33 JUMP JUMPDEST PUSH2 0x919 JUMP JUMPDEST PUSH2 0x152 PUSH2 0x270 CALLDATASIZE PUSH1 0x4 PUSH2 0xE77 JUMP JUMPDEST PUSH2 0xA0C JUMP JUMPDEST PUSH2 0x288 PUSH2 0x283 CALLDATASIZE PUSH1 0x4 PUSH2 0xE09 JUMP JUMPDEST PUSH2 0xBCF JUMP JUMPDEST PUSH1 0x40 DUP1 MLOAD SWAP7 DUP8 MSTORE PUSH1 0x20 DUP8 ADD SWAP6 SWAP1 SWAP6 MSTORE SWAP4 DUP6 ADD SWAP3 SWAP1 SWAP3 MSTORE PUSH1 0x1 PUSH1 0x1 PUSH1 0xA0 SHL SUB AND PUSH1 0x60 DUP5 ADD MSTORE ISZERO ISZERO PUSH1 0x80 DUP4 ADD MSTORE PUSH1 0xA0 DUP3 ADD MSTORE PUSH1 0xC0 ADD PUSH2 0x136 JUMP JUMPDEST PUSH2 0x152 PUSH2 0x2CE CALLDATASIZE PUSH1 0x4 PUSH2 0xEA3 JUMP JUMPDEST PUSH2 0xCED JUMP JUMPDEST PUSH2 0x22C PUSH2 0x2E1 CALLDATASIZE PUSH1 0x4 PUSH2 0xE33 JUMP JUMPDEST PUSH2 0xD89 JUMP JUMPDEST CALLER PUSH1 0x0 SWAP1 DUP2 MSTORE PUSH1 0x2 PUSH1 0x20 SWAP1 DUP2 MSTORE PUSH1 0x40 DUP1 DUP4 KECCAK256 PUSH1 0x0 DUP1 MLOAD PUSH1 0x20 PUSH2 0xF50 DUP4 CODECOPY DUP2 MLOAD SWAP2 MSTORE DUP1 DUP6 MSTORE SWAP3 MSTORE SWAP1 SWAP2 KECCAK256 SLOAD PUSH1 0xFF AND PUSH2 0x338 JUMPI PUSH1 0x40 MLOAD PUSH3 0x461BCD PUSH1 0xE5 SHL DUP2 MSTORE PUSH1 0x4 ADD PUSH2 0x32F SWAP1 PUSH2 0xEBC JUMP JUMPDEST PUSH1 0x40 MLOAD DUP1 SWAP2 SUB SWAP1 REVERT JUMPDEST PUSH1 0x1 PUSH1 0x1 PUSH1 0xA0 SHL SUB DUP4 AND PUSH1 0x0 DUP2 DUP2 MSTORE PUSH1 0x2 PUSH1 0x20 SWAP1 DUP2 MSTORE PUSH1 0x40 DUP1 DUP4 KECCAK256 DUP7 DUP5 MSTORE SWAP1 SWAP2 MSTORE DUP1 DUP3 KECCAK256 DUP1 SLOAD PUSH1 0xFF NOT AND SWAP1 SSTORE MLOAD CALLER SWAP3 DUP6 SWAP3 SWAP1 SWAP2 PUSH32 0x8FA769283732AF9AA4F65D966ACEB1295944E96FCDD7031699B47DA23286D285 SWAP2 SWAP1 LOG4 POP POP POP JUMP JUMPDEST PUSH1 0x1 PUSH1 0x1 PUSH1 0xA0 SHL SUB DUP2 AND PUSH1 0x0 SWAP1 DUP2 MSTORE PUSH1 0x3 PUSH1 0x20 MSTORE PUSH1 0x40 DUP2 KECCAK256 SLOAD DUP3 SWAP1 PUSH1 0xFF AND PUSH2 0x3CE JUMPI PUSH1 0x40 MLOAD PUSH3 0x461BCD PUSH1 0xE5 SHL DUP2 MSTORE PUSH1 0x4 ADD PUSH2 0x32F SWAP1 PUSH2 0xF02 JUMP JUMPDEST POP POP PUSH1 0x1 PUSH1 0x1 PUSH1 0xA0 SHL SUB AND PUSH1 0x0 SWAP1 DUP2 MSTORE PUSH1 0x20 DUP2 SWAP1 MSTORE PUSH1 0x40 SWAP1 KECCAK256 SLOAD SWAP1 JUMP JUMPDEST CALLER PUSH1 0x0 SWAP1 DUP2 MSTORE PUSH1 0x3 PUSH1 0x20 MSTORE PUSH1 0x40 SWAP1 KECCAK256 SLOAD PUSH1 0xFF AND ISZERO PUSH2 0x44B JUMPI PUSH1 0x40 MLOAD PUSH3 0x461BCD PUSH1 0xE5 SHL DUP2 MSTORE PUSH1 0x20 PUSH1 0x4 DUP3 ADD MSTORE PUSH1 0x17 PUSH1 0x24 DUP3 ADD MSTORE PUSH32 0x4964656E7469747920616C726561647920657869737473000000000000000000 PUSH1 0x44 DUP3 ADD MSTORE PUSH1 0x64 ADD PUSH2 0x32F JUMP JUMPDEST CALLER PUSH1 0x0 DUP2 DUP2 MSTORE PUSH1 0x20 DUP2 DUP2 MSTORE PUSH1 0x40 DUP1 DUP4 KECCAK256 DUP7 DUP2 SSTORE PUSH1 0x1 DUP1 DUP3 ADD DUP8 SWAP1 SSTORE TIMESTAMP PUSH1 0x2 DUP1 DUP5 ADD DUP3 SWAP1 SSTORE PUSH1 0x3 DUP1 DUP6 ADD DUP4 SWAP1 SSTORE PUSH1 0x4 DUP6 ADD DUP1 SLOAD PUSH1 0xFF PUSH1 0xA0 SHL NOT DUP12 AND PUSH1 0x1 PUSH1 0x1 PUSH1 0xA8 SHL SUB NOT SWAP1 SWAP2 AND OR SWAP1 SSTORE DUP7 MSTORE DUP5 DUP8 KECCAK256 DUP1 SLOAD PUSH1 0xFF NOT SWAP1 DUP2 AND DUP6 OR SWAP1 SWAP2 SSTORE SWAP1 DUP7 MSTORE DUP5 DUP8 KECCAK256 PUSH32 0x2DB9FD3D099848027C2383D0A083396F6C41510D7ACFD92ADC99B6CFFCF31E96 DUP9 MSTORE SWAP1 SWAP6 MSTORE SWAP5 DUP4 SWAP1 KECCAK256 DUP1 SLOAD SWAP1 SWAP5 AND OR SWAP1 SWAP3 SSTORE MLOAD SWAP1 SWAP3 SWAP2 PUSH32 0x9161CC6E1EF27BD9C14E13D3328D786ACE99BCC06695AEE418950A6B8388E892 SWAP2 PUSH2 0x517 SWAP2 DUP8 DUP3 MSTORE PUSH1 0x20 DUP3 ADD MSTORE PUSH1 0x40 ADD SWAP1 JUMP JUMPDEST PUSH1 0x40 MLOAD DUP1 SWAP2 SUB SWAP1 LOG2 PUSH1 0x40 MLOAD CALLER SWAP1 PUSH32 0x2DB9FD3D099848027C2383D0A083396F6C41510D7ACFD92ADC99B6CFFCF31E96 SWAP1 DUP3 SWAP1 PUSH32 0x2739F947DA5133134A8E9C6A84D5ED6DA396844D81B4A760121C8B9C668BDF9C SWAP1 PUSH1 0x0 SWAP1 LOG4 POP POP POP JUMP JUMPDEST PUSH1 0x1 PUSH1 0x1 PUSH1 0xA0 SHL SUB DUP3 AND PUSH1 0x0 SWAP1 DUP2 MSTORE PUSH1 0x3 PUSH1 0x20 MSTORE PUSH1 0x40 SWAP1 KECCAK256 SLOAD DUP3 SWAP1 PUSH1 0xFF AND PUSH2 0x5AD JUMPI PUSH1 0x40 MLOAD PUSH3 0x461BCD PUSH1 0xE5 SHL DUP2 MSTORE PUSH1 0x4 ADD PUSH2 0x32F SWAP1 PUSH2 0xF02 JUMP JUMPDEST PUSH1 0x1 PUSH1 0x1 PUSH1 0xA0 SHL SUB DUP4 AND CALLER EQ DUP1 PUSH2 0x5EC JUMPI POP CALLER PUSH1 0x0 SWAP1 DUP2 MSTORE PUSH1 0x2 PUSH1 0x20 SWAP1 DUP2 MSTORE PUSH1 0x40 DUP1 DUP4 KECCAK256 PUSH1 0x0 DUP1 MLOAD PUSH1 0x20 PUSH2 0xF70 DUP4 CODECOPY DUP2 MLOAD SWAP2 MSTORE DUP5 MSTORE SWAP1 SWAP2 MSTORE SWAP1 KECCAK256 SLOAD PUSH1 0xFF AND JUMPDEST DUP1 PUSH2 0x61F JUMPI POP CALLER PUSH1 0x0 SWAP1 DUP2 MSTORE PUSH1 0x2 PUSH1 0x20 SWAP1 DUP2 MSTORE PUSH1 0x40 DUP1 DUP4 KECCAK256 PUSH1 0x0 DUP1 MLOAD PUSH1 0x20 PUSH2 0xF50 DUP4 CODECOPY DUP2 MLOAD SWAP2 MSTORE DUP5 MSTORE SWAP1 SWAP2 MSTORE SWAP1 KECCAK256 SLOAD PUSH1 0xFF AND JUMPDEST PUSH2 0x66B JUMPI PUSH1 0x40 MLOAD PUSH3 0x461BCD PUSH1 0xE5 SHL DUP2 MSTORE PUSH1 0x20 PUSH1 0x4 DUP3 ADD MSTORE PUSH1 0x18 PUSH1 0x24 DUP3 ADD MSTORE PUSH32 0x4E6F7420617574686F72697A656420746F207570646174650000000000000000 PUSH1 0x44 DUP3 ADD MSTORE PUSH1 0x64 ADD PUSH2 0x32F JUMP JUMPDEST PUSH1 0x1 PUSH1 0x1 PUSH1 0xA0 SHL SUB DUP4 AND PUSH1 0x0 DUP2 DUP2 MSTORE PUSH1 0x20 DUP2 DUP2 MSTORE PUSH1 0x40 SWAP2 DUP3 SWAP1 KECCAK256 DUP6 DUP2 SSTORE TIMESTAMP PUSH1 0x3 DUP3 ADD DUP2 SWAP1 SSTORE PUSH1 0x4 DUP3 ADD DUP1 SLOAD PUSH1 0x1 PUSH1 0x1 PUSH1 0xA0 SHL SUB NOT AND CALLER SWAP1 DUP2 OR SWAP1 SWAP2 SSTORE SWAP4 MLOAD SWAP1 DUP2 MSTORE SWAP1 SWAP4 SWAP2 PUSH32 0x1FCEEEDE3E7BC3A67E8A2A88EF6DF032033AE36EE4C9C25364375FF57CF12451 SWAP2 ADD JUMPDEST PUSH1 0x40 MLOAD DUP1 SWAP2 SUB SWAP1 LOG3 POP POP POP POP JUMP JUMPDEST CALLER PUSH1 0x0 SWAP1 DUP2 MSTORE PUSH1 0x2 PUSH1 0x20 SWAP1 DUP2 MSTORE PUSH1 0x40 DUP1 DUP4 KECCAK256 PUSH1 0x0 DUP1 MLOAD PUSH1 0x20 PUSH2 0xF50 DUP4 CODECOPY DUP2 MLOAD SWAP2 MSTORE DUP1 DUP6 MSTORE SWAP3 MSTORE SWAP1 SWAP2 KECCAK256 SLOAD PUSH1 0xFF AND PUSH2 0x72A JUMPI PUSH1 0x40 MLOAD PUSH3 0x461BCD PUSH1 0xE5 SHL DUP2 MSTORE PUSH1 0x4 ADD PUSH2 0x32F SWAP1 PUSH2 0xEBC JUMP JUMPDEST PUSH1 0x1 PUSH1 0x1 PUSH1 0xA0 SHL SUB DUP4 AND PUSH1 0x0 DUP2 DUP2 MSTORE PUSH1 0x2 PUSH1 0x20 SWAP1 DUP2 MSTORE PUSH1 0x40 DUP1 DUP4 KECCAK256 DUP7 DUP5 MSTORE SWAP1 SWAP2 MSTORE DUP1 DUP3 KECCAK256 DUP1 SLOAD PUSH1 0xFF NOT AND PUSH1 0x1 OR SWAP1 SSTORE MLOAD CALLER SWAP3 DUP6 SWAP3 SWAP1 SWAP2 PUSH32 0x2739F947DA5133134A8E9C6A84D5ED6DA396844D81B4A760121C8B9C668BDF9C SWAP2 SWAP1 LOG4 POP POP POP JUMP JUMPDEST CALLER PUSH1 0x0 SWAP1 DUP2 MSTORE PUSH1 0x2 PUSH1 0x20 SWAP1 DUP2 MSTORE PUSH1 0x40 DUP1 DUP4 KECCAK256 PUSH1 0x0 DUP1 MLOAD PUSH1 0x20 PUSH2 0xF70 DUP4 CODECOPY DUP2 MLOAD SWAP2 MSTORE DUP1 DUP6 MSTORE SWAP3 MSTORE SWAP1 SWAP2 KECCAK256 SLOAD PUSH1 0xFF AND PUSH2 0x7D2 JUMPI PUSH1 0x40 MLOAD PUSH3 0x461BCD PUSH1 0xE5 SHL DUP2 MSTORE PUSH1 0x4 ADD PUSH2 0x32F SWAP1 PUSH2 0xEBC JUMP JUMPDEST PUSH1 0x1 PUSH1 0x1 PUSH1 0xA0 SHL SUB DUP4 AND PUSH1 0x0 SWAP1 DUP2 MSTORE PUSH1 0x3 PUSH1 0x20 MSTORE PUSH1 0x40 SWAP1 KECCAK256 SLOAD DUP4 SWAP1 PUSH1 0xFF AND PUSH2 0x80C JUMPI PUSH1 0x40 MLOAD PUSH3 0x461BCD PUSH1 0xE5 SHL DUP2 MSTORE PUSH1 0x4 ADD PUSH2 0x32F SWAP1 PUSH2 0xF02 JUMP JUMPDEST PUSH1 0x1 PUSH1 0x1 PUSH1 0xA0 SHL SUB DUP5 AND PUSH1 0x0 SWAP1 DUP2 MSTORE PUSH1 0x1 PUSH1 0x20 MSTORE PUSH1 0x40 SWAP1 KECCAK256 SLOAD DUP4 LT PUSH2 0x86B JUMPI PUSH1 0x40 MLOAD PUSH3 0x461BCD PUSH1 0xE5 SHL DUP2 MSTORE PUSH1 0x20 PUSH1 0x4 DUP3 ADD MSTORE PUSH1 0x15 PUSH1 0x24 DUP3 ADD MSTORE PUSH21 0x149958DBDC9908191BD95CC81B9BDD08195E1A5CDD PUSH1 0x5A SHL PUSH1 0x44 DUP3 ADD MSTORE PUSH1 0x64 ADD PUSH2 0x32F JUMP JUMPDEST PUSH1 0x1 PUSH1 0x1 PUSH1 0xA0 SHL SUB DUP5 AND PUSH1 0x0 SWAP1 DUP2 MSTORE PUSH1 0x1 PUSH1 0x20 MSTORE PUSH1 0x40 DUP2 KECCAK256 DUP1 SLOAD DUP6 SWAP1 DUP2 LT PUSH2 0x895 JUMPI PUSH2 0x895 PUSH2 0xF39 JUMP JUMPDEST PUSH1 0x0 SWAP2 DUP3 MSTORE PUSH1 0x20 SWAP2 DUP3 SWAP1 KECCAK256 PUSH1 0x5 SWAP1 SWAP2 MUL ADD PUSH1 0x3 DUP2 ADD DUP1 SLOAD PUSH1 0x1 PUSH1 0xA0 SHL CALLER PUSH1 0x1 PUSH1 0x1 PUSH1 0xA8 SHL SUB NOT SWAP1 SWAP3 AND DUP3 OR OR SWAP1 SWAP2 SSTORE PUSH1 0x40 DUP1 MLOAD DUP9 DUP2 MSTORE SWAP4 DUP5 ADD SWAP2 SWAP1 SWAP2 MSTORE TIMESTAMP SWAP1 DUP4 ADD MSTORE SWAP2 POP PUSH1 0x1 PUSH1 0x1 PUSH1 0xA0 SHL SUB DUP7 AND SWAP1 PUSH32 0xD8834D67AEC3B146BB27DFAD80040E86365C1BD9A455FCF900236A83ED5FE4EC SWAP1 PUSH1 0x60 ADD JUMPDEST PUSH1 0x40 MLOAD DUP1 SWAP2 SUB SWAP1 LOG2 POP POP POP POP POP JUMP JUMPDEST CALLER PUSH1 0x0 SWAP1 DUP2 MSTORE PUSH1 0x2 PUSH1 0x20 SWAP1 DUP2 MSTORE PUSH1 0x40 DUP1 DUP4 KECCAK256 PUSH1 0x0 DUP1 MLOAD PUSH1 0x20 PUSH2 0xF70 DUP4 CODECOPY DUP2 MLOAD SWAP2 MSTORE DUP1 DUP6 MSTORE SWAP3 MSTORE SWAP1 SWAP2 KECCAK256 SLOAD PUSH1 0xFF AND PUSH2 0x962 JUMPI PUSH1 0x40 MLOAD PUSH3 0x461BCD PUSH1 0xE5 SHL DUP2 MSTORE PUSH1 0x4 ADD PUSH2 0x32F SWAP1 PUSH2 0xEBC JUMP JUMPDEST PUSH1 0x1 PUSH1 0x1 PUSH1 0xA0 SHL SUB DUP3 AND PUSH1 0x0 SWAP1 DUP2 MSTORE PUSH1 0x3 PUSH1 0x20 MSTORE PUSH1 0x40 SWAP1 KECCAK256 SLOAD DUP3 SWAP1 PUSH1 0xFF AND PUSH2 0x99C JUMPI PUSH1 0x40 MLOAD PUSH3 0x461BCD PUSH1 0xE5 SHL DUP2 MSTORE PUSH1 0x4 ADD PUSH2 0x32F SWAP1 PUSH2 0xF02 JUMP JUMPDEST PUSH1 0x1 PUSH1 0x1 PUSH1 0xA0 SHL SUB DUP4 AND PUSH1 0x0 DUP2 DUP2 MSTORE PUSH1 0x20 DUP2 DUP2 MSTORE PUSH1 0x40 SWAP2 DUP3 SWAP1 KECCAK256 PUSH1 0x4 DUP2 ADD DUP1 SLOAD TIMESTAMP PUSH1 0x3 DUP5 ADD DUP2 SWAP1 SSTORE PUSH1 0x1 PUSH1 0xA0 SHL CALLER PUSH1 0x1 PUSH1 0x1 PUSH1 0xA8 SHL SUB NOT SWAP1 SWAP4 AND DUP4 OR OR SWAP1 SWAP3 SSTORE SWAP4 MLOAD SWAP1 DUP2 MSTORE SWAP1 SWAP4 SWAP2 PUSH32 0xB2BCB3BA2BF3B93E2542D507691451C5931F37CBC94DB4D3290226B093349724 SWAP2 ADD PUSH2 0x6D3 JUMP JUMPDEST CALLER PUSH1 0x0 DUP2 DUP2 MSTORE PUSH1 0x3 PUSH1 0x20 MSTORE PUSH1 0x40 SWAP1 KECCAK256 SLOAD PUSH1 0xFF AND PUSH2 0xA3B JUMPI PUSH1 0x40 MLOAD PUSH3 0x461BCD PUSH1 0xE5 SHL DUP2 MSTORE PUSH1 0x4 ADD PUSH2 0x32F SWAP1 PUSH2 0xF02 JUMP JUMPDEST TIMESTAMP DUP4 GT ISZERO PUSH2 0xA96 JUMPI PUSH1 0x40 MLOAD PUSH3 0x461BCD PUSH1 0xE5 SHL DUP2 MSTORE PUSH1 0x20 PUSH1 0x4 DUP3 ADD MSTORE PUSH1 0x22 PUSH1 0x24 DUP3 ADD MSTORE PUSH32 0x537461727420646174652063616E6E6F7420626520696E207468652066757475 PUSH1 0x44 DUP3 ADD MSTORE PUSH2 0x7265 PUSH1 0xF0 SHL PUSH1 0x64 DUP3 ADD MSTORE PUSH1 0x84 ADD PUSH2 0x32F JUMP JUMPDEST DUP2 ISZERO DUP1 PUSH2 0xAA3 JUMPI POP DUP3 DUP3 LT ISZERO JUMPDEST PUSH2 0xAF9 JUMPI PUSH1 0x40 MLOAD PUSH3 0x461BCD PUSH1 0xE5 SHL DUP2 MSTORE PUSH1 0x20 PUSH1 0x4 DUP3 ADD MSTORE PUSH1 0x21 PUSH1 0x24 DUP3 ADD MSTORE PUSH32 0x456E642064617465206D75737420626520616674657220737461727420646174 PUSH1 0x44 DUP3 ADD MSTORE PUSH1 0x65 PUSH1 0xF8 SHL PUSH1 0x64 DUP3 ADD MSTORE PUSH1 0x84 ADD PUSH2 0x32F JUMP JUMPDEST PUSH1 0x40 DUP1 MLOAD PUSH1 0xC0 DUP2 ADD DUP3 MSTORE DUP6 DUP2 MSTORE PUSH1 0x20 DUP1 DUP3 ADD DUP7 DUP2 MSTORE DUP3 DUP5 ADD DUP7 DUP2 MSTORE PUSH1 0x0 PUSH1 0x60 DUP6 ADD DUP2 DUP2 MSTORE PUSH1 0x80 DUP7 ADD DUP3 DUP2 MSTORE TIMESTAMP PUSH1 0xA0 DUP9 ADD DUP2 DUP2 MSTORE CALLER DUP1 DUP7 MSTORE PUSH1 0x1 DUP1 DUP11 MSTORE DUP12 DUP8 KECCAK256 DUP1 SLOAD DUP1 DUP4 ADD DUP3 SSTORE SWAP1 DUP9 MSTORE SWAP7 DUP11 SWAP1 KECCAK256 DUP12 MLOAD PUSH1 0x5 SWAP1 SWAP9 MUL ADD SWAP7 DUP8 SSTORE SWAP8 MLOAD SWAP8 DUP7 ADD SWAP8 SWAP1 SWAP8 SSTORE SWAP5 MLOAD PUSH1 0x2 DUP6 ADD SSTORE SWAP2 MLOAD PUSH1 0x3 DUP5 ADD DUP1 SLOAD SWAP3 MLOAD ISZERO ISZERO PUSH1 0x1 PUSH1 0xA0 SHL MUL PUSH1 0x1 PUSH1 0x1 PUSH1 0xA8 SHL SUB NOT SWAP1 SWAP4 AND PUSH1 0x1 PUSH1 0x1 PUSH1 0xA0 SHL SUB SWAP1 SWAP3 AND SWAP2 SWAP1 SWAP2 OR SWAP2 SWAP1 SWAP2 OR SWAP1 SSTORE SWAP2 MLOAD PUSH1 0x4 SWAP1 SWAP2 ADD SSTORE DUP5 MLOAD DUP10 DUP2 MSTORE SWAP3 DUP4 ADD MSTORE SWAP2 SWAP3 PUSH32 0x7D7FE050998AFF3DA8EBEC061EC0BA43F66201A3681E88947FE714495A188579 SWAP2 ADD PUSH2 0x90A JUMP JUMPDEST PUSH1 0x1 PUSH1 0x1 PUSH1 0xA0 SHL SUB DUP3 AND PUSH1 0x0 SWAP1 DUP2 MSTORE PUSH1 0x3 PUSH1 0x20 MSTORE PUSH1 0x40 DUP2 KECCAK256 SLOAD DUP2 SWAP1 DUP2 SWAP1 DUP2 SWAP1 DUP2 SWAP1 DUP2 SWAP1 DUP9 SWAP1 PUSH1 0xFF AND PUSH2 0xC13 JUMPI PUSH1 0x40 MLOAD PUSH3 0x461BCD PUSH1 0xE5 SHL DUP2 MSTORE PUSH1 0x4 ADD PUSH2 0x32F SWAP1 PUSH2 0xF02 JUMP JUMPDEST PUSH1 0x1 PUSH1 0x1 PUSH1 0xA0 SHL SUB DUP10 AND PUSH1 0x0 SWAP1 DUP2 MSTORE PUSH1 0x1 PUSH1 0x20 MSTORE PUSH1 0x40 SWAP1 KECCAK256 SLOAD DUP9 LT PUSH2 0xC72 JUMPI PUSH1 0x40 MLOAD PUSH3 0x461BCD PUSH1 0xE5 SHL DUP2 MSTORE PUSH1 0x20 PUSH1 0x4 DUP3 ADD MSTORE PUSH1 0x15 PUSH1 0x24 DUP3 ADD MSTORE PUSH21 0x149958DBDC9908191BD95CC81B9BDD08195E1A5CDD PUSH1 0x5A SHL PUSH1 0x44 DUP3 ADD MSTORE PUSH1 0x64 ADD PUSH2 0x32F JUMP JUMPDEST PUSH1 0x1 PUSH1 0x1 PUSH1 0xA0 SHL SUB DUP10 AND PUSH1 0x0 SWAP1 DUP2 MSTORE PUSH1 0x1 PUSH1 0x20 MSTORE PUSH1 0x40 DUP2 KECCAK256 DUP1 SLOAD DUP11 SWAP1 DUP2 LT PUSH2 0xC9C JUMPI PUSH2 0xC9C PUSH2 0xF39 JUMP JUMPDEST PUSH1 0x0 SWAP2 DUP3 MSTORE PUSH1 0x20 SWAP1 SWAP2 KECCAK256 PUSH1 0x5 SWAP1 SWAP2 MUL ADD DUP1 SLOAD PUSH1 0x1 DUP3 ADD SLOAD PUSH1 0x2 DUP4 ADD SLOAD PUSH1 0x3 DUP5 ADD SLOAD PUSH1 0x4 SWAP1 SWAP5 ADD SLOAD SWAP3 SWAP15 SWAP2 SWAP14 POP SWAP12 POP PUSH1 0x1 PUSH1 0x1 PUSH1 0xA0 SHL SUB DUP4 AND SWAP11 POP PUSH1 0x1 PUSH1 0xA0 SHL SWAP1 SWAP3 DIV PUSH1 0xFF AND SWAP9 POP SWAP7 POP SWAP5 POP POP POP POP POP JUMP JUMPDEST CALLER PUSH1 0x0 DUP2 DUP2 MSTORE PUSH1 0x3 PUSH1 0x20 MSTORE PUSH1 0x40 SWAP1 KECCAK256 SLOAD PUSH1 0xFF AND PUSH2 0xD1C JUMPI PUSH1 0x40 MLOAD PUSH3 0x461BCD PUSH1 0xE5 SHL DUP2 MSTORE PUSH1 0x4 ADD PUSH2 0x32F SWAP1 PUSH2 0xF02 JUMP JUMPDEST CALLER PUSH1 0x0 DUP2 DUP2 MSTORE PUSH1 0x20 DUP2 DUP2 MSTORE PUSH1 0x40 SWAP2 DUP3 SWAP1 KECCAK256 PUSH1 0x1 DUP2 ADD DUP7 SWAP1 SSTORE TIMESTAMP PUSH1 0x3 DUP3 ADD DUP2 SWAP1 SSTORE PUSH1 0x4 DUP3 ADD DUP1 SLOAD PUSH1 0x1 PUSH1 0x1 PUSH1 0xA0 SHL SUB NOT AND DUP7 OR SWAP1 SSTORE SWAP3 MLOAD SWAP3 DUP4 MSTORE SWAP3 SWAP2 DUP3 SWAP2 PUSH32 0x1FCEEEDE3E7BC3A67E8A2A88EF6DF032033AE36EE4C9C25364375FF57CF12451 SWAP2 ADD PUSH1 0x40 MLOAD DUP1 SWAP2 SUB SWAP1 LOG3 POP POP POP JUMP JUMPDEST PUSH1 0x1 PUSH1 0x1 PUSH1 0xA0 SHL SUB DUP2 AND PUSH1 0x0 SWAP1 DUP2 MSTORE PUSH1 0x3 PUSH1 0x20 MSTORE PUSH1 0x40 DUP2 KECCAK256 SLOAD DUP3 SWAP1 PUSH1 0xFF AND PUSH2 0xDC3 JUMPI PUSH1 0x40 MLOAD PUSH3 0x461BCD PUSH1 0xE5 SHL DUP2 MSTORE PUSH1 0x4 ADD PUSH2 0x32F SWAP1 PUSH2 0xF02 JUMP JUMPDEST POP POP PUSH1 0x1 PUSH1 0x1 PUSH1 0xA0 SHL SUB AND PUSH1 0x0 SWAP1 DUP2 MSTORE PUSH1 0x20 DUP2 SWAP1 MSTORE PUSH1 0x40 SWAP1 KECCAK256 PUSH1 0x4 ADD SLOAD PUSH1 0x1 PUSH1 0xA0 SHL SWAP1 DIV PUSH1 0xFF AND SWAP1 JUMP JUMPDEST DUP1 CALLDATALOAD PUSH1 0x1 PUSH1 0x1 PUSH1 0xA0 SHL SUB DUP2 AND DUP2 EQ PUSH2 0xE04 JUMPI PUSH1 0x0 DUP1 REVERT JUMPDEST SWAP2 SWAP1 POP JUMP JUMPDEST PUSH1 0x0 DUP1 PUSH1 0x40 DUP4 DUP6 SUB SLT ISZERO PUSH2 0xE1C JUMPI PUSH1 0x0 DUP1 REVERT JUMPDEST PUSH2 0xE25 DUP4 PUSH2 0xDED JUMP JUMPDEST SWAP5 PUSH1 0x20 SWAP4 SWAP1 SWAP4 ADD CALLDATALOAD SWAP4 POP POP POP JUMP JUMPDEST PUSH1 0x0 PUSH1 0x20 DUP3 DUP5 SUB SLT ISZERO PUSH2 0xE45 JUMPI PUSH1 0x0 DUP1 REVERT JUMPDEST PUSH2 0xE4E DUP3 PUSH2 0xDED JUMP JUMPDEST SWAP4 SWAP3 POP POP POP JUMP JUMPDEST PUSH1 0x0 DUP1 PUSH1 0x40 DUP4 DUP6 SUB SLT ISZERO PUSH2 0xE68 JUMPI PUSH1 0x0 DUP1 REVERT JUMPDEST POP POP DUP1 CALLDATALOAD SWAP3 PUSH1 0x20 SWAP1 SWAP2 ADD CALLDATALOAD SWAP2 POP JUMP JUMPDEST PUSH1 0x0 DUP1 PUSH1 0x0 PUSH1 0x60 DUP5 DUP7 SUB SLT ISZERO PUSH2 0xE8C JUMPI PUSH1 0x0 DUP1 REVERT JUMPDEST POP POP DUP2 CALLDATALOAD SWAP4 PUSH1 0x20 DUP4 ADD CALLDATALOAD SWAP4 POP PUSH1 0x40 SWAP1 SWAP3 ADD CALLDATALOAD SWAP2 SWAP1 POP JUMP JUMPDEST PUSH1 0x0 PUSH1 0x20 DUP3 DUP5 SUB SLT ISZERO PUSH2 0xEB5 JUMPI PUSH1 0x0 DUP1 REVERT JUMPDEST POP CALLDATALOAD SWAP2 SWAP1 POP JUMP JUMPDEST PUSH1 0x20 DUP1 DUP3 MSTORE PUSH1 0x26 SWAP1 DUP3 ADD MSTORE PUSH32 0x43616C6C657220646F6573206E6F742068617665207468652072657175697265 PUSH1 0x40 DUP3 ADD MSTORE PUSH6 0x6420726F6C65 PUSH1 0xD0 SHL PUSH1 0x60 DUP3 ADD MSTORE PUSH1 0x80 ADD SWAP1 JUMP JUMPDEST PUSH1 0x20 DUP1 DUP3 MSTORE PUSH1 0x17 SWAP1 DUP3 ADD MSTORE PUSH32 0x4964656E7469747920646F6573206E6F74206578697374000000000000000000 PUSH1 0x40 DUP3 ADD MSTORE PUSH1 0x60 ADD SWAP1 JUMP JUMPDEST PUSH4 0x4E487B71 PUSH1 0xE0 SHL PUSH1 0x0 MSTORE PUSH1 0x32 PUSH1 0x4 MSTORE PUSH1 0x24 PUSH1 0x0 REVERT INVALID 0xDF DUP12 0x4C MSTORE 0xF INVALID NOT PUSH29 0x5343C6F5AEC59570151EF9A492F2C624FD45DDDE6135EC42C7A6BFA28E 0xE2 0x49 MSTORE8 TIMESTAMP 0x5E 0xFB SIGNEXTEND 0xB8 SWAP8 PUSH19 0x445020CD5AE1AF751673FD61A47416F017A264 PUSH10 0x706673582212201C7F09 ADDMOD 0xC8 0xDE PUSH21 0xB85B7DC4A92A7945BA3B6DE591CC9564F376D77D01 JUMPI NUMBER DUP10 PUSH20 0x64736F6C63430008110033000000000000000000 "},"methodIdentifiers":{"ADMIN_ROLE()":"75b238fc","GOVERNMENT_ROLE()":"9cbed582","USER_ROLE()":"13119161","addProfessionalRecord(bytes32,uint256,uint256)":"bdbf8bcd","createIdentity(bytes32,bytes32)":"7f95b089","getBiometricHash(address)":"680a138b","getProfessionalRecord(address,uint256)":"d4f2dbf9","getProfessionalRecordCount(address)":"5dfe2154","grantRole(address,bytes32)":"ab2742dc","hasRole(address,bytes32)":"ac4ab3fb","isIdentityVerified(address)":"f63ac762","revokeRole(address,bytes32)":"208dd1ff","updateBiometricHash(address,bytes32)":"a166c556","updateProfessionalData(bytes32)":"f28d0c1f","verifyIdentity(address)":"b5b90fd9","verifyProfessionalRecord(address,uint256)":"b3dccb7d"}}}}}