{
  "_format": "hh-sol-artifact-1",
  "contractName": "BiometricIdentitySystem",
  "sourceName": "blockchain/contracts/BiometricIdentitySystem.sol",
  "abi": [
    {
      "inputs": [],
      "stateMutability": "nonpayable",
      "type": "constructor"
    },
    {
      "anonymous": false,
      "inputs": [
        {
          "indexed": true,
          "internalType": "address",
          "name": "userAddress",
          "type": "address"
        },
        {
          "indexed": true,
          "internalType": "bytes32",
          "name": "userId",
          "type": "bytes32"
        },
        {
          "indexed": false,
          "internalType": "bytes32",
          "name": "newBiometricHash",
          "type": "bytes32"
        },
        {
          "indexed": false,
          "internalType": "uint256",
          "name": "timestamp",
          "type": "uint256"
        }
      ],
      "name": "BiometricHashUpdated",
      "type": "event"
    },
    {
      "anonymous": false,
      "inputs": [
        {
          "indexed": true,
          "internalType": "address",
          "name": "userAddress",
          "type": "address"
        },
        {
          "indexed": true,
          "internalType": "bytes32",
          "name": "userId",
          "type": "bytes32"
        },
        {
          "indexed": false,
          "internalType": "bytes32",
          "name": "newCredentialsHash",
          "type": "bytes32"
        },
        {
          "indexed": false,
          "internalType": "uint256",
          "name": "timestamp",
          "type": "uint256"
        }
      ],
      "name": "CredentialsHashUpdated",
      "type": "event"
    },
    {
      "anonymous": false,
      "inputs": [
        {
          "indexed": true,
          "internalType": "address",
          "name": "account",
          "type": "address"
        },
        {
          "indexed": true,
          "internalType": "bytes32",
          "name": "role",
          "type": "bytes32"
        },
        {
          "indexed": true,
          "internalType": "address",
          "name": "grantor",
          "type": "address"
        }
      ],
      "name": "RoleGranted",
      "type": "event"
    },
    {
      "anonymous": false,
      "inputs": [
        {
          "indexed": true,
          "internalType": "address",
          "name": "account",
          "type": "address"
        },
        {
          "indexed": true,
          "internalType": "bytes32",
          "name": "role",
          "type": "bytes32"
        },
        {
          "indexed": true,
          "internalType": "address",
          "name": "revoker",
          "type": "address"
        }
      ],
      "name": "RoleRevoked",
      "type": "event"
    },
    {
      "anonymous": false,
      "inputs": [
        {
          "indexed": true,
          "internalType": "address",
          "name": "userAddress",
          "type": "address"
        },
        {
          "indexed": true,
          "internalType": "bytes32",
          "name": "userId",
          "type": "bytes32"
        },
        {
          "indexed": false,
          "internalType": "bytes32",
          "name": "biometricHash",
          "type": "bytes32"
        },
        {
          "indexed": false,
          "internalType": "uint256",
          "name": "timestamp",
          "type": "uint256"
        }
      ],
      "name": "UserRegistered",
      "type": "event"
    },
    {
      "anonymous": false,
      "inputs": [
        {
          "indexed": true,
          "internalType": "address",
          "name": "userAddress",
          "type": "address"
        },
        {
          "indexed": true,
          "internalType": "bytes32",
          "name": "userId",
          "type": "bytes32"
        },
        {
          "indexed": true,
          "internalType": "address",
          "name": "revoker",
          "type": "address"
        },
        {
          "indexed": false,
          "internalType": "uint256",
          "name": "timestamp",
          "type": "uint256"
        }
      ],
      "name": "UserRevoked",
      "type": "event"
    },
    {
      "anonymous": false,
      "inputs": [
        {
          "indexed": true,
          "internalType": "address",
          "name": "userAddress",
          "type": "address"
        },
        {
          "indexed": true,
          "internalType": "bytes32",
          "name": "userId",
          "type": "bytes32"
        },
        {
          "indexed": true,
          "internalType": "address",
          "name": "updater",
          "type": "address"
        },
        {
          "indexed": false,
          "internalType": "uint256",
          "name": "timestamp",
          "type": "uint256"
        }
      ],
      "name": "UserUpdated",
      "type": "event"
    },
    {
      "anonymous": false,
      "inputs": [
        {
          "indexed": true,
          "internalType": "address",
          "name": "userAddress",
          "type": "address"
        },
        {
          "indexed": true,
          "internalType": "bytes32",
          "name": "userId",
          "type": "bytes32"
        },
        {
          "indexed": true,
          "internalType": "address",
          "name": "verifier",
          "type": "address"
        },
        {
          "indexed": false,
          "internalType": "uint256",
          "name": "timestamp",
          "type": "uint256"
        }
      ],
      "name": "UserVerified",
      "type": "event"
    },
    {
      "inputs": [],
      "name": "ADMIN_ROLE",
      "outputs": [
        {
          "internalType": "bytes32",
          "name": "",
          "type": "bytes32"
        }
      ],
      "stateMutability": "view",
      "type": "function"
    },
    {
      "inputs": [],
      "name": "GOVERNMENT_ROLE",
      "outputs": [
        {
          "internalType": "bytes32",
          "name": "",
          "type": "bytes32"
        }
      ],
      "stateMutability": "view",
      "type": "function"
    },
    {
      "inputs": [],
      "name": "USER_ROLE",
      "outputs": [
        {
          "internalType": "bytes32",
          "name": "",
          "type": "bytes32"
        }
      ],
      "stateMutability": "view",
      "type": "function"
    },
    {
      "inputs": [
        {
          "internalType": "bytes32",
          "name": "userId",
          "type": "bytes32"
        }
      ],
      "name": "getAddressByUserId",
      "outputs": [
        {
          "internalType": "address",
          "name": "",
          "type": "address"
        }
      ],
      "stateMutability": "view",
      "type": "function"
    },
    {
      "inputs": [
        {
          "internalType": "address",
          "name": "userAddress",
          "type": "address"
        }
      ],
      "name": "getIdentity",
      "outputs": [
        {
          "internalType": "bytes32",
          "name": "userId",
          "type": "bytes32"
        },
        {
          "internalType": "bytes32",
          "name": "biometricHash",
          "type": "bytes32"
        },
        {
          "internalType": "bytes32",
          "name": "credentialsHash",
          "type": "bytes32"
        },
        {
          "internalType": "bool",
          "name": "isVerified",
          "type": "bool"
        },
        {
          "internalType": "bool",
          "name": "isRevoked",
          "type": "bool"
        },
        {
          "internalType": "uint256",
          "name": "lastUpdated",
          "type": "uint256"
        }
      ],
      "stateMutability": "view",
      "type": "function"
    },
    {
      "inputs": [
        {
          "internalType": "bytes32",
          "name": "userId",
          "type": "bytes32"
        }
      ],
      "name": "getIdentityByUserId",
      "outputs": [
        {
          "internalType": "address",
          "name": "userAddress",
          "type": "address"
        },
        {
          "internalType": "bytes32",
          "name": "biometricHash",
          "type": "bytes32"
        },
        {
          "internalType": "bytes32",
          "name": "credentialsHash",
          "type": "bytes32"
        },
        {
          "internalType": "bool",
          "name": "isVerified",
          "type": "bool"
        },
        {
          "internalType": "bool",
          "name": "isRevoked",
          "type": "bool"
        },
        {
          "internalType": "uint256",
          "name": "lastUpdated",
          "type": "uint256"
        }
      ],
      "stateMutability": "view",
      "type": "function"
    },
    {
      "inputs": [
        {
          "internalType": "address",
          "name": "account",
          "type": "address"
        },
        {
          "internalType": "bytes32",
          "name": "role",
          "type": "bytes32"
        }
      ],
      "name": "grantRole",
      "outputs": [],
      "stateMutability": "nonpayable",
      "type": "function"
    },
    {
      "inputs": [
        {
          "internalType": "address",
          "name": "account",
          "type": "address"
        },
        {
          "internalType": "bytes32",
          "name": "role",
          "type": "bytes32"
        }
      ],
      "name": "hasRole",
      "outputs": [
        {
          "internalType": "bool",
          "name": "",
          "type": "bool"
        }
      ],
      "stateMutability": "view",
      "type": "function"
    },
    {
      "inputs": [
        {
          "internalType": "address",
          "name": "userAddress",
          "type": "address"
        }
      ],
      "name": "identityExistsForAddress",
      "outputs": [
        {
          "internalType": "bool",
          "name": "",
          "type": "bool"
        }
      ],
      "stateMutability": "view",
      "type": "function"
    },
    {
      "inputs": [
        {
          "internalType": "address",
          "name": "userAddress",
          "type": "address"
        }
      ],
      "name": "isIdentityVerified",
      "outputs": [
        {
          "internalType": "bool",
          "name": "",
          "type": "bool"
        }
      ],
      "stateMutability": "view",
      "type": "function"
    },
    {
      "inputs": [
        {
          "internalType": "bytes32",
          "name": "userId",
          "type": "bytes32"
        },
        {
          "internalType": "bytes32",
          "name": "biometricHash",
          "type": "bytes32"
        },
        {
          "internalType": "bytes32",
          "name": "credentialsHash",
          "type": "bytes32"
        }
      ],
      "name": "registerIdentity",
      "outputs": [],
      "stateMutability": "nonpayable",
      "type": "function"
    },
    {
      "inputs": [
        {
          "internalType": "address",
          "name": "userAddress",
          "type": "address"
        }
      ],
      "name": "revokeIdentity",
      "outputs": [],
      "stateMutability": "nonpayable",
      "type": "function"
    },
    {
      "inputs": [
        {
          "internalType": "address",
          "name": "account",
          "type": "address"
        },
        {
          "internalType": "bytes32",
          "name": "role",
          "type": "bytes32"
        }
      ],
      "name": "revokeRole",
      "outputs": [],
      "stateMutability": "nonpayable",
      "type": "function"
    },
    {
      "inputs": [
        {
          "internalType": "address",
          "name": "userAddress",
          "type": "address"
        },
        {
          "internalType": "bytes32",
          "name": "newBiometricHash",
          "type": "bytes32"
        }
      ],
      "name": "updateBiometricHash",
      "outputs": [],
      "stateMutability": "nonpayable",
      "type": "function"
    },
    {
      "inputs": [
        {
          "internalType": "address",
          "name": "userAddress",
          "type": "address"
        },
        {
          "internalType": "bytes32",
          "name": "newCredentialsHash",
          "type": "bytes32"
        }
      ],
      "name": "updateCredentialsHash",
      "outputs": [],
      "stateMutability": "nonpayable",
      "type": "function"
    },
    {
      "inputs": [
        {
          "internalType": "bytes32",
          "name": "userId",
          "type": "bytes32"
        }
      ],
      "name": "userIdIsRegistered",
      "outputs": [
        {
          "internalType": "bool",
          "name": "",
          "type": "bool"
        }
      ],
      "stateMutability": "view",
      "type": "function"
    },
    {
      "inputs": [
        {
          "internalType": "address",
          "name": "userAddress",
          "type": "address"
        },
        {
          "internalType": "bytes32",
          "name": "documentHash",
          "type": "bytes32"
        }
      ],
      "name": "verifyDocument",
      "outputs": [
        {
          "internalType": "bool",
          "name": "",
          "type": "bool"
        }
      ],
      "stateMutability": "view",
      "type": "function"
    },
    {
      "inputs": [
        {
          "internalType": "address",
          "name": "userAddress",
          "type": "address"
        }
      ],
      "name": "verifyIdentity",
      "outputs": [],
      "stateMutability": "nonpayable",
      "type": "function"
    }
  ],
  "bytecode": "0x60a060405234801561001057600080fd5b5033608081905260008181526003602090815260408083207fdf8b4c520ffe197c5343c6f5aec59570151ef9a492f2c624fd45ddde6135ec428085529252808320805460ff1916600117905551909183917f2739f947da5133134a8e9c6a84d5ed6da396844d81b4a760121c8b9c668bdf9c9190a46080516114156100a060003960006105aa01526114156000f3fe608060405234801561001057600080fd5b50600436106101165760003560e01c806382872fd8116100a2578063ab2742dc11610071578063ab2742dc14610302578063ac4ab3fb14610315578063b5b90fd91461034e578063dbc4f91114610361578063f63ac7621461038c57600080fd5b806382872fd81461029b5780639cbed582146102c75780639f0662b7146102dc578063a166c556146102ef57600080fd5b80632fea7b81116100e95780632fea7b81146101be57806336cf2ca0146102025780635ddf26ae1461021557806373fea5031461026357806375b238fc1461028657600080fd5b80630ebddd171461011b5780631311916114610130578063140632131461016a578063208dd1ff146101ab575b600080fd5b61012e6101293660046111a0565b61039f565b005b6101577f2db9fd3d099848027c2383d0a083396f6c41510d7acfd92adc99b6cffcf31e9681565b6040519081526020015b60405180910390f35b6101936101783660046111bb565b6000908152600160205260409020546001600160a01b031690565b6040516001600160a01b039091168152602001610161565b61012e6101b93660046111d4565b610547565b6101d16101cc3660046111a0565b6106bb565b60408051968752602087019590955293850192909252151560608401521515608083015260a082015260c001610161565b61012e6102103660046111fe565b610756565b6102286102233660046111bb565b610998565b604080516001600160a01b039097168752602087019590955293850192909252151560608401521515608083015260a082015260c001610161565b6102766102713660046111d4565b610a81565b6040519015158152602001610161565b61015760008051602061138083398151915281565b6102766102a93660046111a0565b6001600160a01b031660009081526002602052604090205460ff1690565b6101576000805160206113c083398151915281565b61012e6102ea3660046111d4565b610b12565b61012e6102fd3660046111d4565b610cc8565b61012e6103103660046111d4565b610e2d565b6102766103233660046111d4565b6001600160a01b03919091166000908152600360209081526040808320938352929052205460ff1690565b61012e61035c3660046111a0565b610ed5565b61027661036f3660046111bb565b6000908152600160205260409020546001600160a01b0316151590565b61027661039a3660046111a0565b6110ee565b336000908152600360209081526040808320600080516020611380833981519152845290915290205460ff16806103fe57503360009081526003602090815260408083206000805160206113c0833981519152845290915290205460ff165b6104235760405162461bcd60e51b815260040161041a9061122a565b60405180910390fd5b6001600160a01b038116600090815260026020526040902054819060ff1661045d5760405162461bcd60e51b815260040161041a90611287565b6001600160a01b03821660009081526020819052604090206005810154600160a81b900460ff16156104d95760405162461bcd60e51b815260206004820152603160248201526000805160206113a08339815191526044820152701e48185b1c9958591e481c995d9bdad959607a1b606482015260840161041a565b6005810180544260048401819055600160a81b336001600160b01b0319909316831717909255825460405192835290916001600160a01b038616907ffe37eb48e14f1a640691ac8d63b8e6e38a92f2df64c1ce7e7d290d16e3f76cb4906020015b60405180910390a4505050565b33600090815260036020908152604080832060008051602061138083398151915280855292529091205460ff166105905760405162461bcd60e51b815260040161041a906112c5565b600080516020611380833981519152821480156105de57507f00000000000000000000000000000000000000000000000000000000000000006001600160a01b0316836001600160a01b0316145b1561065f5760405162461bcd60e51b815260206004820152604560248201527f42696f6d65747269634964656e7469747953797374656d3a2063616e6e6f742060448201527f7265766f6b652061646d696e20726f6c652066726f6d206f726967696e616c2060648201526430b236b4b760d91b608482015260a40161041a565b6001600160a01b0383166000818152600360209081526040808320868452909152808220805460ff19169055513392859290917f8fa769283732af9aa4f65d966aceb1295944e96fcdd7031699b47da23286d2859190a4505050565b6001600160a01b03811660009081526002602052604081205481908190819081908190879060ff166106ff5760405162461bcd60e51b815260040161041a90611287565b505050506001600160a01b0393909316600090815260208190526040902080546001820154600283015460058401546004909401549297919650945060ff600160a01b840481169450600160a81b90930490921691565b3360009081526002602052604090205460ff16156107d45760405162461bcd60e51b815260206004820152604160248201526000805160206113a083398151915260448201527f7920616c72656164792065786973747320666f722074686973206164647265736064820152607360f81b608482015260a40161041a565b6000838152600160205260409020546001600160a01b03161561084f5760405162461bcd60e51b815260206004820152602d60248201527f42696f6d65747269634964656e7469747953797374656d3a207573657249642060448201526c30b63932b0b23c903a30b5b2b760991b606482015260840161041a565b3360008181526020818152604080832087815560018082018890556002808301889055426003808501829055600485018290556005850180546001600160b01b03191661ffff60a01b198b16179055918652848720805460ff1990811685179091558b885283875285882080546001600160a01b0319168a1790558888529186528487207f2db9fd3d099848027c2383d0a083396f6c41510d7acfd92adc99b6cffcf31e968852865295849020805490911690911790558151878152928301939093529192869290917f4fbc9185c3ef8a4baed290c2388409b2540d06266f68880f74a2263a03ae2511910160405180910390a360405133907f2db9fd3d099848027c2383d0a083396f6c41510d7acfd92adc99b6cffcf31e969082907f2739f947da5133134a8e9c6a84d5ed6da396844d81b4a760121c8b9c668bdf9c90600090a450505050565b6000818152600160205260408120548190819081908190819087906001600160a01b031680610a205760405162461bcd60e51b815260206004820152602e60248201527f42696f6d65747269634964656e7469747953797374656d3a207573657249642060448201526d191bd95cc81b9bdd08195e1a5cdd60921b606482015260840161041a565b50505060009586525050600160208181526040808720546001600160a01b03168088529187905290952090810154600282015460058301546004909301549697919690955060ff600160a01b840481169550600160a81b9093049092169250565b6001600160a01b038216600090815260026020526040812054839060ff16610abb5760405162461bcd60e51b815260040161041a90611287565b6001600160a01b03841660009081526020819052604090206005810154600160a01b900460ff168015610afa57506005810154600160a81b900460ff16155b8015610b095750838160020154145b95945050505050565b336000908152600360209081526040808320600080516020611380833981519152845290915290205460ff1680610b7157503360009081526003602090815260408083206000805160206113c0833981519152845290915290205460ff165b610b8d5760405162461bcd60e51b815260040161041a9061122a565b6001600160a01b038216600090815260026020526040902054829060ff16610bc75760405162461bcd60e51b815260040161041a90611287565b6001600160a01b03831660009081526020819052604090206005810154600160a81b900460ff1615610c0b5760405162461bcd60e51b815260040161041a90611322565b6002810183905542600482018190556005820180546001600160a01b03191633179055815460405190916001600160a01b038716917fadc575d4ac5e0c7de14c33d58c60a6605590c1cd7fc235888e3636c26f61b45f91610c7791889190918252602082015260400190565b60405180910390a380546040514281523391906001600160a01b038716907fd6834370a20d49b5dd17db7d3adfb8691e17cb15134a9e1241c0c54587a83e389060200160405180910390a450505050565b336000908152600360209081526040808320600080516020611380833981519152845290915290205460ff1680610d2757503360009081526003602090815260408083206000805160206113c0833981519152845290915290205460ff165b610d435760405162461bcd60e51b815260040161041a9061122a565b6001600160a01b038216600090815260026020526040902054829060ff16610d7d5760405162461bcd60e51b815260040161041a90611287565b6001600160a01b03831660009081526020819052604090206005810154600160a81b900460ff1615610dc15760405162461bcd60e51b815260040161041a90611322565b6001810183905542600482018190556005820180546001600160a01b03191633179055815460405190916001600160a01b038716917f821247c4ba3f1d1df82f34e743b010cb6d0ea980df3861f3c8d0c296405a9f3891610c7791889190918252602082015260400190565b33600090815260036020908152604080832060008051602061138083398151915280855292529091205460ff16610e765760405162461bcd60e51b815260040161041a906112c5565b6001600160a01b0383166000818152600360209081526040808320868452909152808220805460ff19166001179055513392859290917f2739f947da5133134a8e9c6a84d5ed6da396844d81b4a760121c8b9c668bdf9c9190a4505050565b336000908152600360209081526040808320600080516020611380833981519152845290915290205460ff1680610f3457503360009081526003602090815260408083206000805160206113c0833981519152845290915290205460ff165b610f505760405162461bcd60e51b815260040161041a9061122a565b6001600160a01b038116600090815260026020526040902054819060ff16610f8a5760405162461bcd60e51b815260040161041a90611287565b6001600160a01b03821660009081526020819052604090206005810154600160a01b900460ff16156110075760405162461bcd60e51b815260206004820152603260248201526000805160206113a08339815191526044820152711e48185b1c9958591e481d995c9a599a595960721b606482015260840161041a565b6005810154600160a81b900460ff16156110895760405162461bcd60e51b815260206004820152603760248201527f42696f6d65747269634964656e7469747953797374656d3a2063616e6e6f742060448201527f766572696679207265766f6b6564206964656e74697479000000000000000000606482015260840161041a565b6005810180544260048401819055600160a01b336001600160a81b0319909316831717909255825460405192835290916001600160a01b038616907f120496c78192308aaef67d8588700531449c23f7d0c09c0e60449574db26cf8a9060200161053a565b6001600160a01b038116600090815260026020526040812054829060ff166111285760405162461bcd60e51b815260040161041a90611287565b6001600160a01b038316600090815260208190526040902060050154600160a01b900460ff16801561117d57506001600160a01b038316600090815260208190526040902060050154600160a81b900460ff16155b9392505050565b80356001600160a01b038116811461119b57600080fd5b919050565b6000602082840312156111b257600080fd5b61117d82611184565b6000602082840312156111cd57600080fd5b5035919050565b600080604083850312156111e757600080fd5b6111f083611184565b946020939093013593505050565b60008060006060848603121561121357600080fd5b505081359360208301359350604090920135919050565b6020808252603b908201527f42696f6d65747269634964656e7469747953797374656d3a2063616c6c65722060408201527f6d7573742062652061646d696e206f7220676f7665726e6d656e740000000000606082015260800190565b60208082526030908201526000805160206113a083398151915260408201526f1e48191bd95cc81b9bdd08195e1a5cdd60821b606082015260800190565b6020808252603b908201527f42696f6d65747269634964656e7469747953797374656d3a2063616c6c65722060408201527f646f6573206e6f74206861766520726571756972656420726f6c650000000000606082015260800190565b60208082526037908201527f42696f6d65747269634964656e7469747953797374656d3a2063616e6e6f742060408201527f757064617465207265766f6b6564206964656e7469747900000000000000000060608201526080019056fedf8b4c520ffe197c5343c6f5aec59570151ef9a492f2c624fd45ddde6135ec4242696f6d65747269634964656e7469747953797374656d3a206964656e746974c7a6bfa28ee24953425efb0bb89772445020cd5ae1af751673fd61a47416f017a26469706673582212206bc485084927e1bbf2241efbcd8b6ec78efa40e3c6fec9f92461b85e7e97af5c64736f6c63430008110033",
  "linkReferences": {},
  "deployedLinkReferences": {}
}